{
	"data": {
		"bytecode": {
			"linkReferences": {
				"remix_tests.sol": {
					"Assert": [
						{
							"length": 20,
							"start": 566
						},
						{
							"length": 20,
							"start": 865
						},
						{
							"length": 20,
							"start": 1054
						},
						{
							"length": 20,
							"start": 1354
						},
						{
							"length": 20,
							"start": 1623
						},
						{
							"length": 20,
							"start": 1983
						},
						{
							"length": 20,
							"start": 2304
						},
						{
							"length": 20,
							"start": 2542
						},
						{
							"length": 20,
							"start": 2835
						},
						{
							"length": 20,
							"start": 2959
						},
						{
							"length": 20,
							"start": 3181
						},
						{
							"length": 20,
							"start": 3504
						},
						{
							"length": 20,
							"start": 3687
						},
						{
							"length": 20,
							"start": 3995
						},
						{
							"length": 20,
							"start": 4173
						},
						{
							"length": 20,
							"start": 4416
						},
						{
							"length": 20,
							"start": 4640
						},
						{
							"length": 20,
							"start": 4857
						},
						{
							"length": 20,
							"start": 4990
						},
						{
							"length": 20,
							"start": 5180
						}
					]
				}
			},
			"object": "608060405234801561001057600080fd5b50612e4a806100206000396000f3fe608060405234801561001057600080fd5b50600436106100a95760003560e01c80637dee06cb116100715780637dee06cb146100e0578063a02649f1146100ea578063b1a37f3f146100f4578063ccf6d864146100fe578063ddc3012a14610108578063f4c419c714610112576100a9565b8063183a864c146100ae5780632283bffd146100b85780636e876938146100c25780636edbe921146100cc578063729d4994146100d6575b600080fd5b6100b661011c565b005b6100c0610293565b005b6100ca6103bf565b005b6100d461047c565b005b6100de6105a8565b005b6100e861081d565b005b6100f2610a4d565b005b6100fc610bee565b005b610106610ec8565b005b610110610ffa565b005b61011a61127f565b005b600a67ffffffffffffffff81111561013757610136611740565b5b6040519080825280602002602001820160405280156101655781602001602082028036833780820191505090505b50606460006005811061017b5761017a61176f565b5b01908051906020019061018f92919061149d565b50606460699060056101a29291906114ea565b50600160646000600581106101ba576101b961176f565b5b016000815481106101ce576101cd61176f565b5b9060005260206000200181905550600060696000600581106101f3576101f261176f565b5b016000815481106102075761020661176f565b5b9060005260206000200154905073__$acbfb1c35000d78352310b16a054a6b106$__63f5bae6b68260006040518363ffffffff1660e01b815260040161024e929190611859565b602060405180830381865af415801561026b573d6000803e3d6000fd5b505050506040513d601f19601f8201168201806040525081019061028f91906118d2565b5050565b60006040516102a190611534565b604051809103906000f0801580156102bd573d6000803e3d6000fd5b50905060008173ffffffffffffffffffffffffffffffffffffffff166329f5debf60016040518263ffffffff1660e01b81526004016102fc919061193a565b602060405180830381865afa158015610319573d6000803e3d6000fd5b505050506040513d601f19601f8201168201806040525081019061033d9190611981565b905073__$acbfb1c35000d78352310b16a054a6b106$__63f5bae6b68260016040518363ffffffff1660e01b8152600401610379929190611a09565b602060405180830381865af4158015610396573d6000803e3d6000fd5b505050506040513d601f19601f820116820180604052508101906103ba91906118d2565b505050565b6103c7611541565b6000816000600a81106103dd576103dc61176f565b5b60200201516000600581106103f5576103f461176f565b5b6020020151905073__$acbfb1c35000d78352310b16a054a6b106$__63f5bae6b68260006040518363ffffffff1660e01b8152600401610436929190611a91565b602060405180830381865af4158015610453573d6000803e3d6000fd5b505050506040513d601f19601f8201168201806040525081019061047791906118d2565b505050565b600060405161048a90611534565b604051809103906000f0801580156104a6573d6000803e3d6000fd5b50905060008173ffffffffffffffffffffffffffffffffffffffff16636d9953d160016040518263ffffffff1660e01b81526004016104e5919061193a565b602060405180830381865afa158015610502573d6000803e3d6000fd5b505050506040513d601f19601f820116820180604052508101906105269190611981565b905073__$acbfb1c35000d78352310b16a054a6b106$__63f5bae6b68260016040518363ffffffff1660e01b8152600401610562929190611b19565b602060405180830381865af415801561057f573d6000803e3d6000fd5b505050506040513d601f19601f820116820180604052508101906105a391906118d2565b505050565b60006040516105b690611534565b604051809103906000f0801580156105d2573d6000803e3d6000fd5b5090508073ffffffffffffffffffffffffffffffffffffffff1663a0a985976040518163ffffffff1660e01b8152600401600060405180830381600087803b15801561061d57600080fd5b505af1158015610631573d6000803e3d6000fd5b5050505073__$acbfb1c35000d78352310b16a054a6b106$__63abcd79608273ffffffffffffffffffffffffffffffffffffffff16622dff076040518163ffffffff1660e01b8152600401602060405180830381865afa158015610699573d6000803e3d6000fd5b505050506040513d601f19601f820116820180604052508101906106bd9190611b8b565b60026040518363ffffffff1660e01b81526004016106dc929190611c4e565b602060405180830381865af41580156106f9573d6000803e3d6000fd5b505050506040513d601f19601f8201168201806040525081019061071d91906118d2565b5060008173ffffffffffffffffffffffffffffffffffffffff1663ab35ec6360016040518263ffffffff1660e01b815260040161075a9190611cbb565b602060405180830381865afa158015610777573d6000803e3d6000fd5b505050506040513d601f19601f8201168201806040525081019061079b9190611981565b905073__$acbfb1c35000d78352310b16a054a6b106$__63f5bae6b68260016040518363ffffffff1660e01b81526004016107d7929190611d22565b602060405180830381865af41580156107f4573d6000803e3d6000fd5b505050506040513d601f19601f8201168201806040525081019061081891906118d2565b505050565b61082561156f565b600a67ffffffffffffffff8111156108405761083f611740565b5b60405190808252806020026020018201604052801561086e5781602001602082028036833780820191505090505b50816000600581106108835761088261176f565b5b60200201819052508060006005811061089f5761089e61176f565b5b6020020151816001600581106108b8576108b761176f565b5b60200201819052506000816001600581106108d6576108d561176f565b5b602002015151905073__$acbfb1c35000d78352310b16a054a6b106$__63abcd796082600a6040518363ffffffff1660e01b8152600401610918929190611de5565b602060405180830381865af4158015610935573d6000803e3d6000fd5b505050506040513d601f19601f8201168201806040525081019061095991906118d2565b506002826000600581106109705761096f61176f565b5b60200201516000815181106109885761098761176f565b5b6020026020010181815250506000826001600581106109aa576109a961176f565b5b60200201516000815181106109c2576109c161176f565b5b6020026020010151905073__$acbfb1c35000d78352310b16a054a6b106$__63f5bae6b68260026040518363ffffffff1660e01b8152600401610a06929190611e9e565b602060405180830381865af4158015610a23573d6000803e3d6000fd5b505050506040513d601f19601f82011682018060405250810190610a4791906118d2565b50505050565b6000604051610a5b90611534565b604051809103906000f080158015610a77573d6000803e3d6000fd5b5090506000808273ffffffffffffffffffffffffffffffffffffffff16634ade209d6040518163ffffffff1660e01b815260040160408051808303816000875af1158015610ac9573d6000803e3d6000fd5b505050506040513d601f19601f82011682018060405250810190610aed9190611eda565b9150915073__$acbfb1c35000d78352310b16a054a6b106$__63f5bae6b68360006040518363ffffffff1660e01b8152600401610b2b929190611f66565b602060405180830381865af4158015610b48573d6000803e3d6000fd5b505050506040513d601f19601f82011682018060405250810190610b6c91906118d2565b5073__$acbfb1c35000d78352310b16a054a6b106$__63f5bae6b68260026040518363ffffffff1660e01b8152600401610ba7929190611fee565b602060405180830381865af4158015610bc4573d6000803e3d6000fd5b505050506040513d601f19601f82011682018060405250810190610be891906118d2565b50505050565b606080600a67ffffffffffffffff811115610c0c57610c0b611740565b5b604051908082528060200260200182016040528015610c3f57816020015b6060815260200190600190039081610c2a5790505b50915081905060008251905073__$acbfb1c35000d78352310b16a054a6b106$__63abcd796082600a6040518363ffffffff1660e01b8152600401610c85929190612076565b602060405180830381865af4158015610ca2573d6000803e3d6000fd5b505050506040513d601f19601f82011682018060405250810190610cc691906118d2565b50600267ffffffffffffffff811115610ce257610ce1611740565b5b604051908082528060200260200182016040528015610d105781602001602082028036833780820191505090505b5082600081518110610d2557610d2461176f565b5b6020026020010181905250600382600081518110610d4657610d4561176f565b5b6020026020010151600181518110610d6157610d6061176f565b5b602002602001018181525050600083600081518110610d8357610d8261176f565b5b602002602001015151905073__$acbfb1c35000d78352310b16a054a6b106$__63abcd79608260026040518363ffffffff1660e01b8152600401610dc8929190612124565b602060405180830381865af4158015610de5573d6000803e3d6000fd5b505050506040513d601f19601f82011682018060405250810190610e0991906118d2565b50600084600081518110610e2057610e1f61176f565b5b6020026020010151600181518110610e3b57610e3a61176f565b5b6020026020010151905073__$acbfb1c35000d78352310b16a054a6b106$__63f5bae6b68260036040518363ffffffff1660e01b8152600401610e7f9291906121e7565b602060405180830381865af4158015610e9c573d6000803e3d6000fd5b505050506040513d601f19601f82011682018060405250810190610ec091906118d2565b505050505050565b610ed0611541565b610ed8611541565b6001826000600a8110610eee57610eed61176f565b5b6020020151600060058110610f0657610f0561176f565b5b602002018181525050816000600a8110610f2357610f2261176f565b5b6020020151816000600a8110610f3c57610f3b61176f565b5b60200201819052506000816000600a8110610f5a57610f5961176f565b5b6020020151600060058110610f7257610f7161176f565b5b6020020151905073__$acbfb1c35000d78352310b16a054a6b106$__63f5bae6b68260016040518363ffffffff1660e01b8152600401610fb392919061226f565b602060405180830381865af4158015610fd0573d6000803e3d6000fd5b505050506040513d601f19601f82011682018060405250810190610ff491906118d2565b50505050565b6000806000600a81106110105761100f61176f565b5b600502016000600581106110275761102661176f565b5b0154905073__$acbfb1c35000d78352310b16a054a6b106$__63f5bae6b68260006040518363ffffffff1660e01b815260040161106592919061231d565b602060405180830381865af4158015611082573d6000803e3d6000fd5b505050506040513d601f19601f820116820180604052508101906110a691906118d2565b506001600080600a81106110bd576110bc61176f565b5b600502016000600581106110d4576110d361176f565b5b01819055506000603290600a6110eb929190611596565b50600060326000600a81106111035761110261176f565b5b6005020160006005811061111a5761111961176f565b5b0154905073__$acbfb1c35000d78352310b16a054a6b106$__63f5bae6b68260016040518363ffffffff1660e01b81526004016111589291906123a5565b602060405180830381865af4158015611175573d6000803e3d6000fd5b505050506040513d601f19601f8201168201806040525081019061119991906118d2565b506002600080600a81106111b0576111af61176f565b5b600502016001600581106111c7576111c661176f565b5b0181905550600060326000600a81106111e3576111e261176f565b5b600502016001600581106111fa576111f961176f565b5b0154905073__$acbfb1c35000d78352310b16a054a6b106$__63f5bae6b68260006040518363ffffffff1660e01b815260040161123892919061242d565b602060405180830381865af4158015611255573d6000803e3d6000fd5b505050506040513d601f19601f8201168201806040525081019061127991906118d2565b50505050565b606080819050600a67ffffffffffffffff8111156112a05761129f611740565b5b6040519080825280602002602001820160405280156112ce5781602001602082028036833780820191505090505b50915060008151905073__$acbfb1c35000d78352310b16a054a6b106$__63abcd79608260006040518363ffffffff1660e01b81526004016113119291906124e6565b602060405180830381865af415801561132e573d6000803e3d6000fd5b505050506040513d601f19601f8201168201806040525081019061135291906118d2565b5082915060008251905073__$acbfb1c35000d78352310b16a054a6b106$__63abcd796082600a6040518363ffffffff1660e01b815260040161139692919061256e565b602060405180830381865af41580156113b3573d6000803e3d6000fd5b505050506040513d601f19601f820116820180604052508101906113d791906118d2565b506001846000815181106113ee576113ed61176f565b5b6020026020010181815250506000836000815181106114105761140f61176f565b5b6020026020010151905073__$acbfb1c35000d78352310b16a054a6b106$__63f5bae6b68260016040518363ffffffff1660e01b81526004016114549291906125f6565b602060405180830381865af4158015611471573d6000803e3d6000fd5b505050506040513d601f19601f8201168201806040525081019061149591906118d2565b505050505050565b8280548282559060005260206000209081019282156114d9579160200282015b828111156114d85782518255916020019190600101906114bd565b5b5090506114e691906115e6565b5090565b8260058101928215611523579182015b82811115611522578282908054611512929190611603565b50916001019190600101906114fa565b5b5090506115309190611655565b5090565b6107e28061263383390190565b604051806101400160405280600a905b611559611679565b8152602001906001900390816115515790505090565b6040518060a001604052806005905b606081526020019060019003908161157e5790505090565b82600a60050281019282156115d5579160050282015b828111156115d45782829060056115c492919061169b565b50916005019190600501906115ac565b5b5090506115e291906116d8565b5090565b5b808211156115ff5760008160009055506001016115e7565b5090565b8280548282559060005260206000209081019282156116445760005260206000209182015b82811115611643578254825591600101919060010190611628565b5b50905061165191906115e6565b5090565b5b80821115611675576000818161166c91906116fc565b50600101611656565b5090565b6040518060a00160405280600590602082028036833780820191505090505090565b82600581019282156116c7579182015b828111156116c65782548255916001019190600101906116ab565b5b5090506116d491906115e6565b5090565b5b808211156116f857600081816116ef919061171d565b506005016116d9565b5090565b508054600082559060005260206000209081019061171a91906115e6565b50565b506000815560010160008155600101600081556001016000815560010160009055565b7f4e487b7100000000000000000000000000000000000000000000000000000000600052604160045260246000fd5b7f4e487b7100000000000000000000000000000000000000000000000000000000600052603260045260246000fd5b6000819050919050565b6117b18161179e565b82525050565b6000819050919050565b6000819050919050565b60006117e66117e16117dc846117b7565b6117c1565b61179e565b9050919050565b6117f6816117cb565b82525050565b600082825260208201905092915050565b7f73746f72616765206973206a757374206465657020636f707900000000000000600082015250565b60006118436019836117fc565b915061184e8261180d565b602082019050919050565b600060608201905061186e60008301856117a8565b61187b60208301846117ed565b818103604083015261188c81611836565b90509392505050565b600080fd5b60008115159050919050565b6118af8161189a565b81146118ba57600080fd5b50565b6000815190506118cc816118a6565b92915050565b6000602082840312156118e8576118e7611895565b5b60006118f6848285016118bd565b91505092915050565b6000819050919050565b600061192461191f61191a846118ff565b6117c1565b61179e565b9050919050565b61193481611909565b82525050565b600060208201905061194f600083018461192b565b92915050565b61195e8161179e565b811461196957600080fd5b50565b60008151905061197b81611955565b92915050565b60006020828403121561199757611996611895565b5b60006119a58482850161196c565b91505092915050565b6119b781611909565b82525050565b7f76312073686f756c642062652061207368616c6c6f7720636f70696564000000600082015250565b60006119f3601d836117fc565b91506119fe826119bd565b602082019050919050565b6000606082019050611a1e60008301856117a8565b611a2b60208301846119ae565b8181036040830152611a3c816119e6565b90509392505050565b7f53686f756c64206265207468652064656661756c740000000000000000000000600082015250565b6000611a7b6015836117fc565b9150611a8682611a45565b602082019050919050565b6000606082019050611aa660008301856117a8565b611ab360208301846117ed565b8181036040830152611ac481611a6e565b90509392505050565b7f76312073686f756c64206265207368616c6c6f77656420636f70696564000000600082015250565b6000611b03601d836117fc565b9150611b0e82611acd565b602082019050919050565b6000606082019050611b2e60008301856117a8565b611b3b60208301846119ae565b8181036040830152611b4c81611af6565b90509392505050565b6000819050919050565b611b6881611b55565b8114611b7357600080fd5b50565b600081519050611b8581611b5f565b92915050565b600060208284031215611ba157611ba0611895565b5b6000611baf84828501611b76565b91505092915050565b611bc181611b55565b82525050565b6000819050919050565b6000611bec611be7611be284611bc7565b6117c1565b611b55565b9050919050565b611bfc81611bd1565b82525050565b7f53686f756c642061646465642074776f2076616c756573000000000000000000600082015250565b6000611c386017836117fc565b9150611c4382611c02565b602082019050919050565b6000606082019050611c636000830185611bb8565b611c706020830184611bf3565b8181036040830152611c8181611c2b565b90509392505050565b6000611ca5611ca0611c9b846118ff565b6117c1565b611b55565b9050919050565b611cb581611c8a565b82525050565b6000602082019050611cd06000830184611cac565b92915050565b7f53686f756c6420616c6c6f7720746f2077726974650000000000000000000000600082015250565b6000611d0c6015836117fc565b9150611d1782611cd6565b602082019050919050565b6000606082019050611d3760008301856117a8565b611d4460208301846119ae565b8181036040830152611d5581611cff565b90509392505050565b6000819050919050565b6000611d83611d7e611d7984611d5e565b6117c1565b611b55565b9050919050565b611d9381611d68565b82525050565b7f73686f756c6420636f7079206d61747269780000000000000000000000000000600082015250565b6000611dcf6012836117fc565b9150611dda82611d99565b602082019050919050565b6000606082019050611dfa6000830185611bb8565b611e076020830184611d8a565b8181036040830152611e1881611dc2565b90509392505050565b6000611e3c611e37611e3284611bc7565b6117c1565b61179e565b9050919050565b611e4c81611e21565b82525050565b7f73686f756c64207368616c6c6f7720636f70792074686520726573756c740000600082015250565b6000611e88601e836117fc565b9150611e9382611e52565b602082019050919050565b6000606082019050611eb360008301856117a8565b611ec06020830184611e43565b8181036040830152611ed181611e7b565b90509392505050565b60008060408385031215611ef157611ef0611895565b5b6000611eff8582860161196c565b9250506020611f108582860161196c565b9150509250929050565b7f76312073686f756c64206265206465657020636f706965640000000000000000600082015250565b6000611f506018836117fc565b9150611f5b82611f1a565b602082019050919050565b6000606082019050611f7b60008301856117a8565b611f8860208301846117ed565b8181036040830152611f9981611f43565b90509392505050565b7f76322073686f756c64206265206465657020636f706965640000000000000000600082015250565b6000611fd86018836117fc565b9150611fe382611fa2565b602082019050919050565b600060608201905061200360008301856117a8565b6120106020830184611e43565b818103604083015261202181611fcb565b90509392505050565b7f6d6174726978312073686f756c6420696e697469616c697a6500000000000000600082015250565b60006120606019836117fc565b915061206b8261202a565b602082019050919050565b600060608201905061208b6000830185611bb8565b6120986020830184611d8a565b81810360408301526120a981612053565b90509392505050565b7f6d6174726978312073686f756c6420736861646f7720636f7079206c656e677460008201527f6800000000000000000000000000000000000000000000000000000000000000602082015250565b600061210e6021836117fc565b9150612119826120b2565b604082019050919050565b60006060820190506121396000830185611bb8565b6121466020830184611bf3565b818103604083015261215781612101565b90509392505050565b6000819050919050565b600061218561218061217b84612160565b6117c1565b61179e565b9050919050565b6121958161216a565b82525050565b7f6d6174726978312073686f756c6420736861646f7720636f70792076616c7565600082015250565b60006121d16020836117fc565b91506121dc8261219b565b602082019050919050565b60006060820190506121fc60008301856117a8565b612209602083018461218c565b818103604083015261221a816121c4565b90509392505050565b7f53686f756c64207368616c6c6f7720636f707900000000000000000000000000600082015250565b60006122596013836117fc565b915061226482612223565b602082019050919050565b600060608201905061228460008301856117a8565b61229160208301846119ae565b81810360408301526122a28161224c565b90509392505050565b7f73746f72616765206d61747269782073686f756c64206861766520646566617560008201527f6c742076616c7565000000000000000000000000000000000000000000000000602082015250565b60006123076028836117fc565b9150612312826122ab565b604082019050919050565b600060608201905061233260008301856117a8565b61233f60208301846117ed565b8181036040830152612350816122fa565b90509392505050565b7f73686f756c6420636f7079207468652076616c75650000000000000000000000600082015250565b600061238f6015836117fc565b915061239a82612359565b602082019050919050565b60006060820190506123ba60008301856117a8565b6123c760208301846119ae565b81810360408301526123d881612382565b90509392505050565b7f73686f756c64206465657020636f707900000000000000000000000000000000600082015250565b60006124176010836117fc565b9150612422826123e1565b602082019050919050565b600060608201905061244260008301856117a8565b61244f60208301846117ed565b81810360408301526124608161240a565b90509392505050565b600061248461247f61247a846117b7565b6117c1565b611b55565b9050919050565b61249481612469565b82525050565b7f646964206e6f7420636f70792076656332000000000000000000000000000000600082015250565b60006124d06011836117fc565b91506124db8261249a565b602082019050919050565b60006060820190506124fb6000830185611bb8565b612508602083018461248b565b8181036040830152612519816124c3565b90509392505050565b7f636f706965642076656332000000000000000000000000000000000000000000600082015250565b6000612558600b836117fc565b915061256382612522565b602082019050919050565b60006060820190506125836000830185611bb8565b6125906020830184611d8a565b81810360408301526125a18161254b565b90509392505050565b7f7368616c6c6f7720656d62656464696e67000000000000000000000000000000600082015250565b60006125e06011836117fc565b91506125eb826125aa565b602082019050919050565b600060608201905061260b60008301856117a8565b61261860208301846119ae565b8181036040830152612629816125d3565b9050939250505056fe608060405234801561001057600080fd5b506107c2806100206000396000f3fe608060405234801561001057600080fd5b50600436106100875760003560e01c80636d9953d11161005b5780636d9953d114610118578063a0a9859714610148578063ab35ec6314610152578063ffc850fd1461018257610087565b80622dff071461008c57806329f5debf146100aa5780634ade209d146100da5780635cac0e80146100f9575b600080fd5b6100946101b2565b6040516100a191906105bb565b60405180910390f35b6100c460048036038101906100bf9190610611565b6101bf565b6040516100d1919061064d565b60405180910390f35b6100e26102a1565b6040516100f0929190610668565b60405180910390f35b6101016103e1565b60405161010f9291906106ac565b60405180910390f35b610132600480360381019061012d9190610611565b6104b7565b60405161013f919061064d565b60405180910390f35b6101506104e4565b005b61016c60048036038101906101679190610701565b61053a565b604051610179919061064d565b60405180910390f35b61019c60048036038101906101979190610701565b610562565b6040516101a9919061064d565b60405180910390f35b6000600580549050905090565b600080600a67ffffffffffffffff8111156101dd576101dc61072e565b5b60405190808252806020026020018201604052801561021657816020015b610203610586565b8152602001906001900390816101fb5790505b5090508060008151811061022d5761022c61075d565b5b6020026020010151816001815181106102495761024861075d565b5b602002602001018190525082816000815181106102695761026861075d565b5b602002602001015160000181815250508060018151811061028d5761028c61075d565b5b602002602001015160000151915050919050565b600080600460009080600181540180825580915050600190039060005260206000209060020201600090919091909150600082015481600001556001820160009054906101000a900460ff168160010160006101000a81548160ff02191690831515021790555050506001600080018190555061031c610586565b600281600001818152505060048190806001815401808255809150506001900390600052602060002090600202016000909190919091506000820151816000015560208201518160010160006101000a81548160ff02191690831515021790555050506003816000018181525050600460008154811061039f5761039e61075d565b5b90600052602060002090600202016000015460046001815481106103c6576103c561075d565b5b90600052602060002090600202016000015492509250509091565b6000806000600a67ffffffffffffffff8111156104015761040061072e565b5b60405190808252806020026020018201604052801561043a57816020015b610427610586565b81526020019060019003908161041f5790505b5090506000816000815181106104535761045261075d565b5b602002602001015190506000826001815181106104735761047261075d565b5b602002602001015190506000826000015190506000826000015190506000818314905060006002600001546000800154149050818198509850505050505050509091565b60006104c1610586565b6104c9610586565b81905083826000018181525050806000015192505050919050565b600560009080600181540180825580915050600190039060005260206000200160009091909190915055600560019080600181540180825580915050600190039060005260206000200160009091909190915055565b6000600582815481106105505761054f61075d565b5b90600052602060002001549050919050565b6005818154811061057257600080fd5b906000526020600020016000915090505481565b6040518060400160405280600081526020016000151581525090565b6000819050919050565b6105b5816105a2565b82525050565b60006020820190506105d060008301846105ac565b92915050565b600080fd5b6000819050919050565b6105ee816105db565b81146105f957600080fd5b50565b60008135905061060b816105e5565b92915050565b600060208284031215610627576106266105d6565b5b6000610635848285016105fc565b91505092915050565b610647816105db565b82525050565b6000602082019050610662600083018461063e565b92915050565b600060408201905061067d600083018561063e565b61068a602083018461063e565b9392505050565b60008115159050919050565b6106a681610691565b82525050565b60006040820190506106c1600083018561069d565b6106ce602083018461069d565b9392505050565b6106de816105a2565b81146106e957600080fd5b50565b6000813590506106fb816106d5565b92915050565b600060208284031215610717576107166105d6565b5b6000610725848285016106ec565b91505092915050565b7f4e487b7100000000000000000000000000000000000000000000000000000000600052604160045260246000fd5b7f4e487b7100000000000000000000000000000000000000000000000000000000600052603260045260246000fdfea2646970667358221220cf2c215040d542f9be1a4cd0e780174aa3c591cbd043267c4bdd96f6ced2217864736f6c63430008120033a264697066735822122019390346eab5505547ba6da1cc87266f289c238b9c5a54c7dad44931230570de64736f6c63430008120033",
			"opcodes": "PUSH1 0x80 PUSH1 0x40 MSTORE CALLVALUE DUP1 ISZERO PUSH2 0x10 JUMPI PUSH1 0x0 DUP1 REVERT JUMPDEST POP PUSH2 0x2E4A DUP1 PUSH2 0x20 PUSH1 0x0 CODECOPY PUSH1 0x0 RETURN INVALID PUSH1 0x80 PUSH1 0x40 MSTORE CALLVALUE DUP1 ISZERO PUSH2 0x10 JUMPI PUSH1 0x0 DUP1 REVERT JUMPDEST POP PUSH1 0x4 CALLDATASIZE LT PUSH2 0xA9 JUMPI PUSH1 0x0 CALLDATALOAD PUSH1 0xE0 SHR DUP1 PUSH4 0x7DEE06CB GT PUSH2 0x71 JUMPI DUP1 PUSH4 0x7DEE06CB EQ PUSH2 0xE0 JUMPI DUP1 PUSH4 0xA02649F1 EQ PUSH2 0xEA JUMPI DUP1 PUSH4 0xB1A37F3F EQ PUSH2 0xF4 JUMPI DUP1 PUSH4 0xCCF6D864 EQ PUSH2 0xFE JUMPI DUP1 PUSH4 0xDDC3012A EQ PUSH2 0x108 JUMPI DUP1 PUSH4 0xF4C419C7 EQ PUSH2 0x112 JUMPI PUSH2 0xA9 JUMP JUMPDEST DUP1 PUSH4 0x183A864C EQ PUSH2 0xAE JUMPI DUP1 PUSH4 0x2283BFFD EQ PUSH2 0xB8 JUMPI DUP1 PUSH4 0x6E876938 EQ PUSH2 0xC2 JUMPI DUP1 PUSH4 0x6EDBE921 EQ PUSH2 0xCC JUMPI DUP1 PUSH4 0x729D4994 EQ PUSH2 0xD6 JUMPI JUMPDEST PUSH1 0x0 DUP1 REVERT JUMPDEST PUSH2 0xB6 PUSH2 0x11C JUMP JUMPDEST STOP JUMPDEST PUSH2 0xC0 PUSH2 0x293 JUMP JUMPDEST STOP JUMPDEST PUSH2 0xCA PUSH2 0x3BF JUMP JUMPDEST STOP JUMPDEST PUSH2 0xD4 PUSH2 0x47C JUMP JUMPDEST STOP JUMPDEST PUSH2 0xDE PUSH2 0x5A8 JUMP JUMPDEST STOP JUMPDEST PUSH2 0xE8 PUSH2 0x81D JUMP JUMPDEST STOP JUMPDEST PUSH2 0xF2 PUSH2 0xA4D JUMP JUMPDEST STOP JUMPDEST PUSH2 0xFC PUSH2 0xBEE JUMP JUMPDEST STOP JUMPDEST PUSH2 0x106 PUSH2 0xEC8 JUMP JUMPDEST STOP JUMPDEST PUSH2 0x110 PUSH2 0xFFA JUMP JUMPDEST STOP JUMPDEST PUSH2 0x11A PUSH2 0x127F JUMP JUMPDEST STOP JUMPDEST PUSH1 0xA PUSH8 0xFFFFFFFFFFFFFFFF DUP2 GT ISZERO PUSH2 0x137 JUMPI PUSH2 0x136 PUSH2 0x1740 JUMP JUMPDEST JUMPDEST PUSH1 0x40 MLOAD SWAP1 DUP1 DUP3 MSTORE DUP1 PUSH1 0x20 MUL PUSH1 0x20 ADD DUP3 ADD PUSH1 0x40 MSTORE DUP1 ISZERO PUSH2 0x165 JUMPI DUP2 PUSH1 0x20 ADD PUSH1 0x20 DUP3 MUL DUP1 CALLDATASIZE DUP4 CALLDATACOPY DUP1 DUP3 ADD SWAP2 POP POP SWAP1 POP JUMPDEST POP PUSH1 0x64 PUSH1 0x0 PUSH1 0x5 DUP2 LT PUSH2 0x17B JUMPI PUSH2 0x17A PUSH2 0x176F JUMP JUMPDEST JUMPDEST ADD SWAP1 DUP1 MLOAD SWAP1 PUSH1 0x20 ADD SWAP1 PUSH2 0x18F SWAP3 SWAP2 SWAP1 PUSH2 0x149D JUMP JUMPDEST POP PUSH1 0x64 PUSH1 0x69 SWAP1 PUSH1 0x5 PUSH2 0x1A2 SWAP3 SWAP2 SWAP1 PUSH2 0x14EA JUMP JUMPDEST POP PUSH1 0x1 PUSH1 0x64 PUSH1 0x0 PUSH1 0x5 DUP2 LT PUSH2 0x1BA JUMPI PUSH2 0x1B9 PUSH2 0x176F JUMP JUMPDEST JUMPDEST ADD PUSH1 0x0 DUP2 SLOAD DUP2 LT PUSH2 0x1CE JUMPI PUSH2 0x1CD PUSH2 0x176F JUMP JUMPDEST JUMPDEST SWAP1 PUSH1 0x0 MSTORE PUSH1 0x20 PUSH1 0x0 KECCAK256 ADD DUP2 SWAP1 SSTORE POP PUSH1 0x0 PUSH1 0x69 PUSH1 0x0 PUSH1 0x5 DUP2 LT PUSH2 0x1F3 JUMPI PUSH2 0x1F2 PUSH2 0x176F JUMP JUMPDEST JUMPDEST ADD PUSH1 0x0 DUP2 SLOAD DUP2 LT PUSH2 0x207 JUMPI PUSH2 0x206 PUSH2 0x176F JUMP JUMPDEST JUMPDEST SWAP1 PUSH1 0x0 MSTORE PUSH1 0x20 PUSH1 0x0 KECCAK256 ADD SLOAD SWAP1 POP PUSH20 0x0 PUSH4 0xF5BAE6B6 DUP3 PUSH1 0x0 PUSH1 0x40 MLOAD DUP4 PUSH4 0xFFFFFFFF AND PUSH1 0xE0 SHL DUP2 MSTORE PUSH1 0x4 ADD PUSH2 0x24E SWAP3 SWAP2 SWAP1 PUSH2 0x1859 JUMP JUMPDEST PUSH1 0x20 PUSH1 0x40 MLOAD DUP1 DUP4 SUB DUP2 DUP7 GAS DELEGATECALL ISZERO DUP1 ISZERO PUSH2 0x26B JUMPI RETURNDATASIZE PUSH1 0x0 DUP1 RETURNDATACOPY RETURNDATASIZE PUSH1 0x0 REVERT JUMPDEST POP POP POP POP PUSH1 0x40 MLOAD RETURNDATASIZE PUSH1 0x1F NOT PUSH1 0x1F DUP3 ADD AND DUP3 ADD DUP1 PUSH1 0x40 MSTORE POP DUP2 ADD SWAP1 PUSH2 0x28F SWAP2 SWAP1 PUSH2 0x18D2 JUMP JUMPDEST POP POP JUMP JUMPDEST PUSH1 0x0 PUSH1 0x40 MLOAD PUSH2 0x2A1 SWAP1 PUSH2 0x1534 JUMP JUMPDEST PUSH1 0x40 MLOAD DUP1 SWAP2 SUB SWAP1 PUSH1 0x0 CREATE DUP1 ISZERO DUP1 ISZERO PUSH2 0x2BD JUMPI RETURNDATASIZE PUSH1 0x0 DUP1 RETURNDATACOPY RETURNDATASIZE PUSH1 0x0 REVERT JUMPDEST POP SWAP1 POP PUSH1 0x0 DUP2 PUSH20 0xFFFFFFFFFFFFFFFFFFFFFFFFFFFFFFFFFFFFFFFF AND PUSH4 0x29F5DEBF PUSH1 0x1 PUSH1 0x40 MLOAD DUP3 PUSH4 0xFFFFFFFF AND PUSH1 0xE0 SHL DUP2 MSTORE PUSH1 0x4 ADD PUSH2 0x2FC SWAP2 SWAP1 PUSH2 0x193A JUMP JUMPDEST PUSH1 0x20 PUSH1 0x40 MLOAD DUP1 DUP4 SUB DUP2 DUP7 GAS STATICCALL ISZERO DUP1 ISZERO PUSH2 0x319 JUMPI RETURNDATASIZE PUSH1 0x0 DUP1 RETURNDATACOPY RETURNDATASIZE PUSH1 0x0 REVERT JUMPDEST POP POP POP POP PUSH1 0x40 MLOAD RETURNDATASIZE PUSH1 0x1F NOT PUSH1 0x1F DUP3 ADD AND DUP3 ADD DUP1 PUSH1 0x40 MSTORE POP DUP2 ADD SWAP1 PUSH2 0x33D SWAP2 SWAP1 PUSH2 0x1981 JUMP JUMPDEST SWAP1 POP PUSH20 0x0 PUSH4 0xF5BAE6B6 DUP3 PUSH1 0x1 PUSH1 0x40 MLOAD DUP4 PUSH4 0xFFFFFFFF AND PUSH1 0xE0 SHL DUP2 MSTORE PUSH1 0x4 ADD PUSH2 0x379 SWAP3 SWAP2 SWAP1 PUSH2 0x1A09 JUMP JUMPDEST PUSH1 0x20 PUSH1 0x40 MLOAD DUP1 DUP4 SUB DUP2 DUP7 GAS DELEGATECALL ISZERO DUP1 ISZERO PUSH2 0x396 JUMPI RETURNDATASIZE PUSH1 0x0 DUP1 RETURNDATACOPY RETURNDATASIZE PUSH1 0x0 REVERT JUMPDEST POP POP POP POP PUSH1 0x40 MLOAD RETURNDATASIZE PUSH1 0x1F NOT PUSH1 0x1F DUP3 ADD AND DUP3 ADD DUP1 PUSH1 0x40 MSTORE POP DUP2 ADD SWAP1 PUSH2 0x3BA SWAP2 SWAP1 PUSH2 0x18D2 JUMP JUMPDEST POP POP POP JUMP JUMPDEST PUSH2 0x3C7 PUSH2 0x1541 JUMP JUMPDEST PUSH1 0x0 DUP2 PUSH1 0x0 PUSH1 0xA DUP2 LT PUSH2 0x3DD JUMPI PUSH2 0x3DC PUSH2 0x176F JUMP JUMPDEST JUMPDEST PUSH1 0x20 MUL ADD MLOAD PUSH1 0x0 PUSH1 0x5 DUP2 LT PUSH2 0x3F5 JUMPI PUSH2 0x3F4 PUSH2 0x176F JUMP JUMPDEST JUMPDEST PUSH1 0x20 MUL ADD MLOAD SWAP1 POP PUSH20 0x0 PUSH4 0xF5BAE6B6 DUP3 PUSH1 0x0 PUSH1 0x40 MLOAD DUP4 PUSH4 0xFFFFFFFF AND PUSH1 0xE0 SHL DUP2 MSTORE PUSH1 0x4 ADD PUSH2 0x436 SWAP3 SWAP2 SWAP1 PUSH2 0x1A91 JUMP JUMPDEST PUSH1 0x20 PUSH1 0x40 MLOAD DUP1 DUP4 SUB DUP2 DUP7 GAS DELEGATECALL ISZERO DUP1 ISZERO PUSH2 0x453 JUMPI RETURNDATASIZE PUSH1 0x0 DUP1 RETURNDATACOPY RETURNDATASIZE PUSH1 0x0 REVERT JUMPDEST POP POP POP POP PUSH1 0x40 MLOAD RETURNDATASIZE PUSH1 0x1F NOT PUSH1 0x1F DUP3 ADD AND DUP3 ADD DUP1 PUSH1 0x40 MSTORE POP DUP2 ADD SWAP1 PUSH2 0x477 SWAP2 SWAP1 PUSH2 0x18D2 JUMP JUMPDEST POP POP POP JUMP JUMPDEST PUSH1 0x0 PUSH1 0x40 MLOAD PUSH2 0x48A SWAP1 PUSH2 0x1534 JUMP JUMPDEST PUSH1 0x40 MLOAD DUP1 SWAP2 SUB SWAP1 PUSH1 0x0 CREATE DUP1 ISZERO DUP1 ISZERO PUSH2 0x4A6 JUMPI RETURNDATASIZE PUSH1 0x0 DUP1 RETURNDATACOPY RETURNDATASIZE PUSH1 0x0 REVERT JUMPDEST POP SWAP1 POP PUSH1 0x0 DUP2 PUSH20 0xFFFFFFFFFFFFFFFFFFFFFFFFFFFFFFFFFFFFFFFF AND PUSH4 0x6D9953D1 PUSH1 0x1 PUSH1 0x40 MLOAD DUP3 PUSH4 0xFFFFFFFF AND PUSH1 0xE0 SHL DUP2 MSTORE PUSH1 0x4 ADD PUSH2 0x4E5 SWAP2 SWAP1 PUSH2 0x193A JUMP JUMPDEST PUSH1 0x20 PUSH1 0x40 MLOAD DUP1 DUP4 SUB DUP2 DUP7 GAS STATICCALL ISZERO DUP1 ISZERO PUSH2 0x502 JUMPI RETURNDATASIZE PUSH1 0x0 DUP1 RETURNDATACOPY RETURNDATASIZE PUSH1 0x0 REVERT JUMPDEST POP POP POP POP PUSH1 0x40 MLOAD RETURNDATASIZE PUSH1 0x1F NOT PUSH1 0x1F DUP3 ADD AND DUP3 ADD DUP1 PUSH1 0x40 MSTORE POP DUP2 ADD SWAP1 PUSH2 0x526 SWAP2 SWAP1 PUSH2 0x1981 JUMP JUMPDEST SWAP1 POP PUSH20 0x0 PUSH4 0xF5BAE6B6 DUP3 PUSH1 0x1 PUSH1 0x40 MLOAD DUP4 PUSH4 0xFFFFFFFF AND PUSH1 0xE0 SHL DUP2 MSTORE PUSH1 0x4 ADD PUSH2 0x562 SWAP3 SWAP2 SWAP1 PUSH2 0x1B19 JUMP JUMPDEST PUSH1 0x20 PUSH1 0x40 MLOAD DUP1 DUP4 SUB DUP2 DUP7 GAS DELEGATECALL ISZERO DUP1 ISZERO PUSH2 0x57F JUMPI RETURNDATASIZE PUSH1 0x0 DUP1 RETURNDATACOPY RETURNDATASIZE PUSH1 0x0 REVERT JUMPDEST POP POP POP POP PUSH1 0x40 MLOAD RETURNDATASIZE PUSH1 0x1F NOT PUSH1 0x1F DUP3 ADD AND DUP3 ADD DUP1 PUSH1 0x40 MSTORE POP DUP2 ADD SWAP1 PUSH2 0x5A3 SWAP2 SWAP1 PUSH2 0x18D2 JUMP JUMPDEST POP POP POP JUMP JUMPDEST PUSH1 0x0 PUSH1 0x40 MLOAD PUSH2 0x5B6 SWAP1 PUSH2 0x1534 JUMP JUMPDEST PUSH1 0x40 MLOAD DUP1 SWAP2 SUB SWAP1 PUSH1 0x0 CREATE DUP1 ISZERO DUP1 ISZERO PUSH2 0x5D2 JUMPI RETURNDATASIZE PUSH1 0x0 DUP1 RETURNDATACOPY RETURNDATASIZE PUSH1 0x0 REVERT JUMPDEST POP SWAP1 POP DUP1 PUSH20 0xFFFFFFFFFFFFFFFFFFFFFFFFFFFFFFFFFFFFFFFF AND PUSH4 0xA0A98597 PUSH1 0x40 MLOAD DUP2 PUSH4 0xFFFFFFFF AND PUSH1 0xE0 SHL DUP2 MSTORE PUSH1 0x4 ADD PUSH1 0x0 PUSH1 0x40 MLOAD DUP1 DUP4 SUB DUP2 PUSH1 0x0 DUP8 DUP1 EXTCODESIZE ISZERO DUP1 ISZERO PUSH2 0x61D JUMPI PUSH1 0x0 DUP1 REVERT JUMPDEST POP GAS CALL ISZERO DUP1 ISZERO PUSH2 0x631 JUMPI RETURNDATASIZE PUSH1 0x0 DUP1 RETURNDATACOPY RETURNDATASIZE PUSH1 0x0 REVERT JUMPDEST POP POP POP POP PUSH20 0x0 PUSH4 0xABCD7960 DUP3 PUSH20 0xFFFFFFFFFFFFFFFFFFFFFFFFFFFFFFFFFFFFFFFF AND PUSH3 0x2DFF07 PUSH1 0x40 MLOAD DUP2 PUSH4 0xFFFFFFFF AND PUSH1 0xE0 SHL DUP2 MSTORE PUSH1 0x4 ADD PUSH1 0x20 PUSH1 0x40 MLOAD DUP1 DUP4 SUB DUP2 DUP7 GAS STATICCALL ISZERO DUP1 ISZERO PUSH2 0x699 JUMPI RETURNDATASIZE PUSH1 0x0 DUP1 RETURNDATACOPY RETURNDATASIZE PUSH1 0x0 REVERT JUMPDEST POP POP POP POP PUSH1 0x40 MLOAD RETURNDATASIZE PUSH1 0x1F NOT PUSH1 0x1F DUP3 ADD AND DUP3 ADD DUP1 PUSH1 0x40 MSTORE POP DUP2 ADD SWAP1 PUSH2 0x6BD SWAP2 SWAP1 PUSH2 0x1B8B JUMP JUMPDEST PUSH1 0x2 PUSH1 0x40 MLOAD DUP4 PUSH4 0xFFFFFFFF AND PUSH1 0xE0 SHL DUP2 MSTORE PUSH1 0x4 ADD PUSH2 0x6DC SWAP3 SWAP2 SWAP1 PUSH2 0x1C4E JUMP JUMPDEST PUSH1 0x20 PUSH1 0x40 MLOAD DUP1 DUP4 SUB DUP2 DUP7 GAS DELEGATECALL ISZERO DUP1 ISZERO PUSH2 0x6F9 JUMPI RETURNDATASIZE PUSH1 0x0 DUP1 RETURNDATACOPY RETURNDATASIZE PUSH1 0x0 REVERT JUMPDEST POP POP POP POP PUSH1 0x40 MLOAD RETURNDATASIZE PUSH1 0x1F NOT PUSH1 0x1F DUP3 ADD AND DUP3 ADD DUP1 PUSH1 0x40 MSTORE POP DUP2 ADD SWAP1 PUSH2 0x71D SWAP2 SWAP1 PUSH2 0x18D2 JUMP JUMPDEST POP PUSH1 0x0 DUP2 PUSH20 0xFFFFFFFFFFFFFFFFFFFFFFFFFFFFFFFFFFFFFFFF AND PUSH4 0xAB35EC63 PUSH1 0x1 PUSH1 0x40 MLOAD DUP3 PUSH4 0xFFFFFFFF AND PUSH1 0xE0 SHL DUP2 MSTORE PUSH1 0x4 ADD PUSH2 0x75A SWAP2 SWAP1 PUSH2 0x1CBB JUMP JUMPDEST PUSH1 0x20 PUSH1 0x40 MLOAD DUP1 DUP4 SUB DUP2 DUP7 GAS STATICCALL ISZERO DUP1 ISZERO PUSH2 0x777 JUMPI RETURNDATASIZE PUSH1 0x0 DUP1 RETURNDATACOPY RETURNDATASIZE PUSH1 0x0 REVERT JUMPDEST POP POP POP POP PUSH1 0x40 MLOAD RETURNDATASIZE PUSH1 0x1F NOT PUSH1 0x1F DUP3 ADD AND DUP3 ADD DUP1 PUSH1 0x40 MSTORE POP DUP2 ADD SWAP1 PUSH2 0x79B SWAP2 SWAP1 PUSH2 0x1981 JUMP JUMPDEST SWAP1 POP PUSH20 0x0 PUSH4 0xF5BAE6B6 DUP3 PUSH1 0x1 PUSH1 0x40 MLOAD DUP4 PUSH4 0xFFFFFFFF AND PUSH1 0xE0 SHL DUP2 MSTORE PUSH1 0x4 ADD PUSH2 0x7D7 SWAP3 SWAP2 SWAP1 PUSH2 0x1D22 JUMP JUMPDEST PUSH1 0x20 PUSH1 0x40 MLOAD DUP1 DUP4 SUB DUP2 DUP7 GAS DELEGATECALL ISZERO DUP1 ISZERO PUSH2 0x7F4 JUMPI RETURNDATASIZE PUSH1 0x0 DUP1 RETURNDATACOPY RETURNDATASIZE PUSH1 0x0 REVERT JUMPDEST POP POP POP POP PUSH1 0x40 MLOAD RETURNDATASIZE PUSH1 0x1F NOT PUSH1 0x1F DUP3 ADD AND DUP3 ADD DUP1 PUSH1 0x40 MSTORE POP DUP2 ADD SWAP1 PUSH2 0x818 SWAP2 SWAP1 PUSH2 0x18D2 JUMP JUMPDEST POP POP POP JUMP JUMPDEST PUSH2 0x825 PUSH2 0x156F JUMP JUMPDEST PUSH1 0xA PUSH8 0xFFFFFFFFFFFFFFFF DUP2 GT ISZERO PUSH2 0x840 JUMPI PUSH2 0x83F PUSH2 0x1740 JUMP JUMPDEST JUMPDEST PUSH1 0x40 MLOAD SWAP1 DUP1 DUP3 MSTORE DUP1 PUSH1 0x20 MUL PUSH1 0x20 ADD DUP3 ADD PUSH1 0x40 MSTORE DUP1 ISZERO PUSH2 0x86E JUMPI DUP2 PUSH1 0x20 ADD PUSH1 0x20 DUP3 MUL DUP1 CALLDATASIZE DUP4 CALLDATACOPY DUP1 DUP3 ADD SWAP2 POP POP SWAP1 POP JUMPDEST POP DUP2 PUSH1 0x0 PUSH1 0x5 DUP2 LT PUSH2 0x883 JUMPI PUSH2 0x882 PUSH2 0x176F JUMP JUMPDEST JUMPDEST PUSH1 0x20 MUL ADD DUP2 SWAP1 MSTORE POP DUP1 PUSH1 0x0 PUSH1 0x5 DUP2 LT PUSH2 0x89F JUMPI PUSH2 0x89E PUSH2 0x176F JUMP JUMPDEST JUMPDEST PUSH1 0x20 MUL ADD MLOAD DUP2 PUSH1 0x1 PUSH1 0x5 DUP2 LT PUSH2 0x8B8 JUMPI PUSH2 0x8B7 PUSH2 0x176F JUMP JUMPDEST JUMPDEST PUSH1 0x20 MUL ADD DUP2 SWAP1 MSTORE POP PUSH1 0x0 DUP2 PUSH1 0x1 PUSH1 0x5 DUP2 LT PUSH2 0x8D6 JUMPI PUSH2 0x8D5 PUSH2 0x176F JUMP JUMPDEST JUMPDEST PUSH1 0x20 MUL ADD MLOAD MLOAD SWAP1 POP PUSH20 0x0 PUSH4 0xABCD7960 DUP3 PUSH1 0xA PUSH1 0x40 MLOAD DUP4 PUSH4 0xFFFFFFFF AND PUSH1 0xE0 SHL DUP2 MSTORE PUSH1 0x4 ADD PUSH2 0x918 SWAP3 SWAP2 SWAP1 PUSH2 0x1DE5 JUMP JUMPDEST PUSH1 0x20 PUSH1 0x40 MLOAD DUP1 DUP4 SUB DUP2 DUP7 GAS DELEGATECALL ISZERO DUP1 ISZERO PUSH2 0x935 JUMPI RETURNDATASIZE PUSH1 0x0 DUP1 RETURNDATACOPY RETURNDATASIZE PUSH1 0x0 REVERT JUMPDEST POP POP POP POP PUSH1 0x40 MLOAD RETURNDATASIZE PUSH1 0x1F NOT PUSH1 0x1F DUP3 ADD AND DUP3 ADD DUP1 PUSH1 0x40 MSTORE POP DUP2 ADD SWAP1 PUSH2 0x959 SWAP2 SWAP1 PUSH2 0x18D2 JUMP JUMPDEST POP PUSH1 0x2 DUP3 PUSH1 0x0 PUSH1 0x5 DUP2 LT PUSH2 0x970 JUMPI PUSH2 0x96F PUSH2 0x176F JUMP JUMPDEST JUMPDEST PUSH1 0x20 MUL ADD MLOAD PUSH1 0x0 DUP2 MLOAD DUP2 LT PUSH2 0x988 JUMPI PUSH2 0x987 PUSH2 0x176F JUMP JUMPDEST JUMPDEST PUSH1 0x20 MUL PUSH1 0x20 ADD ADD DUP2 DUP2 MSTORE POP POP PUSH1 0x0 DUP3 PUSH1 0x1 PUSH1 0x5 DUP2 LT PUSH2 0x9AA JUMPI PUSH2 0x9A9 PUSH2 0x176F JUMP JUMPDEST JUMPDEST PUSH1 0x20 MUL ADD MLOAD PUSH1 0x0 DUP2 MLOAD DUP2 LT PUSH2 0x9C2 JUMPI PUSH2 0x9C1 PUSH2 0x176F JUMP JUMPDEST JUMPDEST PUSH1 0x20 MUL PUSH1 0x20 ADD ADD MLOAD SWAP1 POP PUSH20 0x0 PUSH4 0xF5BAE6B6 DUP3 PUSH1 0x2 PUSH1 0x40 MLOAD DUP4 PUSH4 0xFFFFFFFF AND PUSH1 0xE0 SHL DUP2 MSTORE PUSH1 0x4 ADD PUSH2 0xA06 SWAP3 SWAP2 SWAP1 PUSH2 0x1E9E JUMP JUMPDEST PUSH1 0x20 PUSH1 0x40 MLOAD DUP1 DUP4 SUB DUP2 DUP7 GAS DELEGATECALL ISZERO DUP1 ISZERO PUSH2 0xA23 JUMPI RETURNDATASIZE PUSH1 0x0 DUP1 RETURNDATACOPY RETURNDATASIZE PUSH1 0x0 REVERT JUMPDEST POP POP POP POP PUSH1 0x40 MLOAD RETURNDATASIZE PUSH1 0x1F NOT PUSH1 0x1F DUP3 ADD AND DUP3 ADD DUP1 PUSH1 0x40 MSTORE POP DUP2 ADD SWAP1 PUSH2 0xA47 SWAP2 SWAP1 PUSH2 0x18D2 JUMP JUMPDEST POP POP POP POP JUMP JUMPDEST PUSH1 0x0 PUSH1 0x40 MLOAD PUSH2 0xA5B SWAP1 PUSH2 0x1534 JUMP JUMPDEST PUSH1 0x40 MLOAD DUP1 SWAP2 SUB SWAP1 PUSH1 0x0 CREATE DUP1 ISZERO DUP1 ISZERO PUSH2 0xA77 JUMPI RETURNDATASIZE PUSH1 0x0 DUP1 RETURNDATACOPY RETURNDATASIZE PUSH1 0x0 REVERT JUMPDEST POP SWAP1 POP PUSH1 0x0 DUP1 DUP3 PUSH20 0xFFFFFFFFFFFFFFFFFFFFFFFFFFFFFFFFFFFFFFFF AND PUSH4 0x4ADE209D PUSH1 0x40 MLOAD DUP2 PUSH4 0xFFFFFFFF AND PUSH1 0xE0 SHL DUP2 MSTORE PUSH1 0x4 ADD PUSH1 0x40 DUP1 MLOAD DUP1 DUP4 SUB DUP2 PUSH1 0x0 DUP8 GAS CALL ISZERO DUP1 ISZERO PUSH2 0xAC9 JUMPI RETURNDATASIZE PUSH1 0x0 DUP1 RETURNDATACOPY RETURNDATASIZE PUSH1 0x0 REVERT JUMPDEST POP POP POP POP PUSH1 0x40 MLOAD RETURNDATASIZE PUSH1 0x1F NOT PUSH1 0x1F DUP3 ADD AND DUP3 ADD DUP1 PUSH1 0x40 MSTORE POP DUP2 ADD SWAP1 PUSH2 0xAED SWAP2 SWAP1 PUSH2 0x1EDA JUMP JUMPDEST SWAP2 POP SWAP2 POP PUSH20 0x0 PUSH4 0xF5BAE6B6 DUP4 PUSH1 0x0 PUSH1 0x40 MLOAD DUP4 PUSH4 0xFFFFFFFF AND PUSH1 0xE0 SHL DUP2 MSTORE PUSH1 0x4 ADD PUSH2 0xB2B SWAP3 SWAP2 SWAP1 PUSH2 0x1F66 JUMP JUMPDEST PUSH1 0x20 PUSH1 0x40 MLOAD DUP1 DUP4 SUB DUP2 DUP7 GAS DELEGATECALL ISZERO DUP1 ISZERO PUSH2 0xB48 JUMPI RETURNDATASIZE PUSH1 0x0 DUP1 RETURNDATACOPY RETURNDATASIZE PUSH1 0x0 REVERT JUMPDEST POP POP POP POP PUSH1 0x40 MLOAD RETURNDATASIZE PUSH1 0x1F NOT PUSH1 0x1F DUP3 ADD AND DUP3 ADD DUP1 PUSH1 0x40 MSTORE POP DUP2 ADD SWAP1 PUSH2 0xB6C SWAP2 SWAP1 PUSH2 0x18D2 JUMP JUMPDEST POP PUSH20 0x0 PUSH4 0xF5BAE6B6 DUP3 PUSH1 0x2 PUSH1 0x40 MLOAD DUP4 PUSH4 0xFFFFFFFF AND PUSH1 0xE0 SHL DUP2 MSTORE PUSH1 0x4 ADD PUSH2 0xBA7 SWAP3 SWAP2 SWAP1 PUSH2 0x1FEE JUMP JUMPDEST PUSH1 0x20 PUSH1 0x40 MLOAD DUP1 DUP4 SUB DUP2 DUP7 GAS DELEGATECALL ISZERO DUP1 ISZERO PUSH2 0xBC4 JUMPI RETURNDATASIZE PUSH1 0x0 DUP1 RETURNDATACOPY RETURNDATASIZE PUSH1 0x0 REVERT JUMPDEST POP POP POP POP PUSH1 0x40 MLOAD RETURNDATASIZE PUSH1 0x1F NOT PUSH1 0x1F DUP3 ADD AND DUP3 ADD DUP1 PUSH1 0x40 MSTORE POP DUP2 ADD SWAP1 PUSH2 0xBE8 SWAP2 SWAP1 PUSH2 0x18D2 JUMP JUMPDEST POP POP POP POP JUMP JUMPDEST PUSH1 0x60 DUP1 PUSH1 0xA PUSH8 0xFFFFFFFFFFFFFFFF DUP2 GT ISZERO PUSH2 0xC0C JUMPI PUSH2 0xC0B PUSH2 0x1740 JUMP JUMPDEST JUMPDEST PUSH1 0x40 MLOAD SWAP1 DUP1 DUP3 MSTORE DUP1 PUSH1 0x20 MUL PUSH1 0x20 ADD DUP3 ADD PUSH1 0x40 MSTORE DUP1 ISZERO PUSH2 0xC3F JUMPI DUP2 PUSH1 0x20 ADD JUMPDEST PUSH1 0x60 DUP2 MSTORE PUSH1 0x20 ADD SWAP1 PUSH1 0x1 SWAP1 SUB SWAP1 DUP2 PUSH2 0xC2A JUMPI SWAP1 POP JUMPDEST POP SWAP2 POP DUP2 SWAP1 POP PUSH1 0x0 DUP3 MLOAD SWAP1 POP PUSH20 0x0 PUSH4 0xABCD7960 DUP3 PUSH1 0xA PUSH1 0x40 MLOAD DUP4 PUSH4 0xFFFFFFFF AND PUSH1 0xE0 SHL DUP2 MSTORE PUSH1 0x4 ADD PUSH2 0xC85 SWAP3 SWAP2 SWAP1 PUSH2 0x2076 JUMP JUMPDEST PUSH1 0x20 PUSH1 0x40 MLOAD DUP1 DUP4 SUB DUP2 DUP7 GAS DELEGATECALL ISZERO DUP1 ISZERO PUSH2 0xCA2 JUMPI RETURNDATASIZE PUSH1 0x0 DUP1 RETURNDATACOPY RETURNDATASIZE PUSH1 0x0 REVERT JUMPDEST POP POP POP POP PUSH1 0x40 MLOAD RETURNDATASIZE PUSH1 0x1F NOT PUSH1 0x1F DUP3 ADD AND DUP3 ADD DUP1 PUSH1 0x40 MSTORE POP DUP2 ADD SWAP1 PUSH2 0xCC6 SWAP2 SWAP1 PUSH2 0x18D2 JUMP JUMPDEST POP PUSH1 0x2 PUSH8 0xFFFFFFFFFFFFFFFF DUP2 GT ISZERO PUSH2 0xCE2 JUMPI PUSH2 0xCE1 PUSH2 0x1740 JUMP JUMPDEST JUMPDEST PUSH1 0x40 MLOAD SWAP1 DUP1 DUP3 MSTORE DUP1 PUSH1 0x20 MUL PUSH1 0x20 ADD DUP3 ADD PUSH1 0x40 MSTORE DUP1 ISZERO PUSH2 0xD10 JUMPI DUP2 PUSH1 0x20 ADD PUSH1 0x20 DUP3 MUL DUP1 CALLDATASIZE DUP4 CALLDATACOPY DUP1 DUP3 ADD SWAP2 POP POP SWAP1 POP JUMPDEST POP DUP3 PUSH1 0x0 DUP2 MLOAD DUP2 LT PUSH2 0xD25 JUMPI PUSH2 0xD24 PUSH2 0x176F JUMP JUMPDEST JUMPDEST PUSH1 0x20 MUL PUSH1 0x20 ADD ADD DUP2 SWAP1 MSTORE POP PUSH1 0x3 DUP3 PUSH1 0x0 DUP2 MLOAD DUP2 LT PUSH2 0xD46 JUMPI PUSH2 0xD45 PUSH2 0x176F JUMP JUMPDEST JUMPDEST PUSH1 0x20 MUL PUSH1 0x20 ADD ADD MLOAD PUSH1 0x1 DUP2 MLOAD DUP2 LT PUSH2 0xD61 JUMPI PUSH2 0xD60 PUSH2 0x176F JUMP JUMPDEST JUMPDEST PUSH1 0x20 MUL PUSH1 0x20 ADD ADD DUP2 DUP2 MSTORE POP POP PUSH1 0x0 DUP4 PUSH1 0x0 DUP2 MLOAD DUP2 LT PUSH2 0xD83 JUMPI PUSH2 0xD82 PUSH2 0x176F JUMP JUMPDEST JUMPDEST PUSH1 0x20 MUL PUSH1 0x20 ADD ADD MLOAD MLOAD SWAP1 POP PUSH20 0x0 PUSH4 0xABCD7960 DUP3 PUSH1 0x2 PUSH1 0x40 MLOAD DUP4 PUSH4 0xFFFFFFFF AND PUSH1 0xE0 SHL DUP2 MSTORE PUSH1 0x4 ADD PUSH2 0xDC8 SWAP3 SWAP2 SWAP1 PUSH2 0x2124 JUMP JUMPDEST PUSH1 0x20 PUSH1 0x40 MLOAD DUP1 DUP4 SUB DUP2 DUP7 GAS DELEGATECALL ISZERO DUP1 ISZERO PUSH2 0xDE5 JUMPI RETURNDATASIZE PUSH1 0x0 DUP1 RETURNDATACOPY RETURNDATASIZE PUSH1 0x0 REVERT JUMPDEST POP POP POP POP PUSH1 0x40 MLOAD RETURNDATASIZE PUSH1 0x1F NOT PUSH1 0x1F DUP3 ADD AND DUP3 ADD DUP1 PUSH1 0x40 MSTORE POP DUP2 ADD SWAP1 PUSH2 0xE09 SWAP2 SWAP1 PUSH2 0x18D2 JUMP JUMPDEST POP PUSH1 0x0 DUP5 PUSH1 0x0 DUP2 MLOAD DUP2 LT PUSH2 0xE20 JUMPI PUSH2 0xE1F PUSH2 0x176F JUMP JUMPDEST JUMPDEST PUSH1 0x20 MUL PUSH1 0x20 ADD ADD MLOAD PUSH1 0x1 DUP2 MLOAD DUP2 LT PUSH2 0xE3B JUMPI PUSH2 0xE3A PUSH2 0x176F JUMP JUMPDEST JUMPDEST PUSH1 0x20 MUL PUSH1 0x20 ADD ADD MLOAD SWAP1 POP PUSH20 0x0 PUSH4 0xF5BAE6B6 DUP3 PUSH1 0x3 PUSH1 0x40 MLOAD DUP4 PUSH4 0xFFFFFFFF AND PUSH1 0xE0 SHL DUP2 MSTORE PUSH1 0x4 ADD PUSH2 0xE7F SWAP3 SWAP2 SWAP1 PUSH2 0x21E7 JUMP JUMPDEST PUSH1 0x20 PUSH1 0x40 MLOAD DUP1 DUP4 SUB DUP2 DUP7 GAS DELEGATECALL ISZERO DUP1 ISZERO PUSH2 0xE9C JUMPI RETURNDATASIZE PUSH1 0x0 DUP1 RETURNDATACOPY RETURNDATASIZE PUSH1 0x0 REVERT JUMPDEST POP POP POP POP PUSH1 0x40 MLOAD RETURNDATASIZE PUSH1 0x1F NOT PUSH1 0x1F DUP3 ADD AND DUP3 ADD DUP1 PUSH1 0x40 MSTORE POP DUP2 ADD SWAP1 PUSH2 0xEC0 SWAP2 SWAP1 PUSH2 0x18D2 JUMP JUMPDEST POP POP POP POP POP POP JUMP JUMPDEST PUSH2 0xED0 PUSH2 0x1541 JUMP JUMPDEST PUSH2 0xED8 PUSH2 0x1541 JUMP JUMPDEST PUSH1 0x1 DUP3 PUSH1 0x0 PUSH1 0xA DUP2 LT PUSH2 0xEEE JUMPI PUSH2 0xEED PUSH2 0x176F JUMP JUMPDEST JUMPDEST PUSH1 0x20 MUL ADD MLOAD PUSH1 0x0 PUSH1 0x5 DUP2 LT PUSH2 0xF06 JUMPI PUSH2 0xF05 PUSH2 0x176F JUMP JUMPDEST JUMPDEST PUSH1 0x20 MUL ADD DUP2 DUP2 MSTORE POP POP DUP2 PUSH1 0x0 PUSH1 0xA DUP2 LT PUSH2 0xF23 JUMPI PUSH2 0xF22 PUSH2 0x176F JUMP JUMPDEST JUMPDEST PUSH1 0x20 MUL ADD MLOAD DUP2 PUSH1 0x0 PUSH1 0xA DUP2 LT PUSH2 0xF3C JUMPI PUSH2 0xF3B PUSH2 0x176F JUMP JUMPDEST JUMPDEST PUSH1 0x20 MUL ADD DUP2 SWAP1 MSTORE POP PUSH1 0x0 DUP2 PUSH1 0x0 PUSH1 0xA DUP2 LT PUSH2 0xF5A JUMPI PUSH2 0xF59 PUSH2 0x176F JUMP JUMPDEST JUMPDEST PUSH1 0x20 MUL ADD MLOAD PUSH1 0x0 PUSH1 0x5 DUP2 LT PUSH2 0xF72 JUMPI PUSH2 0xF71 PUSH2 0x176F JUMP JUMPDEST JUMPDEST PUSH1 0x20 MUL ADD MLOAD SWAP1 POP PUSH20 0x0 PUSH4 0xF5BAE6B6 DUP3 PUSH1 0x1 PUSH1 0x40 MLOAD DUP4 PUSH4 0xFFFFFFFF AND PUSH1 0xE0 SHL DUP2 MSTORE PUSH1 0x4 ADD PUSH2 0xFB3 SWAP3 SWAP2 SWAP1 PUSH2 0x226F JUMP JUMPDEST PUSH1 0x20 PUSH1 0x40 MLOAD DUP1 DUP4 SUB DUP2 DUP7 GAS DELEGATECALL ISZERO DUP1 ISZERO PUSH2 0xFD0 JUMPI RETURNDATASIZE PUSH1 0x0 DUP1 RETURNDATACOPY RETURNDATASIZE PUSH1 0x0 REVERT JUMPDEST POP POP POP POP PUSH1 0x40 MLOAD RETURNDATASIZE PUSH1 0x1F NOT PUSH1 0x1F DUP3 ADD AND DUP3 ADD DUP1 PUSH1 0x40 MSTORE POP DUP2 ADD SWAP1 PUSH2 0xFF4 SWAP2 SWAP1 PUSH2 0x18D2 JUMP JUMPDEST POP POP POP POP JUMP JUMPDEST PUSH1 0x0 DUP1 PUSH1 0x0 PUSH1 0xA DUP2 LT PUSH2 0x1010 JUMPI PUSH2 0x100F PUSH2 0x176F JUMP JUMPDEST JUMPDEST PUSH1 0x5 MUL ADD PUSH1 0x0 PUSH1 0x5 DUP2 LT PUSH2 0x1027 JUMPI PUSH2 0x1026 PUSH2 0x176F JUMP JUMPDEST JUMPDEST ADD SLOAD SWAP1 POP PUSH20 0x0 PUSH4 0xF5BAE6B6 DUP3 PUSH1 0x0 PUSH1 0x40 MLOAD DUP4 PUSH4 0xFFFFFFFF AND PUSH1 0xE0 SHL DUP2 MSTORE PUSH1 0x4 ADD PUSH2 0x1065 SWAP3 SWAP2 SWAP1 PUSH2 0x231D JUMP JUMPDEST PUSH1 0x20 PUSH1 0x40 MLOAD DUP1 DUP4 SUB DUP2 DUP7 GAS DELEGATECALL ISZERO DUP1 ISZERO PUSH2 0x1082 JUMPI RETURNDATASIZE PUSH1 0x0 DUP1 RETURNDATACOPY RETURNDATASIZE PUSH1 0x0 REVERT JUMPDEST POP POP POP POP PUSH1 0x40 MLOAD RETURNDATASIZE PUSH1 0x1F NOT PUSH1 0x1F DUP3 ADD AND DUP3 ADD DUP1 PUSH1 0x40 MSTORE POP DUP2 ADD SWAP1 PUSH2 0x10A6 SWAP2 SWAP1 PUSH2 0x18D2 JUMP JUMPDEST POP PUSH1 0x1 PUSH1 0x0 DUP1 PUSH1 0xA DUP2 LT PUSH2 0x10BD JUMPI PUSH2 0x10BC PUSH2 0x176F JUMP JUMPDEST JUMPDEST PUSH1 0x5 MUL ADD PUSH1 0x0 PUSH1 0x5 DUP2 LT PUSH2 0x10D4 JUMPI PUSH2 0x10D3 PUSH2 0x176F JUMP JUMPDEST JUMPDEST ADD DUP2 SWAP1 SSTORE POP PUSH1 0x0 PUSH1 0x32 SWAP1 PUSH1 0xA PUSH2 0x10EB SWAP3 SWAP2 SWAP1 PUSH2 0x1596 JUMP JUMPDEST POP PUSH1 0x0 PUSH1 0x32 PUSH1 0x0 PUSH1 0xA DUP2 LT PUSH2 0x1103 JUMPI PUSH2 0x1102 PUSH2 0x176F JUMP JUMPDEST JUMPDEST PUSH1 0x5 MUL ADD PUSH1 0x0 PUSH1 0x5 DUP2 LT PUSH2 0x111A JUMPI PUSH2 0x1119 PUSH2 0x176F JUMP JUMPDEST JUMPDEST ADD SLOAD SWAP1 POP PUSH20 0x0 PUSH4 0xF5BAE6B6 DUP3 PUSH1 0x1 PUSH1 0x40 MLOAD DUP4 PUSH4 0xFFFFFFFF AND PUSH1 0xE0 SHL DUP2 MSTORE PUSH1 0x4 ADD PUSH2 0x1158 SWAP3 SWAP2 SWAP1 PUSH2 0x23A5 JUMP JUMPDEST PUSH1 0x20 PUSH1 0x40 MLOAD DUP1 DUP4 SUB DUP2 DUP7 GAS DELEGATECALL ISZERO DUP1 ISZERO PUSH2 0x1175 JUMPI RETURNDATASIZE PUSH1 0x0 DUP1 RETURNDATACOPY RETURNDATASIZE PUSH1 0x0 REVERT JUMPDEST POP POP POP POP PUSH1 0x40 MLOAD RETURNDATASIZE PUSH1 0x1F NOT PUSH1 0x1F DUP3 ADD AND DUP3 ADD DUP1 PUSH1 0x40 MSTORE POP DUP2 ADD SWAP1 PUSH2 0x1199 SWAP2 SWAP1 PUSH2 0x18D2 JUMP JUMPDEST POP PUSH1 0x2 PUSH1 0x0 DUP1 PUSH1 0xA DUP2 LT PUSH2 0x11B0 JUMPI PUSH2 0x11AF PUSH2 0x176F JUMP JUMPDEST JUMPDEST PUSH1 0x5 MUL ADD PUSH1 0x1 PUSH1 0x5 DUP2 LT PUSH2 0x11C7 JUMPI PUSH2 0x11C6 PUSH2 0x176F JUMP JUMPDEST JUMPDEST ADD DUP2 SWAP1 SSTORE POP PUSH1 0x0 PUSH1 0x32 PUSH1 0x0 PUSH1 0xA DUP2 LT PUSH2 0x11E3 JUMPI PUSH2 0x11E2 PUSH2 0x176F JUMP JUMPDEST JUMPDEST PUSH1 0x5 MUL ADD PUSH1 0x1 PUSH1 0x5 DUP2 LT PUSH2 0x11FA JUMPI PUSH2 0x11F9 PUSH2 0x176F JUMP JUMPDEST JUMPDEST ADD SLOAD SWAP1 POP PUSH20 0x0 PUSH4 0xF5BAE6B6 DUP3 PUSH1 0x0 PUSH1 0x40 MLOAD DUP4 PUSH4 0xFFFFFFFF AND PUSH1 0xE0 SHL DUP2 MSTORE PUSH1 0x4 ADD PUSH2 0x1238 SWAP3 SWAP2 SWAP1 PUSH2 0x242D JUMP JUMPDEST PUSH1 0x20 PUSH1 0x40 MLOAD DUP1 DUP4 SUB DUP2 DUP7 GAS DELEGATECALL ISZERO DUP1 ISZERO PUSH2 0x1255 JUMPI RETURNDATASIZE PUSH1 0x0 DUP1 RETURNDATACOPY RETURNDATASIZE PUSH1 0x0 REVERT JUMPDEST POP POP POP POP PUSH1 0x40 MLOAD RETURNDATASIZE PUSH1 0x1F NOT PUSH1 0x1F DUP3 ADD AND DUP3 ADD DUP1 PUSH1 0x40 MSTORE POP DUP2 ADD SWAP1 PUSH2 0x1279 SWAP2 SWAP1 PUSH2 0x18D2 JUMP JUMPDEST POP POP POP POP JUMP JUMPDEST PUSH1 0x60 DUP1 DUP2 SWAP1 POP PUSH1 0xA PUSH8 0xFFFFFFFFFFFFFFFF DUP2 GT ISZERO PUSH2 0x12A0 JUMPI PUSH2 0x129F PUSH2 0x1740 JUMP JUMPDEST JUMPDEST PUSH1 0x40 MLOAD SWAP1 DUP1 DUP3 MSTORE DUP1 PUSH1 0x20 MUL PUSH1 0x20 ADD DUP3 ADD PUSH1 0x40 MSTORE DUP1 ISZERO PUSH2 0x12CE JUMPI DUP2 PUSH1 0x20 ADD PUSH1 0x20 DUP3 MUL DUP1 CALLDATASIZE DUP4 CALLDATACOPY DUP1 DUP3 ADD SWAP2 POP POP SWAP1 POP JUMPDEST POP SWAP2 POP PUSH1 0x0 DUP2 MLOAD SWAP1 POP PUSH20 0x0 PUSH4 0xABCD7960 DUP3 PUSH1 0x0 PUSH1 0x40 MLOAD DUP4 PUSH4 0xFFFFFFFF AND PUSH1 0xE0 SHL DUP2 MSTORE PUSH1 0x4 ADD PUSH2 0x1311 SWAP3 SWAP2 SWAP1 PUSH2 0x24E6 JUMP JUMPDEST PUSH1 0x20 PUSH1 0x40 MLOAD DUP1 DUP4 SUB DUP2 DUP7 GAS DELEGATECALL ISZERO DUP1 ISZERO PUSH2 0x132E JUMPI RETURNDATASIZE PUSH1 0x0 DUP1 RETURNDATACOPY RETURNDATASIZE PUSH1 0x0 REVERT JUMPDEST POP POP POP POP PUSH1 0x40 MLOAD RETURNDATASIZE PUSH1 0x1F NOT PUSH1 0x1F DUP3 ADD AND DUP3 ADD DUP1 PUSH1 0x40 MSTORE POP DUP2 ADD SWAP1 PUSH2 0x1352 SWAP2 SWAP1 PUSH2 0x18D2 JUMP JUMPDEST POP DUP3 SWAP2 POP PUSH1 0x0 DUP3 MLOAD SWAP1 POP PUSH20 0x0 PUSH4 0xABCD7960 DUP3 PUSH1 0xA PUSH1 0x40 MLOAD DUP4 PUSH4 0xFFFFFFFF AND PUSH1 0xE0 SHL DUP2 MSTORE PUSH1 0x4 ADD PUSH2 0x1396 SWAP3 SWAP2 SWAP1 PUSH2 0x256E JUMP JUMPDEST PUSH1 0x20 PUSH1 0x40 MLOAD DUP1 DUP4 SUB DUP2 DUP7 GAS DELEGATECALL ISZERO DUP1 ISZERO PUSH2 0x13B3 JUMPI RETURNDATASIZE PUSH1 0x0 DUP1 RETURNDATACOPY RETURNDATASIZE PUSH1 0x0 REVERT JUMPDEST POP POP POP POP PUSH1 0x40 MLOAD RETURNDATASIZE PUSH1 0x1F NOT PUSH1 0x1F DUP3 ADD AND DUP3 ADD DUP1 PUSH1 0x40 MSTORE POP DUP2 ADD SWAP1 PUSH2 0x13D7 SWAP2 SWAP1 PUSH2 0x18D2 JUMP JUMPDEST POP PUSH1 0x1 DUP5 PUSH1 0x0 DUP2 MLOAD DUP2 LT PUSH2 0x13EE JUMPI PUSH2 0x13ED PUSH2 0x176F JUMP JUMPDEST JUMPDEST PUSH1 0x20 MUL PUSH1 0x20 ADD ADD DUP2 DUP2 MSTORE POP POP PUSH1 0x0 DUP4 PUSH1 0x0 DUP2 MLOAD DUP2 LT PUSH2 0x1410 JUMPI PUSH2 0x140F PUSH2 0x176F JUMP JUMPDEST JUMPDEST PUSH1 0x20 MUL PUSH1 0x20 ADD ADD MLOAD SWAP1 POP PUSH20 0x0 PUSH4 0xF5BAE6B6 DUP3 PUSH1 0x1 PUSH1 0x40 MLOAD DUP4 PUSH4 0xFFFFFFFF AND PUSH1 0xE0 SHL DUP2 MSTORE PUSH1 0x4 ADD PUSH2 0x1454 SWAP3 SWAP2 SWAP1 PUSH2 0x25F6 JUMP JUMPDEST PUSH1 0x20 PUSH1 0x40 MLOAD DUP1 DUP4 SUB DUP2 DUP7 GAS DELEGATECALL ISZERO DUP1 ISZERO PUSH2 0x1471 JUMPI RETURNDATASIZE PUSH1 0x0 DUP1 RETURNDATACOPY RETURNDATASIZE PUSH1 0x0 REVERT JUMPDEST POP POP POP POP PUSH1 0x40 MLOAD RETURNDATASIZE PUSH1 0x1F NOT PUSH1 0x1F DUP3 ADD AND DUP3 ADD DUP1 PUSH1 0x40 MSTORE POP DUP2 ADD SWAP1 PUSH2 0x1495 SWAP2 SWAP1 PUSH2 0x18D2 JUMP JUMPDEST POP POP POP POP POP POP JUMP JUMPDEST DUP3 DUP1 SLOAD DUP3 DUP3 SSTORE SWAP1 PUSH1 0x0 MSTORE PUSH1 0x20 PUSH1 0x0 KECCAK256 SWAP1 DUP2 ADD SWAP3 DUP3 ISZERO PUSH2 0x14D9 JUMPI SWAP2 PUSH1 0x20 MUL DUP3 ADD JUMPDEST DUP3 DUP2 GT ISZERO PUSH2 0x14D8 JUMPI DUP3 MLOAD DUP3 SSTORE SWAP2 PUSH1 0x20 ADD SWAP2 SWAP1 PUSH1 0x1 ADD SWAP1 PUSH2 0x14BD JUMP JUMPDEST JUMPDEST POP SWAP1 POP PUSH2 0x14E6 SWAP2 SWAP1 PUSH2 0x15E6 JUMP JUMPDEST POP SWAP1 JUMP JUMPDEST DUP3 PUSH1 0x5 DUP2 ADD SWAP3 DUP3 ISZERO PUSH2 0x1523 JUMPI SWAP2 DUP3 ADD JUMPDEST DUP3 DUP2 GT ISZERO PUSH2 0x1522 JUMPI DUP3 DUP3 SWAP1 DUP1 SLOAD PUSH2 0x1512 SWAP3 SWAP2 SWAP1 PUSH2 0x1603 JUMP JUMPDEST POP SWAP2 PUSH1 0x1 ADD SWAP2 SWAP1 PUSH1 0x1 ADD SWAP1 PUSH2 0x14FA JUMP JUMPDEST JUMPDEST POP SWAP1 POP PUSH2 0x1530 SWAP2 SWAP1 PUSH2 0x1655 JUMP JUMPDEST POP SWAP1 JUMP JUMPDEST PUSH2 0x7E2 DUP1 PUSH2 0x2633 DUP4 CODECOPY ADD SWAP1 JUMP JUMPDEST PUSH1 0x40 MLOAD DUP1 PUSH2 0x140 ADD PUSH1 0x40 MSTORE DUP1 PUSH1 0xA SWAP1 JUMPDEST PUSH2 0x1559 PUSH2 0x1679 JUMP JUMPDEST DUP2 MSTORE PUSH1 0x20 ADD SWAP1 PUSH1 0x1 SWAP1 SUB SWAP1 DUP2 PUSH2 0x1551 JUMPI SWAP1 POP POP SWAP1 JUMP JUMPDEST PUSH1 0x40 MLOAD DUP1 PUSH1 0xA0 ADD PUSH1 0x40 MSTORE DUP1 PUSH1 0x5 SWAP1 JUMPDEST PUSH1 0x60 DUP2 MSTORE PUSH1 0x20 ADD SWAP1 PUSH1 0x1 SWAP1 SUB SWAP1 DUP2 PUSH2 0x157E JUMPI SWAP1 POP POP SWAP1 JUMP JUMPDEST DUP3 PUSH1 0xA PUSH1 0x5 MUL DUP2 ADD SWAP3 DUP3 ISZERO PUSH2 0x15D5 JUMPI SWAP2 PUSH1 0x5 MUL DUP3 ADD JUMPDEST DUP3 DUP2 GT ISZERO PUSH2 0x15D4 JUMPI DUP3 DUP3 SWAP1 PUSH1 0x5 PUSH2 0x15C4 SWAP3 SWAP2 SWAP1 PUSH2 0x169B JUMP JUMPDEST POP SWAP2 PUSH1 0x5 ADD SWAP2 SWAP1 PUSH1 0x5 ADD SWAP1 PUSH2 0x15AC JUMP JUMPDEST JUMPDEST POP SWAP1 POP PUSH2 0x15E2 SWAP2 SWAP1 PUSH2 0x16D8 JUMP JUMPDEST POP SWAP1 JUMP JUMPDEST JUMPDEST DUP1 DUP3 GT ISZERO PUSH2 0x15FF JUMPI PUSH1 0x0 DUP2 PUSH1 0x0 SWAP1 SSTORE POP PUSH1 0x1 ADD PUSH2 0x15E7 JUMP JUMPDEST POP SWAP1 JUMP JUMPDEST DUP3 DUP1 SLOAD DUP3 DUP3 SSTORE SWAP1 PUSH1 0x0 MSTORE PUSH1 0x20 PUSH1 0x0 KECCAK256 SWAP1 DUP2 ADD SWAP3 DUP3 ISZERO PUSH2 0x1644 JUMPI PUSH1 0x0 MSTORE PUSH1 0x20 PUSH1 0x0 KECCAK256 SWAP2 DUP3 ADD JUMPDEST DUP3 DUP2 GT ISZERO PUSH2 0x1643 JUMPI DUP3 SLOAD DUP3 SSTORE SWAP2 PUSH1 0x1 ADD SWAP2 SWAP1 PUSH1 0x1 ADD SWAP1 PUSH2 0x1628 JUMP JUMPDEST JUMPDEST POP SWAP1 POP PUSH2 0x1651 SWAP2 SWAP1 PUSH2 0x15E6 JUMP JUMPDEST POP SWAP1 JUMP JUMPDEST JUMPDEST DUP1 DUP3 GT ISZERO PUSH2 0x1675 JUMPI PUSH1 0x0 DUP2 DUP2 PUSH2 0x166C SWAP2 SWAP1 PUSH2 0x16FC JUMP JUMPDEST POP PUSH1 0x1 ADD PUSH2 0x1656 JUMP JUMPDEST POP SWAP1 JUMP JUMPDEST PUSH1 0x40 MLOAD DUP1 PUSH1 0xA0 ADD PUSH1 0x40 MSTORE DUP1 PUSH1 0x5 SWAP1 PUSH1 0x20 DUP3 MUL DUP1 CALLDATASIZE DUP4 CALLDATACOPY DUP1 DUP3 ADD SWAP2 POP POP SWAP1 POP POP SWAP1 JUMP JUMPDEST DUP3 PUSH1 0x5 DUP2 ADD SWAP3 DUP3 ISZERO PUSH2 0x16C7 JUMPI SWAP2 DUP3 ADD JUMPDEST DUP3 DUP2 GT ISZERO PUSH2 0x16C6 JUMPI DUP3 SLOAD DUP3 SSTORE SWAP2 PUSH1 0x1 ADD SWAP2 SWAP1 PUSH1 0x1 ADD SWAP1 PUSH2 0x16AB JUMP JUMPDEST JUMPDEST POP SWAP1 POP PUSH2 0x16D4 SWAP2 SWAP1 PUSH2 0x15E6 JUMP JUMPDEST POP SWAP1 JUMP JUMPDEST JUMPDEST DUP1 DUP3 GT ISZERO PUSH2 0x16F8 JUMPI PUSH1 0x0 DUP2 DUP2 PUSH2 0x16EF SWAP2 SWAP1 PUSH2 0x171D JUMP JUMPDEST POP PUSH1 0x5 ADD PUSH2 0x16D9 JUMP JUMPDEST POP SWAP1 JUMP JUMPDEST POP DUP1 SLOAD PUSH1 0x0 DUP3 SSTORE SWAP1 PUSH1 0x0 MSTORE PUSH1 0x20 PUSH1 0x0 KECCAK256 SWAP1 DUP2 ADD SWAP1 PUSH2 0x171A SWAP2 SWAP1 PUSH2 0x15E6 JUMP JUMPDEST POP JUMP JUMPDEST POP PUSH1 0x0 DUP2 SSTORE PUSH1 0x1 ADD PUSH1 0x0 DUP2 SSTORE PUSH1 0x1 ADD PUSH1 0x0 DUP2 SSTORE PUSH1 0x1 ADD PUSH1 0x0 DUP2 SSTORE PUSH1 0x1 ADD PUSH1 0x0 SWAP1 SSTORE JUMP JUMPDEST PUSH32 0x4E487B7100000000000000000000000000000000000000000000000000000000 PUSH1 0x0 MSTORE PUSH1 0x41 PUSH1 0x4 MSTORE PUSH1 0x24 PUSH1 0x0 REVERT JUMPDEST PUSH32 0x4E487B7100000000000000000000000000000000000000000000000000000000 PUSH1 0x0 MSTORE PUSH1 0x32 PUSH1 0x4 MSTORE PUSH1 0x24 PUSH1 0x0 REVERT JUMPDEST PUSH1 0x0 DUP2 SWAP1 POP SWAP2 SWAP1 POP JUMP JUMPDEST PUSH2 0x17B1 DUP2 PUSH2 0x179E JUMP JUMPDEST DUP3 MSTORE POP POP JUMP JUMPDEST PUSH1 0x0 DUP2 SWAP1 POP SWAP2 SWAP1 POP JUMP JUMPDEST PUSH1 0x0 DUP2 SWAP1 POP SWAP2 SWAP1 POP JUMP JUMPDEST PUSH1 0x0 PUSH2 0x17E6 PUSH2 0x17E1 PUSH2 0x17DC DUP5 PUSH2 0x17B7 JUMP JUMPDEST PUSH2 0x17C1 JUMP JUMPDEST PUSH2 0x179E JUMP JUMPDEST SWAP1 POP SWAP2 SWAP1 POP JUMP JUMPDEST PUSH2 0x17F6 DUP2 PUSH2 0x17CB JUMP JUMPDEST DUP3 MSTORE POP POP JUMP JUMPDEST PUSH1 0x0 DUP3 DUP3 MSTORE PUSH1 0x20 DUP3 ADD SWAP1 POP SWAP3 SWAP2 POP POP JUMP JUMPDEST PUSH32 0x73746F72616765206973206A757374206465657020636F707900000000000000 PUSH1 0x0 DUP3 ADD MSTORE POP JUMP JUMPDEST PUSH1 0x0 PUSH2 0x1843 PUSH1 0x19 DUP4 PUSH2 0x17FC JUMP JUMPDEST SWAP2 POP PUSH2 0x184E DUP3 PUSH2 0x180D JUMP JUMPDEST PUSH1 0x20 DUP3 ADD SWAP1 POP SWAP2 SWAP1 POP JUMP JUMPDEST PUSH1 0x0 PUSH1 0x60 DUP3 ADD SWAP1 POP PUSH2 0x186E PUSH1 0x0 DUP4 ADD DUP6 PUSH2 0x17A8 JUMP JUMPDEST PUSH2 0x187B PUSH1 0x20 DUP4 ADD DUP5 PUSH2 0x17ED JUMP JUMPDEST DUP2 DUP2 SUB PUSH1 0x40 DUP4 ADD MSTORE PUSH2 0x188C DUP2 PUSH2 0x1836 JUMP JUMPDEST SWAP1 POP SWAP4 SWAP3 POP POP POP JUMP JUMPDEST PUSH1 0x0 DUP1 REVERT JUMPDEST PUSH1 0x0 DUP2 ISZERO ISZERO SWAP1 POP SWAP2 SWAP1 POP JUMP JUMPDEST PUSH2 0x18AF DUP2 PUSH2 0x189A JUMP JUMPDEST DUP2 EQ PUSH2 0x18BA JUMPI PUSH1 0x0 DUP1 REVERT JUMPDEST POP JUMP JUMPDEST PUSH1 0x0 DUP2 MLOAD SWAP1 POP PUSH2 0x18CC DUP2 PUSH2 0x18A6 JUMP JUMPDEST SWAP3 SWAP2 POP POP JUMP JUMPDEST PUSH1 0x0 PUSH1 0x20 DUP3 DUP5 SUB SLT ISZERO PUSH2 0x18E8 JUMPI PUSH2 0x18E7 PUSH2 0x1895 JUMP JUMPDEST JUMPDEST PUSH1 0x0 PUSH2 0x18F6 DUP5 DUP3 DUP6 ADD PUSH2 0x18BD JUMP JUMPDEST SWAP2 POP POP SWAP3 SWAP2 POP POP JUMP JUMPDEST PUSH1 0x0 DUP2 SWAP1 POP SWAP2 SWAP1 POP JUMP JUMPDEST PUSH1 0x0 PUSH2 0x1924 PUSH2 0x191F PUSH2 0x191A DUP5 PUSH2 0x18FF JUMP JUMPDEST PUSH2 0x17C1 JUMP JUMPDEST PUSH2 0x179E JUMP JUMPDEST SWAP1 POP SWAP2 SWAP1 POP JUMP JUMPDEST PUSH2 0x1934 DUP2 PUSH2 0x1909 JUMP JUMPDEST DUP3 MSTORE POP POP JUMP JUMPDEST PUSH1 0x0 PUSH1 0x20 DUP3 ADD SWAP1 POP PUSH2 0x194F PUSH1 0x0 DUP4 ADD DUP5 PUSH2 0x192B JUMP JUMPDEST SWAP3 SWAP2 POP POP JUMP JUMPDEST PUSH2 0x195E DUP2 PUSH2 0x179E JUMP JUMPDEST DUP2 EQ PUSH2 0x1969 JUMPI PUSH1 0x0 DUP1 REVERT JUMPDEST POP JUMP JUMPDEST PUSH1 0x0 DUP2 MLOAD SWAP1 POP PUSH2 0x197B DUP2 PUSH2 0x1955 JUMP JUMPDEST SWAP3 SWAP2 POP POP JUMP JUMPDEST PUSH1 0x0 PUSH1 0x20 DUP3 DUP5 SUB SLT ISZERO PUSH2 0x1997 JUMPI PUSH2 0x1996 PUSH2 0x1895 JUMP JUMPDEST JUMPDEST PUSH1 0x0 PUSH2 0x19A5 DUP5 DUP3 DUP6 ADD PUSH2 0x196C JUMP JUMPDEST SWAP2 POP POP SWAP3 SWAP2 POP POP JUMP JUMPDEST PUSH2 0x19B7 DUP2 PUSH2 0x1909 JUMP JUMPDEST DUP3 MSTORE POP POP JUMP JUMPDEST PUSH32 0x76312073686F756C642062652061207368616C6C6F7720636F70696564000000 PUSH1 0x0 DUP3 ADD MSTORE POP JUMP JUMPDEST PUSH1 0x0 PUSH2 0x19F3 PUSH1 0x1D DUP4 PUSH2 0x17FC JUMP JUMPDEST SWAP2 POP PUSH2 0x19FE DUP3 PUSH2 0x19BD JUMP JUMPDEST PUSH1 0x20 DUP3 ADD SWAP1 POP SWAP2 SWAP1 POP JUMP JUMPDEST PUSH1 0x0 PUSH1 0x60 DUP3 ADD SWAP1 POP PUSH2 0x1A1E PUSH1 0x0 DUP4 ADD DUP6 PUSH2 0x17A8 JUMP JUMPDEST PUSH2 0x1A2B PUSH1 0x20 DUP4 ADD DUP5 PUSH2 0x19AE JUMP JUMPDEST DUP2 DUP2 SUB PUSH1 0x40 DUP4 ADD MSTORE PUSH2 0x1A3C DUP2 PUSH2 0x19E6 JUMP JUMPDEST SWAP1 POP SWAP4 SWAP3 POP POP POP JUMP JUMPDEST PUSH32 0x53686F756C64206265207468652064656661756C740000000000000000000000 PUSH1 0x0 DUP3 ADD MSTORE POP JUMP JUMPDEST PUSH1 0x0 PUSH2 0x1A7B PUSH1 0x15 DUP4 PUSH2 0x17FC JUMP JUMPDEST SWAP2 POP PUSH2 0x1A86 DUP3 PUSH2 0x1A45 JUMP JUMPDEST PUSH1 0x20 DUP3 ADD SWAP1 POP SWAP2 SWAP1 POP JUMP JUMPDEST PUSH1 0x0 PUSH1 0x60 DUP3 ADD SWAP1 POP PUSH2 0x1AA6 PUSH1 0x0 DUP4 ADD DUP6 PUSH2 0x17A8 JUMP JUMPDEST PUSH2 0x1AB3 PUSH1 0x20 DUP4 ADD DUP5 PUSH2 0x17ED JUMP JUMPDEST DUP2 DUP2 SUB PUSH1 0x40 DUP4 ADD MSTORE PUSH2 0x1AC4 DUP2 PUSH2 0x1A6E JUMP JUMPDEST SWAP1 POP SWAP4 SWAP3 POP POP POP JUMP JUMPDEST PUSH32 0x76312073686F756C64206265207368616C6C6F77656420636F70696564000000 PUSH1 0x0 DUP3 ADD MSTORE POP JUMP JUMPDEST PUSH1 0x0 PUSH2 0x1B03 PUSH1 0x1D DUP4 PUSH2 0x17FC JUMP JUMPDEST SWAP2 POP PUSH2 0x1B0E DUP3 PUSH2 0x1ACD JUMP JUMPDEST PUSH1 0x20 DUP3 ADD SWAP1 POP SWAP2 SWAP1 POP JUMP JUMPDEST PUSH1 0x0 PUSH1 0x60 DUP3 ADD SWAP1 POP PUSH2 0x1B2E PUSH1 0x0 DUP4 ADD DUP6 PUSH2 0x17A8 JUMP JUMPDEST PUSH2 0x1B3B PUSH1 0x20 DUP4 ADD DUP5 PUSH2 0x19AE JUMP JUMPDEST DUP2 DUP2 SUB PUSH1 0x40 DUP4 ADD MSTORE PUSH2 0x1B4C DUP2 PUSH2 0x1AF6 JUMP JUMPDEST SWAP1 POP SWAP4 SWAP3 POP POP POP JUMP JUMPDEST PUSH1 0x0 DUP2 SWAP1 POP SWAP2 SWAP1 POP JUMP JUMPDEST PUSH2 0x1B68 DUP2 PUSH2 0x1B55 JUMP JUMPDEST DUP2 EQ PUSH2 0x1B73 JUMPI PUSH1 0x0 DUP1 REVERT JUMPDEST POP JUMP JUMPDEST PUSH1 0x0 DUP2 MLOAD SWAP1 POP PUSH2 0x1B85 DUP2 PUSH2 0x1B5F JUMP JUMPDEST SWAP3 SWAP2 POP POP JUMP JUMPDEST PUSH1 0x0 PUSH1 0x20 DUP3 DUP5 SUB SLT ISZERO PUSH2 0x1BA1 JUMPI PUSH2 0x1BA0 PUSH2 0x1895 JUMP JUMPDEST JUMPDEST PUSH1 0x0 PUSH2 0x1BAF DUP5 DUP3 DUP6 ADD PUSH2 0x1B76 JUMP JUMPDEST SWAP2 POP POP SWAP3 SWAP2 POP POP JUMP JUMPDEST PUSH2 0x1BC1 DUP2 PUSH2 0x1B55 JUMP JUMPDEST DUP3 MSTORE POP POP JUMP JUMPDEST PUSH1 0x0 DUP2 SWAP1 POP SWAP2 SWAP1 POP JUMP JUMPDEST PUSH1 0x0 PUSH2 0x1BEC PUSH2 0x1BE7 PUSH2 0x1BE2 DUP5 PUSH2 0x1BC7 JUMP JUMPDEST PUSH2 0x17C1 JUMP JUMPDEST PUSH2 0x1B55 JUMP JUMPDEST SWAP1 POP SWAP2 SWAP1 POP JUMP JUMPDEST PUSH2 0x1BFC DUP2 PUSH2 0x1BD1 JUMP JUMPDEST DUP3 MSTORE POP POP JUMP JUMPDEST PUSH32 0x53686F756C642061646465642074776F2076616C756573000000000000000000 PUSH1 0x0 DUP3 ADD MSTORE POP JUMP JUMPDEST PUSH1 0x0 PUSH2 0x1C38 PUSH1 0x17 DUP4 PUSH2 0x17FC JUMP JUMPDEST SWAP2 POP PUSH2 0x1C43 DUP3 PUSH2 0x1C02 JUMP JUMPDEST PUSH1 0x20 DUP3 ADD SWAP1 POP SWAP2 SWAP1 POP JUMP JUMPDEST PUSH1 0x0 PUSH1 0x60 DUP3 ADD SWAP1 POP PUSH2 0x1C63 PUSH1 0x0 DUP4 ADD DUP6 PUSH2 0x1BB8 JUMP JUMPDEST PUSH2 0x1C70 PUSH1 0x20 DUP4 ADD DUP5 PUSH2 0x1BF3 JUMP JUMPDEST DUP2 DUP2 SUB PUSH1 0x40 DUP4 ADD MSTORE PUSH2 0x1C81 DUP2 PUSH2 0x1C2B JUMP JUMPDEST SWAP1 POP SWAP4 SWAP3 POP POP POP JUMP JUMPDEST PUSH1 0x0 PUSH2 0x1CA5 PUSH2 0x1CA0 PUSH2 0x1C9B DUP5 PUSH2 0x18FF JUMP JUMPDEST PUSH2 0x17C1 JUMP JUMPDEST PUSH2 0x1B55 JUMP JUMPDEST SWAP1 POP SWAP2 SWAP1 POP JUMP JUMPDEST PUSH2 0x1CB5 DUP2 PUSH2 0x1C8A JUMP JUMPDEST DUP3 MSTORE POP POP JUMP JUMPDEST PUSH1 0x0 PUSH1 0x20 DUP3 ADD SWAP1 POP PUSH2 0x1CD0 PUSH1 0x0 DUP4 ADD DUP5 PUSH2 0x1CAC JUMP JUMPDEST SWAP3 SWAP2 POP POP JUMP JUMPDEST PUSH32 0x53686F756C6420616C6C6F7720746F2077726974650000000000000000000000 PUSH1 0x0 DUP3 ADD MSTORE POP JUMP JUMPDEST PUSH1 0x0 PUSH2 0x1D0C PUSH1 0x15 DUP4 PUSH2 0x17FC JUMP JUMPDEST SWAP2 POP PUSH2 0x1D17 DUP3 PUSH2 0x1CD6 JUMP JUMPDEST PUSH1 0x20 DUP3 ADD SWAP1 POP SWAP2 SWAP1 POP JUMP JUMPDEST PUSH1 0x0 PUSH1 0x60 DUP3 ADD SWAP1 POP PUSH2 0x1D37 PUSH1 0x0 DUP4 ADD DUP6 PUSH2 0x17A8 JUMP JUMPDEST PUSH2 0x1D44 PUSH1 0x20 DUP4 ADD DUP5 PUSH2 0x19AE JUMP JUMPDEST DUP2 DUP2 SUB PUSH1 0x40 DUP4 ADD MSTORE PUSH2 0x1D55 DUP2 PUSH2 0x1CFF JUMP JUMPDEST SWAP1 POP SWAP4 SWAP3 POP POP POP JUMP JUMPDEST PUSH1 0x0 DUP2 SWAP1 POP SWAP2 SWAP1 POP JUMP JUMPDEST PUSH1 0x0 PUSH2 0x1D83 PUSH2 0x1D7E PUSH2 0x1D79 DUP5 PUSH2 0x1D5E JUMP JUMPDEST PUSH2 0x17C1 JUMP JUMPDEST PUSH2 0x1B55 JUMP JUMPDEST SWAP1 POP SWAP2 SWAP1 POP JUMP JUMPDEST PUSH2 0x1D93 DUP2 PUSH2 0x1D68 JUMP JUMPDEST DUP3 MSTORE POP POP JUMP JUMPDEST PUSH32 0x73686F756C6420636F7079206D61747269780000000000000000000000000000 PUSH1 0x0 DUP3 ADD MSTORE POP JUMP JUMPDEST PUSH1 0x0 PUSH2 0x1DCF PUSH1 0x12 DUP4 PUSH2 0x17FC JUMP JUMPDEST SWAP2 POP PUSH2 0x1DDA DUP3 PUSH2 0x1D99 JUMP JUMPDEST PUSH1 0x20 DUP3 ADD SWAP1 POP SWAP2 SWAP1 POP JUMP JUMPDEST PUSH1 0x0 PUSH1 0x60 DUP3 ADD SWAP1 POP PUSH2 0x1DFA PUSH1 0x0 DUP4 ADD DUP6 PUSH2 0x1BB8 JUMP JUMPDEST PUSH2 0x1E07 PUSH1 0x20 DUP4 ADD DUP5 PUSH2 0x1D8A JUMP JUMPDEST DUP2 DUP2 SUB PUSH1 0x40 DUP4 ADD MSTORE PUSH2 0x1E18 DUP2 PUSH2 0x1DC2 JUMP JUMPDEST SWAP1 POP SWAP4 SWAP3 POP POP POP JUMP JUMPDEST PUSH1 0x0 PUSH2 0x1E3C PUSH2 0x1E37 PUSH2 0x1E32 DUP5 PUSH2 0x1BC7 JUMP JUMPDEST PUSH2 0x17C1 JUMP JUMPDEST PUSH2 0x179E JUMP JUMPDEST SWAP1 POP SWAP2 SWAP1 POP JUMP JUMPDEST PUSH2 0x1E4C DUP2 PUSH2 0x1E21 JUMP JUMPDEST DUP3 MSTORE POP POP JUMP JUMPDEST PUSH32 0x73686F756C64207368616C6C6F7720636F70792074686520726573756C740000 PUSH1 0x0 DUP3 ADD MSTORE POP JUMP JUMPDEST PUSH1 0x0 PUSH2 0x1E88 PUSH1 0x1E DUP4 PUSH2 0x17FC JUMP JUMPDEST SWAP2 POP PUSH2 0x1E93 DUP3 PUSH2 0x1E52 JUMP JUMPDEST PUSH1 0x20 DUP3 ADD SWAP1 POP SWAP2 SWAP1 POP JUMP JUMPDEST PUSH1 0x0 PUSH1 0x60 DUP3 ADD SWAP1 POP PUSH2 0x1EB3 PUSH1 0x0 DUP4 ADD DUP6 PUSH2 0x17A8 JUMP JUMPDEST PUSH2 0x1EC0 PUSH1 0x20 DUP4 ADD DUP5 PUSH2 0x1E43 JUMP JUMPDEST DUP2 DUP2 SUB PUSH1 0x40 DUP4 ADD MSTORE PUSH2 0x1ED1 DUP2 PUSH2 0x1E7B JUMP JUMPDEST SWAP1 POP SWAP4 SWAP3 POP POP POP JUMP JUMPDEST PUSH1 0x0 DUP1 PUSH1 0x40 DUP4 DUP6 SUB SLT ISZERO PUSH2 0x1EF1 JUMPI PUSH2 0x1EF0 PUSH2 0x1895 JUMP JUMPDEST JUMPDEST PUSH1 0x0 PUSH2 0x1EFF DUP6 DUP3 DUP7 ADD PUSH2 0x196C JUMP JUMPDEST SWAP3 POP POP PUSH1 0x20 PUSH2 0x1F10 DUP6 DUP3 DUP7 ADD PUSH2 0x196C JUMP JUMPDEST SWAP2 POP POP SWAP3 POP SWAP3 SWAP1 POP JUMP JUMPDEST PUSH32 0x76312073686F756C64206265206465657020636F706965640000000000000000 PUSH1 0x0 DUP3 ADD MSTORE POP JUMP JUMPDEST PUSH1 0x0 PUSH2 0x1F50 PUSH1 0x18 DUP4 PUSH2 0x17FC JUMP JUMPDEST SWAP2 POP PUSH2 0x1F5B DUP3 PUSH2 0x1F1A JUMP JUMPDEST PUSH1 0x20 DUP3 ADD SWAP1 POP SWAP2 SWAP1 POP JUMP JUMPDEST PUSH1 0x0 PUSH1 0x60 DUP3 ADD SWAP1 POP PUSH2 0x1F7B PUSH1 0x0 DUP4 ADD DUP6 PUSH2 0x17A8 JUMP JUMPDEST PUSH2 0x1F88 PUSH1 0x20 DUP4 ADD DUP5 PUSH2 0x17ED JUMP JUMPDEST DUP2 DUP2 SUB PUSH1 0x40 DUP4 ADD MSTORE PUSH2 0x1F99 DUP2 PUSH2 0x1F43 JUMP JUMPDEST SWAP1 POP SWAP4 SWAP3 POP POP POP JUMP JUMPDEST PUSH32 0x76322073686F756C64206265206465657020636F706965640000000000000000 PUSH1 0x0 DUP3 ADD MSTORE POP JUMP JUMPDEST PUSH1 0x0 PUSH2 0x1FD8 PUSH1 0x18 DUP4 PUSH2 0x17FC JUMP JUMPDEST SWAP2 POP PUSH2 0x1FE3 DUP3 PUSH2 0x1FA2 JUMP JUMPDEST PUSH1 0x20 DUP3 ADD SWAP1 POP SWAP2 SWAP1 POP JUMP JUMPDEST PUSH1 0x0 PUSH1 0x60 DUP3 ADD SWAP1 POP PUSH2 0x2003 PUSH1 0x0 DUP4 ADD DUP6 PUSH2 0x17A8 JUMP JUMPDEST PUSH2 0x2010 PUSH1 0x20 DUP4 ADD DUP5 PUSH2 0x1E43 JUMP JUMPDEST DUP2 DUP2 SUB PUSH1 0x40 DUP4 ADD MSTORE PUSH2 0x2021 DUP2 PUSH2 0x1FCB JUMP JUMPDEST SWAP1 POP SWAP4 SWAP3 POP POP POP JUMP JUMPDEST PUSH32 0x6D6174726978312073686F756C6420696E697469616C697A6500000000000000 PUSH1 0x0 DUP3 ADD MSTORE POP JUMP JUMPDEST PUSH1 0x0 PUSH2 0x2060 PUSH1 0x19 DUP4 PUSH2 0x17FC JUMP JUMPDEST SWAP2 POP PUSH2 0x206B DUP3 PUSH2 0x202A JUMP JUMPDEST PUSH1 0x20 DUP3 ADD SWAP1 POP SWAP2 SWAP1 POP JUMP JUMPDEST PUSH1 0x0 PUSH1 0x60 DUP3 ADD SWAP1 POP PUSH2 0x208B PUSH1 0x0 DUP4 ADD DUP6 PUSH2 0x1BB8 JUMP JUMPDEST PUSH2 0x2098 PUSH1 0x20 DUP4 ADD DUP5 PUSH2 0x1D8A JUMP JUMPDEST DUP2 DUP2 SUB PUSH1 0x40 DUP4 ADD MSTORE PUSH2 0x20A9 DUP2 PUSH2 0x2053 JUMP JUMPDEST SWAP1 POP SWAP4 SWAP3 POP POP POP JUMP JUMPDEST PUSH32 0x6D6174726978312073686F756C6420736861646F7720636F7079206C656E6774 PUSH1 0x0 DUP3 ADD MSTORE PUSH32 0x6800000000000000000000000000000000000000000000000000000000000000 PUSH1 0x20 DUP3 ADD MSTORE POP JUMP JUMPDEST PUSH1 0x0 PUSH2 0x210E PUSH1 0x21 DUP4 PUSH2 0x17FC JUMP JUMPDEST SWAP2 POP PUSH2 0x2119 DUP3 PUSH2 0x20B2 JUMP JUMPDEST PUSH1 0x40 DUP3 ADD SWAP1 POP SWAP2 SWAP1 POP JUMP JUMPDEST PUSH1 0x0 PUSH1 0x60 DUP3 ADD SWAP1 POP PUSH2 0x2139 PUSH1 0x0 DUP4 ADD DUP6 PUSH2 0x1BB8 JUMP JUMPDEST PUSH2 0x2146 PUSH1 0x20 DUP4 ADD DUP5 PUSH2 0x1BF3 JUMP JUMPDEST DUP2 DUP2 SUB PUSH1 0x40 DUP4 ADD MSTORE PUSH2 0x2157 DUP2 PUSH2 0x2101 JUMP JUMPDEST SWAP1 POP SWAP4 SWAP3 POP POP POP JUMP JUMPDEST PUSH1 0x0 DUP2 SWAP1 POP SWAP2 SWAP1 POP JUMP JUMPDEST PUSH1 0x0 PUSH2 0x2185 PUSH2 0x2180 PUSH2 0x217B DUP5 PUSH2 0x2160 JUMP JUMPDEST PUSH2 0x17C1 JUMP JUMPDEST PUSH2 0x179E JUMP JUMPDEST SWAP1 POP SWAP2 SWAP1 POP JUMP JUMPDEST PUSH2 0x2195 DUP2 PUSH2 0x216A JUMP JUMPDEST DUP3 MSTORE POP POP JUMP JUMPDEST PUSH32 0x6D6174726978312073686F756C6420736861646F7720636F70792076616C7565 PUSH1 0x0 DUP3 ADD MSTORE POP JUMP JUMPDEST PUSH1 0x0 PUSH2 0x21D1 PUSH1 0x20 DUP4 PUSH2 0x17FC JUMP JUMPDEST SWAP2 POP PUSH2 0x21DC DUP3 PUSH2 0x219B JUMP JUMPDEST PUSH1 0x20 DUP3 ADD SWAP1 POP SWAP2 SWAP1 POP JUMP JUMPDEST PUSH1 0x0 PUSH1 0x60 DUP3 ADD SWAP1 POP PUSH2 0x21FC PUSH1 0x0 DUP4 ADD DUP6 PUSH2 0x17A8 JUMP JUMPDEST PUSH2 0x2209 PUSH1 0x20 DUP4 ADD DUP5 PUSH2 0x218C JUMP JUMPDEST DUP2 DUP2 SUB PUSH1 0x40 DUP4 ADD MSTORE PUSH2 0x221A DUP2 PUSH2 0x21C4 JUMP JUMPDEST SWAP1 POP SWAP4 SWAP3 POP POP POP JUMP JUMPDEST PUSH32 0x53686F756C64207368616C6C6F7720636F707900000000000000000000000000 PUSH1 0x0 DUP3 ADD MSTORE POP JUMP JUMPDEST PUSH1 0x0 PUSH2 0x2259 PUSH1 0x13 DUP4 PUSH2 0x17FC JUMP JUMPDEST SWAP2 POP PUSH2 0x2264 DUP3 PUSH2 0x2223 JUMP JUMPDEST PUSH1 0x20 DUP3 ADD SWAP1 POP SWAP2 SWAP1 POP JUMP JUMPDEST PUSH1 0x0 PUSH1 0x60 DUP3 ADD SWAP1 POP PUSH2 0x2284 PUSH1 0x0 DUP4 ADD DUP6 PUSH2 0x17A8 JUMP JUMPDEST PUSH2 0x2291 PUSH1 0x20 DUP4 ADD DUP5 PUSH2 0x19AE JUMP JUMPDEST DUP2 DUP2 SUB PUSH1 0x40 DUP4 ADD MSTORE PUSH2 0x22A2 DUP2 PUSH2 0x224C JUMP JUMPDEST SWAP1 POP SWAP4 SWAP3 POP POP POP JUMP JUMPDEST PUSH32 0x73746F72616765206D61747269782073686F756C642068617665206465666175 PUSH1 0x0 DUP3 ADD MSTORE PUSH32 0x6C742076616C7565000000000000000000000000000000000000000000000000 PUSH1 0x20 DUP3 ADD MSTORE POP JUMP JUMPDEST PUSH1 0x0 PUSH2 0x2307 PUSH1 0x28 DUP4 PUSH2 0x17FC JUMP JUMPDEST SWAP2 POP PUSH2 0x2312 DUP3 PUSH2 0x22AB JUMP JUMPDEST PUSH1 0x40 DUP3 ADD SWAP1 POP SWAP2 SWAP1 POP JUMP JUMPDEST PUSH1 0x0 PUSH1 0x60 DUP3 ADD SWAP1 POP PUSH2 0x2332 PUSH1 0x0 DUP4 ADD DUP6 PUSH2 0x17A8 JUMP JUMPDEST PUSH2 0x233F PUSH1 0x20 DUP4 ADD DUP5 PUSH2 0x17ED JUMP JUMPDEST DUP2 DUP2 SUB PUSH1 0x40 DUP4 ADD MSTORE PUSH2 0x2350 DUP2 PUSH2 0x22FA JUMP JUMPDEST SWAP1 POP SWAP4 SWAP3 POP POP POP JUMP JUMPDEST PUSH32 0x73686F756C6420636F7079207468652076616C75650000000000000000000000 PUSH1 0x0 DUP3 ADD MSTORE POP JUMP JUMPDEST PUSH1 0x0 PUSH2 0x238F PUSH1 0x15 DUP4 PUSH2 0x17FC JUMP JUMPDEST SWAP2 POP PUSH2 0x239A DUP3 PUSH2 0x2359 JUMP JUMPDEST PUSH1 0x20 DUP3 ADD SWAP1 POP SWAP2 SWAP1 POP JUMP JUMPDEST PUSH1 0x0 PUSH1 0x60 DUP3 ADD SWAP1 POP PUSH2 0x23BA PUSH1 0x0 DUP4 ADD DUP6 PUSH2 0x17A8 JUMP JUMPDEST PUSH2 0x23C7 PUSH1 0x20 DUP4 ADD DUP5 PUSH2 0x19AE JUMP JUMPDEST DUP2 DUP2 SUB PUSH1 0x40 DUP4 ADD MSTORE PUSH2 0x23D8 DUP2 PUSH2 0x2382 JUMP JUMPDEST SWAP1 POP SWAP4 SWAP3 POP POP POP JUMP JUMPDEST PUSH32 0x73686F756C64206465657020636F707900000000000000000000000000000000 PUSH1 0x0 DUP3 ADD MSTORE POP JUMP JUMPDEST PUSH1 0x0 PUSH2 0x2417 PUSH1 0x10 DUP4 PUSH2 0x17FC JUMP JUMPDEST SWAP2 POP PUSH2 0x2422 DUP3 PUSH2 0x23E1 JUMP JUMPDEST PUSH1 0x20 DUP3 ADD SWAP1 POP SWAP2 SWAP1 POP JUMP JUMPDEST PUSH1 0x0 PUSH1 0x60 DUP3 ADD SWAP1 POP PUSH2 0x2442 PUSH1 0x0 DUP4 ADD DUP6 PUSH2 0x17A8 JUMP JUMPDEST PUSH2 0x244F PUSH1 0x20 DUP4 ADD DUP5 PUSH2 0x17ED JUMP JUMPDEST DUP2 DUP2 SUB PUSH1 0x40 DUP4 ADD MSTORE PUSH2 0x2460 DUP2 PUSH2 0x240A JUMP JUMPDEST SWAP1 POP SWAP4 SWAP3 POP POP POP JUMP JUMPDEST PUSH1 0x0 PUSH2 0x2484 PUSH2 0x247F PUSH2 0x247A DUP5 PUSH2 0x17B7 JUMP JUMPDEST PUSH2 0x17C1 JUMP JUMPDEST PUSH2 0x1B55 JUMP JUMPDEST SWAP1 POP SWAP2 SWAP1 POP JUMP JUMPDEST PUSH2 0x2494 DUP2 PUSH2 0x2469 JUMP JUMPDEST DUP3 MSTORE POP POP JUMP JUMPDEST PUSH32 0x646964206E6F7420636F70792076656332000000000000000000000000000000 PUSH1 0x0 DUP3 ADD MSTORE POP JUMP JUMPDEST PUSH1 0x0 PUSH2 0x24D0 PUSH1 0x11 DUP4 PUSH2 0x17FC JUMP JUMPDEST SWAP2 POP PUSH2 0x24DB DUP3 PUSH2 0x249A JUMP JUMPDEST PUSH1 0x20 DUP3 ADD SWAP1 POP SWAP2 SWAP1 POP JUMP JUMPDEST PUSH1 0x0 PUSH1 0x60 DUP3 ADD SWAP1 POP PUSH2 0x24FB PUSH1 0x0 DUP4 ADD DUP6 PUSH2 0x1BB8 JUMP JUMPDEST PUSH2 0x2508 PUSH1 0x20 DUP4 ADD DUP5 PUSH2 0x248B JUMP JUMPDEST DUP2 DUP2 SUB PUSH1 0x40 DUP4 ADD MSTORE PUSH2 0x2519 DUP2 PUSH2 0x24C3 JUMP JUMPDEST SWAP1 POP SWAP4 SWAP3 POP POP POP JUMP JUMPDEST PUSH32 0x636F706965642076656332000000000000000000000000000000000000000000 PUSH1 0x0 DUP3 ADD MSTORE POP JUMP JUMPDEST PUSH1 0x0 PUSH2 0x2558 PUSH1 0xB DUP4 PUSH2 0x17FC JUMP JUMPDEST SWAP2 POP PUSH2 0x2563 DUP3 PUSH2 0x2522 JUMP JUMPDEST PUSH1 0x20 DUP3 ADD SWAP1 POP SWAP2 SWAP1 POP JUMP JUMPDEST PUSH1 0x0 PUSH1 0x60 DUP3 ADD SWAP1 POP PUSH2 0x2583 PUSH1 0x0 DUP4 ADD DUP6 PUSH2 0x1BB8 JUMP JUMPDEST PUSH2 0x2590 PUSH1 0x20 DUP4 ADD DUP5 PUSH2 0x1D8A JUMP JUMPDEST DUP2 DUP2 SUB PUSH1 0x40 DUP4 ADD MSTORE PUSH2 0x25A1 DUP2 PUSH2 0x254B JUMP JUMPDEST SWAP1 POP SWAP4 SWAP3 POP POP POP JUMP JUMPDEST PUSH32 0x7368616C6C6F7720656D62656464696E67000000000000000000000000000000 PUSH1 0x0 DUP3 ADD MSTORE POP JUMP JUMPDEST PUSH1 0x0 PUSH2 0x25E0 PUSH1 0x11 DUP4 PUSH2 0x17FC JUMP JUMPDEST SWAP2 POP PUSH2 0x25EB DUP3 PUSH2 0x25AA JUMP JUMPDEST PUSH1 0x20 DUP3 ADD SWAP1 POP SWAP2 SWAP1 POP JUMP JUMPDEST PUSH1 0x0 PUSH1 0x60 DUP3 ADD SWAP1 POP PUSH2 0x260B PUSH1 0x0 DUP4 ADD DUP6 PUSH2 0x17A8 JUMP JUMPDEST PUSH2 0x2618 PUSH1 0x20 DUP4 ADD DUP5 PUSH2 0x19AE JUMP JUMPDEST DUP2 DUP2 SUB PUSH1 0x40 DUP4 ADD MSTORE PUSH2 0x2629 DUP2 PUSH2 0x25D3 JUMP JUMPDEST SWAP1 POP SWAP4 SWAP3 POP POP POP JUMP INVALID PUSH1 0x80 PUSH1 0x40 MSTORE CALLVALUE DUP1 ISZERO PUSH2 0x10 JUMPI PUSH1 0x0 DUP1 REVERT JUMPDEST POP PUSH2 0x7C2 DUP1 PUSH2 0x20 PUSH1 0x0 CODECOPY PUSH1 0x0 RETURN INVALID PUSH1 0x80 PUSH1 0x40 MSTORE CALLVALUE DUP1 ISZERO PUSH2 0x10 JUMPI PUSH1 0x0 DUP1 REVERT JUMPDEST POP PUSH1 0x4 CALLDATASIZE LT PUSH2 0x87 JUMPI PUSH1 0x0 CALLDATALOAD PUSH1 0xE0 SHR DUP1 PUSH4 0x6D9953D1 GT PUSH2 0x5B JUMPI DUP1 PUSH4 0x6D9953D1 EQ PUSH2 0x118 JUMPI DUP1 PUSH4 0xA0A98597 EQ PUSH2 0x148 JUMPI DUP1 PUSH4 0xAB35EC63 EQ PUSH2 0x152 JUMPI DUP1 PUSH4 0xFFC850FD EQ PUSH2 0x182 JUMPI PUSH2 0x87 JUMP JUMPDEST DUP1 PUSH3 0x2DFF07 EQ PUSH2 0x8C JUMPI DUP1 PUSH4 0x29F5DEBF EQ PUSH2 0xAA JUMPI DUP1 PUSH4 0x4ADE209D EQ PUSH2 0xDA JUMPI DUP1 PUSH4 0x5CAC0E80 EQ PUSH2 0xF9 JUMPI JUMPDEST PUSH1 0x0 DUP1 REVERT JUMPDEST PUSH2 0x94 PUSH2 0x1B2 JUMP JUMPDEST PUSH1 0x40 MLOAD PUSH2 0xA1 SWAP2 SWAP1 PUSH2 0x5BB JUMP JUMPDEST PUSH1 0x40 MLOAD DUP1 SWAP2 SUB SWAP1 RETURN JUMPDEST PUSH2 0xC4 PUSH1 0x4 DUP1 CALLDATASIZE SUB DUP2 ADD SWAP1 PUSH2 0xBF SWAP2 SWAP1 PUSH2 0x611 JUMP JUMPDEST PUSH2 0x1BF JUMP JUMPDEST PUSH1 0x40 MLOAD PUSH2 0xD1 SWAP2 SWAP1 PUSH2 0x64D JUMP JUMPDEST PUSH1 0x40 MLOAD DUP1 SWAP2 SUB SWAP1 RETURN JUMPDEST PUSH2 0xE2 PUSH2 0x2A1 JUMP JUMPDEST PUSH1 0x40 MLOAD PUSH2 0xF0 SWAP3 SWAP2 SWAP1 PUSH2 0x668 JUMP JUMPDEST PUSH1 0x40 MLOAD DUP1 SWAP2 SUB SWAP1 RETURN JUMPDEST PUSH2 0x101 PUSH2 0x3E1 JUMP JUMPDEST PUSH1 0x40 MLOAD PUSH2 0x10F SWAP3 SWAP2 SWAP1 PUSH2 0x6AC JUMP JUMPDEST PUSH1 0x40 MLOAD DUP1 SWAP2 SUB SWAP1 RETURN JUMPDEST PUSH2 0x132 PUSH1 0x4 DUP1 CALLDATASIZE SUB DUP2 ADD SWAP1 PUSH2 0x12D SWAP2 SWAP1 PUSH2 0x611 JUMP JUMPDEST PUSH2 0x4B7 JUMP JUMPDEST PUSH1 0x40 MLOAD PUSH2 0x13F SWAP2 SWAP1 PUSH2 0x64D JUMP JUMPDEST PUSH1 0x40 MLOAD DUP1 SWAP2 SUB SWAP1 RETURN JUMPDEST PUSH2 0x150 PUSH2 0x4E4 JUMP JUMPDEST STOP JUMPDEST PUSH2 0x16C PUSH1 0x4 DUP1 CALLDATASIZE SUB DUP2 ADD SWAP1 PUSH2 0x167 SWAP2 SWAP1 PUSH2 0x701 JUMP JUMPDEST PUSH2 0x53A JUMP JUMPDEST PUSH1 0x40 MLOAD PUSH2 0x179 SWAP2 SWAP1 PUSH2 0x64D JUMP JUMPDEST PUSH1 0x40 MLOAD DUP1 SWAP2 SUB SWAP1 RETURN JUMPDEST PUSH2 0x19C PUSH1 0x4 DUP1 CALLDATASIZE SUB DUP2 ADD SWAP1 PUSH2 0x197 SWAP2 SWAP1 PUSH2 0x701 JUMP JUMPDEST PUSH2 0x562 JUMP JUMPDEST PUSH1 0x40 MLOAD PUSH2 0x1A9 SWAP2 SWAP1 PUSH2 0x64D JUMP JUMPDEST PUSH1 0x40 MLOAD DUP1 SWAP2 SUB SWAP1 RETURN JUMPDEST PUSH1 0x0 PUSH1 0x5 DUP1 SLOAD SWAP1 POP SWAP1 POP SWAP1 JUMP JUMPDEST PUSH1 0x0 DUP1 PUSH1 0xA PUSH8 0xFFFFFFFFFFFFFFFF DUP2 GT ISZERO PUSH2 0x1DD JUMPI PUSH2 0x1DC PUSH2 0x72E JUMP JUMPDEST JUMPDEST PUSH1 0x40 MLOAD SWAP1 DUP1 DUP3 MSTORE DUP1 PUSH1 0x20 MUL PUSH1 0x20 ADD DUP3 ADD PUSH1 0x40 MSTORE DUP1 ISZERO PUSH2 0x216 JUMPI DUP2 PUSH1 0x20 ADD JUMPDEST PUSH2 0x203 PUSH2 0x586 JUMP JUMPDEST DUP2 MSTORE PUSH1 0x20 ADD SWAP1 PUSH1 0x1 SWAP1 SUB SWAP1 DUP2 PUSH2 0x1FB JUMPI SWAP1 POP JUMPDEST POP SWAP1 POP DUP1 PUSH1 0x0 DUP2 MLOAD DUP2 LT PUSH2 0x22D JUMPI PUSH2 0x22C PUSH2 0x75D JUMP JUMPDEST JUMPDEST PUSH1 0x20 MUL PUSH1 0x20 ADD ADD MLOAD DUP2 PUSH1 0x1 DUP2 MLOAD DUP2 LT PUSH2 0x249 JUMPI PUSH2 0x248 PUSH2 0x75D JUMP JUMPDEST JUMPDEST PUSH1 0x20 MUL PUSH1 0x20 ADD ADD DUP2 SWAP1 MSTORE POP DUP3 DUP2 PUSH1 0x0 DUP2 MLOAD DUP2 LT PUSH2 0x269 JUMPI PUSH2 0x268 PUSH2 0x75D JUMP JUMPDEST JUMPDEST PUSH1 0x20 MUL PUSH1 0x20 ADD ADD MLOAD PUSH1 0x0 ADD DUP2 DUP2 MSTORE POP POP DUP1 PUSH1 0x1 DUP2 MLOAD DUP2 LT PUSH2 0x28D JUMPI PUSH2 0x28C PUSH2 0x75D JUMP JUMPDEST JUMPDEST PUSH1 0x20 MUL PUSH1 0x20 ADD ADD MLOAD PUSH1 0x0 ADD MLOAD SWAP2 POP POP SWAP2 SWAP1 POP JUMP JUMPDEST PUSH1 0x0 DUP1 PUSH1 0x4 PUSH1 0x0 SWAP1 DUP1 PUSH1 0x1 DUP2 SLOAD ADD DUP1 DUP3 SSTORE DUP1 SWAP2 POP POP PUSH1 0x1 SWAP1 SUB SWAP1 PUSH1 0x0 MSTORE PUSH1 0x20 PUSH1 0x0 KECCAK256 SWAP1 PUSH1 0x2 MUL ADD PUSH1 0x0 SWAP1 SWAP2 SWAP1 SWAP2 SWAP1 SWAP2 POP PUSH1 0x0 DUP3 ADD SLOAD DUP2 PUSH1 0x0 ADD SSTORE PUSH1 0x1 DUP3 ADD PUSH1 0x0 SWAP1 SLOAD SWAP1 PUSH2 0x100 EXP SWAP1 DIV PUSH1 0xFF AND DUP2 PUSH1 0x1 ADD PUSH1 0x0 PUSH2 0x100 EXP DUP2 SLOAD DUP2 PUSH1 0xFF MUL NOT AND SWAP1 DUP4 ISZERO ISZERO MUL OR SWAP1 SSTORE POP POP POP PUSH1 0x1 PUSH1 0x0 DUP1 ADD DUP2 SWAP1 SSTORE POP PUSH2 0x31C PUSH2 0x586 JUMP JUMPDEST PUSH1 0x2 DUP2 PUSH1 0x0 ADD DUP2 DUP2 MSTORE POP POP PUSH1 0x4 DUP2 SWAP1 DUP1 PUSH1 0x1 DUP2 SLOAD ADD DUP1 DUP3 SSTORE DUP1 SWAP2 POP POP PUSH1 0x1 SWAP1 SUB SWAP1 PUSH1 0x0 MSTORE PUSH1 0x20 PUSH1 0x0 KECCAK256 SWAP1 PUSH1 0x2 MUL ADD PUSH1 0x0 SWAP1 SWAP2 SWAP1 SWAP2 SWAP1 SWAP2 POP PUSH1 0x0 DUP3 ADD MLOAD DUP2 PUSH1 0x0 ADD SSTORE PUSH1 0x20 DUP3 ADD MLOAD DUP2 PUSH1 0x1 ADD PUSH1 0x0 PUSH2 0x100 EXP DUP2 SLOAD DUP2 PUSH1 0xFF MUL NOT AND SWAP1 DUP4 ISZERO ISZERO MUL OR SWAP1 SSTORE POP POP POP PUSH1 0x3 DUP2 PUSH1 0x0 ADD DUP2 DUP2 MSTORE POP POP PUSH1 0x4 PUSH1 0x0 DUP2 SLOAD DUP2 LT PUSH2 0x39F JUMPI PUSH2 0x39E PUSH2 0x75D JUMP JUMPDEST JUMPDEST SWAP1 PUSH1 0x0 MSTORE PUSH1 0x20 PUSH1 0x0 KECCAK256 SWAP1 PUSH1 0x2 MUL ADD PUSH1 0x0 ADD SLOAD PUSH1 0x4 PUSH1 0x1 DUP2 SLOAD DUP2 LT PUSH2 0x3C6 JUMPI PUSH2 0x3C5 PUSH2 0x75D JUMP JUMPDEST JUMPDEST SWAP1 PUSH1 0x0 MSTORE PUSH1 0x20 PUSH1 0x0 KECCAK256 SWAP1 PUSH1 0x2 MUL ADD PUSH1 0x0 ADD SLOAD SWAP3 POP SWAP3 POP POP SWAP1 SWAP2 JUMP JUMPDEST PUSH1 0x0 DUP1 PUSH1 0x0 PUSH1 0xA PUSH8 0xFFFFFFFFFFFFFFFF DUP2 GT ISZERO PUSH2 0x401 JUMPI PUSH2 0x400 PUSH2 0x72E JUMP JUMPDEST JUMPDEST PUSH1 0x40 MLOAD SWAP1 DUP1 DUP3 MSTORE DUP1 PUSH1 0x20 MUL PUSH1 0x20 ADD DUP3 ADD PUSH1 0x40 MSTORE DUP1 ISZERO PUSH2 0x43A JUMPI DUP2 PUSH1 0x20 ADD JUMPDEST PUSH2 0x427 PUSH2 0x586 JUMP JUMPDEST DUP2 MSTORE PUSH1 0x20 ADD SWAP1 PUSH1 0x1 SWAP1 SUB SWAP1 DUP2 PUSH2 0x41F JUMPI SWAP1 POP JUMPDEST POP SWAP1 POP PUSH1 0x0 DUP2 PUSH1 0x0 DUP2 MLOAD DUP2 LT PUSH2 0x453 JUMPI PUSH2 0x452 PUSH2 0x75D JUMP JUMPDEST JUMPDEST PUSH1 0x20 MUL PUSH1 0x20 ADD ADD MLOAD SWAP1 POP PUSH1 0x0 DUP3 PUSH1 0x1 DUP2 MLOAD DUP2 LT PUSH2 0x473 JUMPI PUSH2 0x472 PUSH2 0x75D JUMP JUMPDEST JUMPDEST PUSH1 0x20 MUL PUSH1 0x20 ADD ADD MLOAD SWAP1 POP PUSH1 0x0 DUP3 PUSH1 0x0 ADD MLOAD SWAP1 POP PUSH1 0x0 DUP3 PUSH1 0x0 ADD MLOAD SWAP1 POP PUSH1 0x0 DUP2 DUP4 EQ SWAP1 POP PUSH1 0x0 PUSH1 0x2 PUSH1 0x0 ADD SLOAD PUSH1 0x0 DUP1 ADD SLOAD EQ SWAP1 POP DUP2 DUP2 SWAP9 POP SWAP9 POP POP POP POP POP POP POP POP SWAP1 SWAP2 JUMP JUMPDEST PUSH1 0x0 PUSH2 0x4C1 PUSH2 0x586 JUMP JUMPDEST PUSH2 0x4C9 PUSH2 0x586 JUMP JUMPDEST DUP2 SWAP1 POP DUP4 DUP3 PUSH1 0x0 ADD DUP2 DUP2 MSTORE POP POP DUP1 PUSH1 0x0 ADD MLOAD SWAP3 POP POP POP SWAP2 SWAP1 POP JUMP JUMPDEST PUSH1 0x5 PUSH1 0x0 SWAP1 DUP1 PUSH1 0x1 DUP2 SLOAD ADD DUP1 DUP3 SSTORE DUP1 SWAP2 POP POP PUSH1 0x1 SWAP1 SUB SWAP1 PUSH1 0x0 MSTORE PUSH1 0x20 PUSH1 0x0 KECCAK256 ADD PUSH1 0x0 SWAP1 SWAP2 SWAP1 SWAP2 SWAP1 SWAP2 POP SSTORE PUSH1 0x5 PUSH1 0x1 SWAP1 DUP1 PUSH1 0x1 DUP2 SLOAD ADD DUP1 DUP3 SSTORE DUP1 SWAP2 POP POP PUSH1 0x1 SWAP1 SUB SWAP1 PUSH1 0x0 MSTORE PUSH1 0x20 PUSH1 0x0 KECCAK256 ADD PUSH1 0x0 SWAP1 SWAP2 SWAP1 SWAP2 SWAP1 SWAP2 POP SSTORE JUMP JUMPDEST PUSH1 0x0 PUSH1 0x5 DUP3 DUP2 SLOAD DUP2 LT PUSH2 0x550 JUMPI PUSH2 0x54F PUSH2 0x75D JUMP JUMPDEST JUMPDEST SWAP1 PUSH1 0x0 MSTORE PUSH1 0x20 PUSH1 0x0 KECCAK256 ADD SLOAD SWAP1 POP SWAP2 SWAP1 POP JUMP JUMPDEST PUSH1 0x5 DUP2 DUP2 SLOAD DUP2 LT PUSH2 0x572 JUMPI PUSH1 0x0 DUP1 REVERT JUMPDEST SWAP1 PUSH1 0x0 MSTORE PUSH1 0x20 PUSH1 0x0 KECCAK256 ADD PUSH1 0x0 SWAP2 POP SWAP1 POP SLOAD DUP2 JUMP JUMPDEST PUSH1 0x40 MLOAD DUP1 PUSH1 0x40 ADD PUSH1 0x40 MSTORE DUP1 PUSH1 0x0 DUP2 MSTORE PUSH1 0x20 ADD PUSH1 0x0 ISZERO ISZERO DUP2 MSTORE POP SWAP1 JUMP JUMPDEST PUSH1 0x0 DUP2 SWAP1 POP SWAP2 SWAP1 POP JUMP JUMPDEST PUSH2 0x5B5 DUP2 PUSH2 0x5A2 JUMP JUMPDEST DUP3 MSTORE POP POP JUMP JUMPDEST PUSH1 0x0 PUSH1 0x20 DUP3 ADD SWAP1 POP PUSH2 0x5D0 PUSH1 0x0 DUP4 ADD DUP5 PUSH2 0x5AC JUMP JUMPDEST SWAP3 SWAP2 POP POP JUMP JUMPDEST PUSH1 0x0 DUP1 REVERT JUMPDEST PUSH1 0x0 DUP2 SWAP1 POP SWAP2 SWAP1 POP JUMP JUMPDEST PUSH2 0x5EE DUP2 PUSH2 0x5DB JUMP JUMPDEST DUP2 EQ PUSH2 0x5F9 JUMPI PUSH1 0x0 DUP1 REVERT JUMPDEST POP JUMP JUMPDEST PUSH1 0x0 DUP2 CALLDATALOAD SWAP1 POP PUSH2 0x60B DUP2 PUSH2 0x5E5 JUMP JUMPDEST SWAP3 SWAP2 POP POP JUMP JUMPDEST PUSH1 0x0 PUSH1 0x20 DUP3 DUP5 SUB SLT ISZERO PUSH2 0x627 JUMPI PUSH2 0x626 PUSH2 0x5D6 JUMP JUMPDEST JUMPDEST PUSH1 0x0 PUSH2 0x635 DUP5 DUP3 DUP6 ADD PUSH2 0x5FC JUMP JUMPDEST SWAP2 POP POP SWAP3 SWAP2 POP POP JUMP JUMPDEST PUSH2 0x647 DUP2 PUSH2 0x5DB JUMP JUMPDEST DUP3 MSTORE POP POP JUMP JUMPDEST PUSH1 0x0 PUSH1 0x20 DUP3 ADD SWAP1 POP PUSH2 0x662 PUSH1 0x0 DUP4 ADD DUP5 PUSH2 0x63E JUMP JUMPDEST SWAP3 SWAP2 POP POP JUMP JUMPDEST PUSH1 0x0 PUSH1 0x40 DUP3 ADD SWAP1 POP PUSH2 0x67D PUSH1 0x0 DUP4 ADD DUP6 PUSH2 0x63E JUMP JUMPDEST PUSH2 0x68A PUSH1 0x20 DUP4 ADD DUP5 PUSH2 0x63E JUMP JUMPDEST SWAP4 SWAP3 POP POP POP JUMP JUMPDEST PUSH1 0x0 DUP2 ISZERO ISZERO SWAP1 POP SWAP2 SWAP1 POP JUMP JUMPDEST PUSH2 0x6A6 DUP2 PUSH2 0x691 JUMP JUMPDEST DUP3 MSTORE POP POP JUMP JUMPDEST PUSH1 0x0 PUSH1 0x40 DUP3 ADD SWAP1 POP PUSH2 0x6C1 PUSH1 0x0 DUP4 ADD DUP6 PUSH2 0x69D JUMP JUMPDEST PUSH2 0x6CE PUSH1 0x20 DUP4 ADD DUP5 PUSH2 0x69D JUMP JUMPDEST SWAP4 SWAP3 POP POP POP JUMP JUMPDEST PUSH2 0x6DE DUP2 PUSH2 0x5A2 JUMP JUMPDEST DUP2 EQ PUSH2 0x6E9 JUMPI PUSH1 0x0 DUP1 REVERT JUMPDEST POP JUMP JUMPDEST PUSH1 0x0 DUP2 CALLDATALOAD SWAP1 POP PUSH2 0x6FB DUP2 PUSH2 0x6D5 JUMP JUMPDEST SWAP3 SWAP2 POP POP JUMP JUMPDEST PUSH1 0x0 PUSH1 0x20 DUP3 DUP5 SUB SLT ISZERO PUSH2 0x717 JUMPI PUSH2 0x716 PUSH2 0x5D6 JUMP JUMPDEST JUMPDEST PUSH1 0x0 PUSH2 0x725 DUP5 DUP3 DUP6 ADD PUSH2 0x6EC JUMP JUMPDEST SWAP2 POP POP SWAP3 SWAP2 POP POP JUMP JUMPDEST PUSH32 0x4E487B7100000000000000000000000000000000000000000000000000000000 PUSH1 0x0 MSTORE PUSH1 0x41 PUSH1 0x4 MSTORE PUSH1 0x24 PUSH1 0x0 REVERT JUMPDEST PUSH32 0x4E487B7100000000000000000000000000000000000000000000000000000000 PUSH1 0x0 MSTORE PUSH1 0x32 PUSH1 0x4 MSTORE PUSH1 0x24 PUSH1 0x0 REVERT INVALID LOG2 PUSH5 0x6970667358 0x22 SLT KECCAK256 0xCF 0x2C 0x21 POP BLOCKHASH 0xD5 TIMESTAMP 0xF9 0xBE BYTE 0x4C 0xD0 0xE7 DUP1 OR 0x4A LOG3 0xC5 SWAP2 0xCB 0xD0 NUMBER 0x26 PUSH29 0x4BDD96F6CED2217864736F6C63430008120033A2646970667358221220 NOT CODECOPY SUB CHAINID 0xEA 0xB5 POP SSTORE SELFBALANCE 0xBA PUSH14 0xA1CC87266F289C238B9C5A54C7DA 0xD4 0x49 BALANCE 0x23 SDIV PUSH17 0xDE64736F6C634300081200330000000000 "
		},
		"gasEstimates": {
			"creation": {
				"codeDepositCost": "2370000",
				"executionCost": "2545",
				"totalCost": "2372545"
			},
			"external": {
				"testArray()": "infinite",
				"testDynamicMatrix()": "infinite",
				"testDynamicVec()": "infinite",
				"testMatrixCopy()": "infinite",
				"testMatrixDefaultValue()": "infinite",
				"testMatrixRowCopy()": "infinite",
				"testShallowStruct()": "infinite",
				"testStorage()": "infinite",
				"testStorageFixedMatrix()": "infinite",
				"testStorageMatrix()": "infinite",
				"testUsingArrayStorage()": "infinite"
			}
		},
		"methodIdentifiers": {
			"testArray()": "2283bffd",
			"testDynamicMatrix()": "b1a37f3f",
			"testDynamicVec()": "f4c419c7",
			"testMatrixCopy()": "ccf6d864",
			"testMatrixDefaultValue()": "6e876938",
			"testMatrixRowCopy()": "7dee06cb",
			"testShallowStruct()": "6edbe921",
			"testStorage()": "a02649f1",
			"testStorageFixedMatrix()": "183a864c",
			"testStorageMatrix()": "ddc3012a",
			"testUsingArrayStorage()": "729d4994"
		}
	},
	"abi": [
		{
			"inputs": [],
			"name": "testArray",
			"outputs": [],
			"stateMutability": "nonpayable",
			"type": "function"
		},
		{
			"inputs": [],
			"name": "testDynamicMatrix",
			"outputs": [],
			"stateMutability": "nonpayable",
			"type": "function"
		},
		{
			"inputs": [],
			"name": "testDynamicVec",
			"outputs": [],
			"stateMutability": "nonpayable",
			"type": "function"
		},
		{
			"inputs": [],
			"name": "testMatrixCopy",
			"outputs": [],
			"stateMutability": "nonpayable",
			"type": "function"
		},
		{
			"inputs": [],
			"name": "testMatrixDefaultValue",
			"outputs": [],
			"stateMutability": "nonpayable",
			"type": "function"
		},
		{
			"inputs": [],
			"name": "testMatrixRowCopy",
			"outputs": [],
			"stateMutability": "nonpayable",
			"type": "function"
		},
		{
			"inputs": [],
			"name": "testShallowStruct",
			"outputs": [],
			"stateMutability": "nonpayable",
			"type": "function"
		},
		{
			"inputs": [],
			"name": "testStorage",
			"outputs": [],
			"stateMutability": "nonpayable",
			"type": "function"
		},
		{
			"inputs": [],
			"name": "testStorageFixedMatrix",
			"outputs": [],
			"stateMutability": "nonpayable",
			"type": "function"
		},
		{
			"inputs": [],
			"name": "testStorageMatrix",
			"outputs": [],
			"stateMutability": "nonpayable",
			"type": "function"
		},
		{
			"inputs": [],
			"name": "testUsingArrayStorage",
			"outputs": [],
			"stateMutability": "nonpayable",
			"type": "function"
		}
	]
}