{
	"data": {
		"bytecode": {
			"linkReferences": {
				"remix_tests.sol": {
					"Assert": [
						{
							"length": 20,
							"start": 262
						},
						{
							"length": 20,
							"start": 518
						},
						{
							"length": 20,
							"start": 767
						},
						{
							"length": 20,
							"start": 891
						}
					]
				}
			},
			"object": "608060405234801561001057600080fd5b50610842806100206000396000f3fe608060405234801561001057600080fd5b50600436106100415760003560e01c80632283bffd146100465780636edbe92114610050578063a02649f11461005a575b600080fd5b61004e610064565b005b610058610164565b005b610062610264565b005b6000808173ffffffffffffffffffffffffffffffffffffffff166329f5debf60016040518263ffffffff1660e01b81526004016100a19190610429565b602060405180830381865afa1580156100be573d6000803e3d6000fd5b505050506040513d601f19601f820116820180604052508101906100e29190610475565b905073__$acbfb1c35000d78352310b16a054a6b106$__63f5bae6b68260016040518363ffffffff1660e01b815260040161011e92919061051d565b602060405180830381865af415801561013b573d6000803e3d6000fd5b505050506040513d601f19601f8201168201806040525081019061015f9190610591565b505050565b6000808173ffffffffffffffffffffffffffffffffffffffff16636d9953d160016040518263ffffffff1660e01b81526004016101a19190610429565b602060405180830381865afa1580156101be573d6000803e3d6000fd5b505050506040513d601f19601f820116820180604052508101906101e29190610475565b905073__$acbfb1c35000d78352310b16a054a6b106$__63f5bae6b68260016040518363ffffffff1660e01b815260040161021e92919061060a565b602060405180830381865af415801561023b573d6000803e3d6000fd5b505050506040513d601f19601f8201168201806040525081019061025f9190610591565b505050565b60008060008273ffffffffffffffffffffffffffffffffffffffff16634ade209d6040518163ffffffff1660e01b815260040160408051808303816000875af11580156102b5573d6000803e3d6000fd5b505050506040513d601f19601f820116820180604052508101906102d99190610646565b9150915073__$acbfb1c35000d78352310b16a054a6b106$__63f5bae6b68360006040518363ffffffff1660e01b815260040161031792919061070d565b602060405180830381865af4158015610334573d6000803e3d6000fd5b505050506040513d601f19601f820116820180604052508101906103589190610591565b5073__$acbfb1c35000d78352310b16a054a6b106$__63f5bae6b68260026040518363ffffffff1660e01b81526004016103939291906107d0565b602060405180830381865af41580156103b0573d6000803e3d6000fd5b505050506040513d601f19601f820116820180604052508101906103d49190610591565b50505050565b6000819050919050565b6000819050919050565b6000819050919050565b600061041361040e610409846103da565b6103ee565b6103e4565b9050919050565b610423816103f8565b82525050565b600060208201905061043e600083018461041a565b92915050565b600080fd5b610452816103e4565b811461045d57600080fd5b50565b60008151905061046f81610449565b92915050565b60006020828403121561048b5761048a610444565b5b600061049984828501610460565b91505092915050565b6104ab816103e4565b82525050565b6104ba816103f8565b82525050565b600082825260208201905092915050565b7f76312073686f756c642062652061207368616c6c6f7720636f70696564000000600082015250565b6000610507601d836104c0565b9150610512826104d1565b602082019050919050565b600060608201905061053260008301856104a2565b61053f60208301846104b1565b8181036040830152610550816104fa565b90509392505050565b60008115159050919050565b61056e81610559565b811461057957600080fd5b50565b60008151905061058b81610565565b92915050565b6000602082840312156105a7576105a6610444565b5b60006105b58482850161057c565b91505092915050565b7f76312073686f756c64206265207368616c6c6f77656420636f70696564000000600082015250565b60006105f4601d836104c0565b91506105ff826105be565b602082019050919050565b600060608201905061061f60008301856104a2565b61062c60208301846104b1565b818103604083015261063d816105e7565b90509392505050565b6000806040838503121561065d5761065c610444565b5b600061066b85828601610460565b925050602061067c85828601610460565b9150509250929050565b6000819050919050565b60006106ab6106a66106a184610686565b6103ee565b6103e4565b9050919050565b6106bb81610690565b82525050565b7f76312073686f756c64206265206465657020636f706965640000000000000000600082015250565b60006106f76018836104c0565b9150610702826106c1565b602082019050919050565b600060608201905061072260008301856104a2565b61072f60208301846106b2565b8181036040830152610740816106ea565b90509392505050565b6000819050919050565b600061076e61076961076484610749565b6103ee565b6103e4565b9050919050565b61077e81610753565b82525050565b7f76322073686f756c64206265206465657020636f706965640000000000000000600082015250565b60006107ba6018836104c0565b91506107c582610784565b602082019050919050565b60006060820190506107e560008301856104a2565b6107f26020830184610775565b8181036040830152610803816107ad565b9050939250505056fea2646970667358221220f28d4318a9dc07932a1f5818005b63488e238c796888cdb2a69758d13609325964736f6c63430008120033",
			"opcodes": "PUSH1 0x80 PUSH1 0x40 MSTORE CALLVALUE DUP1 ISZERO PUSH2 0x10 JUMPI PUSH1 0x0 DUP1 REVERT JUMPDEST POP PUSH2 0x842 DUP1 PUSH2 0x20 PUSH1 0x0 CODECOPY PUSH1 0x0 RETURN INVALID PUSH1 0x80 PUSH1 0x40 MSTORE CALLVALUE DUP1 ISZERO PUSH2 0x10 JUMPI PUSH1 0x0 DUP1 REVERT JUMPDEST POP PUSH1 0x4 CALLDATASIZE LT PUSH2 0x41 JUMPI PUSH1 0x0 CALLDATALOAD PUSH1 0xE0 SHR DUP1 PUSH4 0x2283BFFD EQ PUSH2 0x46 JUMPI DUP1 PUSH4 0x6EDBE921 EQ PUSH2 0x50 JUMPI DUP1 PUSH4 0xA02649F1 EQ PUSH2 0x5A JUMPI JUMPDEST PUSH1 0x0 DUP1 REVERT JUMPDEST PUSH2 0x4E PUSH2 0x64 JUMP JUMPDEST STOP JUMPDEST PUSH2 0x58 PUSH2 0x164 JUMP JUMPDEST STOP JUMPDEST PUSH2 0x62 PUSH2 0x264 JUMP JUMPDEST STOP JUMPDEST PUSH1 0x0 DUP1 DUP2 PUSH20 0xFFFFFFFFFFFFFFFFFFFFFFFFFFFFFFFFFFFFFFFF AND PUSH4 0x29F5DEBF PUSH1 0x1 PUSH1 0x40 MLOAD DUP3 PUSH4 0xFFFFFFFF AND PUSH1 0xE0 SHL DUP2 MSTORE PUSH1 0x4 ADD PUSH2 0xA1 SWAP2 SWAP1 PUSH2 0x429 JUMP JUMPDEST PUSH1 0x20 PUSH1 0x40 MLOAD DUP1 DUP4 SUB DUP2 DUP7 GAS STATICCALL ISZERO DUP1 ISZERO PUSH2 0xBE JUMPI RETURNDATASIZE PUSH1 0x0 DUP1 RETURNDATACOPY RETURNDATASIZE PUSH1 0x0 REVERT JUMPDEST POP POP POP POP PUSH1 0x40 MLOAD RETURNDATASIZE PUSH1 0x1F NOT PUSH1 0x1F DUP3 ADD AND DUP3 ADD DUP1 PUSH1 0x40 MSTORE POP DUP2 ADD SWAP1 PUSH2 0xE2 SWAP2 SWAP1 PUSH2 0x475 JUMP JUMPDEST SWAP1 POP PUSH20 0x0 PUSH4 0xF5BAE6B6 DUP3 PUSH1 0x1 PUSH1 0x40 MLOAD DUP4 PUSH4 0xFFFFFFFF AND PUSH1 0xE0 SHL DUP2 MSTORE PUSH1 0x4 ADD PUSH2 0x11E SWAP3 SWAP2 SWAP1 PUSH2 0x51D JUMP JUMPDEST PUSH1 0x20 PUSH1 0x40 MLOAD DUP1 DUP4 SUB DUP2 DUP7 GAS DELEGATECALL ISZERO DUP1 ISZERO PUSH2 0x13B JUMPI RETURNDATASIZE PUSH1 0x0 DUP1 RETURNDATACOPY RETURNDATASIZE PUSH1 0x0 REVERT JUMPDEST POP POP POP POP PUSH1 0x40 MLOAD RETURNDATASIZE PUSH1 0x1F NOT PUSH1 0x1F DUP3 ADD AND DUP3 ADD DUP1 PUSH1 0x40 MSTORE POP DUP2 ADD SWAP1 PUSH2 0x15F SWAP2 SWAP1 PUSH2 0x591 JUMP JUMPDEST POP POP POP JUMP JUMPDEST PUSH1 0x0 DUP1 DUP2 PUSH20 0xFFFFFFFFFFFFFFFFFFFFFFFFFFFFFFFFFFFFFFFF AND PUSH4 0x6D9953D1 PUSH1 0x1 PUSH1 0x40 MLOAD DUP3 PUSH4 0xFFFFFFFF AND PUSH1 0xE0 SHL DUP2 MSTORE PUSH1 0x4 ADD PUSH2 0x1A1 SWAP2 SWAP1 PUSH2 0x429 JUMP JUMPDEST PUSH1 0x20 PUSH1 0x40 MLOAD DUP1 DUP4 SUB DUP2 DUP7 GAS STATICCALL ISZERO DUP1 ISZERO PUSH2 0x1BE JUMPI RETURNDATASIZE PUSH1 0x0 DUP1 RETURNDATACOPY RETURNDATASIZE PUSH1 0x0 REVERT JUMPDEST POP POP POP POP PUSH1 0x40 MLOAD RETURNDATASIZE PUSH1 0x1F NOT PUSH1 0x1F DUP3 ADD AND DUP3 ADD DUP1 PUSH1 0x40 MSTORE POP DUP2 ADD SWAP1 PUSH2 0x1E2 SWAP2 SWAP1 PUSH2 0x475 JUMP JUMPDEST SWAP1 POP PUSH20 0x0 PUSH4 0xF5BAE6B6 DUP3 PUSH1 0x1 PUSH1 0x40 MLOAD DUP4 PUSH4 0xFFFFFFFF AND PUSH1 0xE0 SHL DUP2 MSTORE PUSH1 0x4 ADD PUSH2 0x21E SWAP3 SWAP2 SWAP1 PUSH2 0x60A JUMP JUMPDEST PUSH1 0x20 PUSH1 0x40 MLOAD DUP1 DUP4 SUB DUP2 DUP7 GAS DELEGATECALL ISZERO DUP1 ISZERO PUSH2 0x23B JUMPI RETURNDATASIZE PUSH1 0x0 DUP1 RETURNDATACOPY RETURNDATASIZE PUSH1 0x0 REVERT JUMPDEST POP POP POP POP PUSH1 0x40 MLOAD RETURNDATASIZE PUSH1 0x1F NOT PUSH1 0x1F DUP3 ADD AND DUP3 ADD DUP1 PUSH1 0x40 MSTORE POP DUP2 ADD SWAP1 PUSH2 0x25F SWAP2 SWAP1 PUSH2 0x591 JUMP JUMPDEST POP POP POP JUMP JUMPDEST PUSH1 0x0 DUP1 PUSH1 0x0 DUP3 PUSH20 0xFFFFFFFFFFFFFFFFFFFFFFFFFFFFFFFFFFFFFFFF AND PUSH4 0x4ADE209D PUSH1 0x40 MLOAD DUP2 PUSH4 0xFFFFFFFF AND PUSH1 0xE0 SHL DUP2 MSTORE PUSH1 0x4 ADD PUSH1 0x40 DUP1 MLOAD DUP1 DUP4 SUB DUP2 PUSH1 0x0 DUP8 GAS CALL ISZERO DUP1 ISZERO PUSH2 0x2B5 JUMPI RETURNDATASIZE PUSH1 0x0 DUP1 RETURNDATACOPY RETURNDATASIZE PUSH1 0x0 REVERT JUMPDEST POP POP POP POP PUSH1 0x40 MLOAD RETURNDATASIZE PUSH1 0x1F NOT PUSH1 0x1F DUP3 ADD AND DUP3 ADD DUP1 PUSH1 0x40 MSTORE POP DUP2 ADD SWAP1 PUSH2 0x2D9 SWAP2 SWAP1 PUSH2 0x646 JUMP JUMPDEST SWAP2 POP SWAP2 POP PUSH20 0x0 PUSH4 0xF5BAE6B6 DUP4 PUSH1 0x0 PUSH1 0x40 MLOAD DUP4 PUSH4 0xFFFFFFFF AND PUSH1 0xE0 SHL DUP2 MSTORE PUSH1 0x4 ADD PUSH2 0x317 SWAP3 SWAP2 SWAP1 PUSH2 0x70D JUMP JUMPDEST PUSH1 0x20 PUSH1 0x40 MLOAD DUP1 DUP4 SUB DUP2 DUP7 GAS DELEGATECALL ISZERO DUP1 ISZERO PUSH2 0x334 JUMPI RETURNDATASIZE PUSH1 0x0 DUP1 RETURNDATACOPY RETURNDATASIZE PUSH1 0x0 REVERT JUMPDEST POP POP POP POP PUSH1 0x40 MLOAD RETURNDATASIZE PUSH1 0x1F NOT PUSH1 0x1F DUP3 ADD AND DUP3 ADD DUP1 PUSH1 0x40 MSTORE POP DUP2 ADD SWAP1 PUSH2 0x358 SWAP2 SWAP1 PUSH2 0x591 JUMP JUMPDEST POP PUSH20 0x0 PUSH4 0xF5BAE6B6 DUP3 PUSH1 0x2 PUSH1 0x40 MLOAD DUP4 PUSH4 0xFFFFFFFF AND PUSH1 0xE0 SHL DUP2 MSTORE PUSH1 0x4 ADD PUSH2 0x393 SWAP3 SWAP2 SWAP1 PUSH2 0x7D0 JUMP JUMPDEST PUSH1 0x20 PUSH1 0x40 MLOAD DUP1 DUP4 SUB DUP2 DUP7 GAS DELEGATECALL ISZERO DUP1 ISZERO PUSH2 0x3B0 JUMPI RETURNDATASIZE PUSH1 0x0 DUP1 RETURNDATACOPY RETURNDATASIZE PUSH1 0x0 REVERT JUMPDEST POP POP POP POP PUSH1 0x40 MLOAD RETURNDATASIZE PUSH1 0x1F NOT PUSH1 0x1F DUP3 ADD AND DUP3 ADD DUP1 PUSH1 0x40 MSTORE POP DUP2 ADD SWAP1 PUSH2 0x3D4 SWAP2 SWAP1 PUSH2 0x591 JUMP JUMPDEST POP POP POP POP JUMP JUMPDEST PUSH1 0x0 DUP2 SWAP1 POP SWAP2 SWAP1 POP JUMP JUMPDEST PUSH1 0x0 DUP2 SWAP1 POP SWAP2 SWAP1 POP JUMP JUMPDEST PUSH1 0x0 DUP2 SWAP1 POP SWAP2 SWAP1 POP JUMP JUMPDEST PUSH1 0x0 PUSH2 0x413 PUSH2 0x40E PUSH2 0x409 DUP5 PUSH2 0x3DA JUMP JUMPDEST PUSH2 0x3EE JUMP JUMPDEST PUSH2 0x3E4 JUMP JUMPDEST SWAP1 POP SWAP2 SWAP1 POP JUMP JUMPDEST PUSH2 0x423 DUP2 PUSH2 0x3F8 JUMP JUMPDEST DUP3 MSTORE POP POP JUMP JUMPDEST PUSH1 0x0 PUSH1 0x20 DUP3 ADD SWAP1 POP PUSH2 0x43E PUSH1 0x0 DUP4 ADD DUP5 PUSH2 0x41A JUMP JUMPDEST SWAP3 SWAP2 POP POP JUMP JUMPDEST PUSH1 0x0 DUP1 REVERT JUMPDEST PUSH2 0x452 DUP2 PUSH2 0x3E4 JUMP JUMPDEST DUP2 EQ PUSH2 0x45D JUMPI PUSH1 0x0 DUP1 REVERT JUMPDEST POP JUMP JUMPDEST PUSH1 0x0 DUP2 MLOAD SWAP1 POP PUSH2 0x46F DUP2 PUSH2 0x449 JUMP JUMPDEST SWAP3 SWAP2 POP POP JUMP JUMPDEST PUSH1 0x0 PUSH1 0x20 DUP3 DUP5 SUB SLT ISZERO PUSH2 0x48B JUMPI PUSH2 0x48A PUSH2 0x444 JUMP JUMPDEST JUMPDEST PUSH1 0x0 PUSH2 0x499 DUP5 DUP3 DUP6 ADD PUSH2 0x460 JUMP JUMPDEST SWAP2 POP POP SWAP3 SWAP2 POP POP JUMP JUMPDEST PUSH2 0x4AB DUP2 PUSH2 0x3E4 JUMP JUMPDEST DUP3 MSTORE POP POP JUMP JUMPDEST PUSH2 0x4BA DUP2 PUSH2 0x3F8 JUMP JUMPDEST DUP3 MSTORE POP POP JUMP JUMPDEST PUSH1 0x0 DUP3 DUP3 MSTORE PUSH1 0x20 DUP3 ADD SWAP1 POP SWAP3 SWAP2 POP POP JUMP JUMPDEST PUSH32 0x76312073686F756C642062652061207368616C6C6F7720636F70696564000000 PUSH1 0x0 DUP3 ADD MSTORE POP JUMP JUMPDEST PUSH1 0x0 PUSH2 0x507 PUSH1 0x1D DUP4 PUSH2 0x4C0 JUMP JUMPDEST SWAP2 POP PUSH2 0x512 DUP3 PUSH2 0x4D1 JUMP JUMPDEST PUSH1 0x20 DUP3 ADD SWAP1 POP SWAP2 SWAP1 POP JUMP JUMPDEST PUSH1 0x0 PUSH1 0x60 DUP3 ADD SWAP1 POP PUSH2 0x532 PUSH1 0x0 DUP4 ADD DUP6 PUSH2 0x4A2 JUMP JUMPDEST PUSH2 0x53F PUSH1 0x20 DUP4 ADD DUP5 PUSH2 0x4B1 JUMP JUMPDEST DUP2 DUP2 SUB PUSH1 0x40 DUP4 ADD MSTORE PUSH2 0x550 DUP2 PUSH2 0x4FA JUMP JUMPDEST SWAP1 POP SWAP4 SWAP3 POP POP POP JUMP JUMPDEST PUSH1 0x0 DUP2 ISZERO ISZERO SWAP1 POP SWAP2 SWAP1 POP JUMP JUMPDEST PUSH2 0x56E DUP2 PUSH2 0x559 JUMP JUMPDEST DUP2 EQ PUSH2 0x579 JUMPI PUSH1 0x0 DUP1 REVERT JUMPDEST POP JUMP JUMPDEST PUSH1 0x0 DUP2 MLOAD SWAP1 POP PUSH2 0x58B DUP2 PUSH2 0x565 JUMP JUMPDEST SWAP3 SWAP2 POP POP JUMP JUMPDEST PUSH1 0x0 PUSH1 0x20 DUP3 DUP5 SUB SLT ISZERO PUSH2 0x5A7 JUMPI PUSH2 0x5A6 PUSH2 0x444 JUMP JUMPDEST JUMPDEST PUSH1 0x0 PUSH2 0x5B5 DUP5 DUP3 DUP6 ADD PUSH2 0x57C JUMP JUMPDEST SWAP2 POP POP SWAP3 SWAP2 POP POP JUMP JUMPDEST PUSH32 0x76312073686F756C64206265207368616C6C6F77656420636F70696564000000 PUSH1 0x0 DUP3 ADD MSTORE POP JUMP JUMPDEST PUSH1 0x0 PUSH2 0x5F4 PUSH1 0x1D DUP4 PUSH2 0x4C0 JUMP JUMPDEST SWAP2 POP PUSH2 0x5FF DUP3 PUSH2 0x5BE JUMP JUMPDEST PUSH1 0x20 DUP3 ADD SWAP1 POP SWAP2 SWAP1 POP JUMP JUMPDEST PUSH1 0x0 PUSH1 0x60 DUP3 ADD SWAP1 POP PUSH2 0x61F PUSH1 0x0 DUP4 ADD DUP6 PUSH2 0x4A2 JUMP JUMPDEST PUSH2 0x62C PUSH1 0x20 DUP4 ADD DUP5 PUSH2 0x4B1 JUMP JUMPDEST DUP2 DUP2 SUB PUSH1 0x40 DUP4 ADD MSTORE PUSH2 0x63D DUP2 PUSH2 0x5E7 JUMP JUMPDEST SWAP1 POP SWAP4 SWAP3 POP POP POP JUMP JUMPDEST PUSH1 0x0 DUP1 PUSH1 0x40 DUP4 DUP6 SUB SLT ISZERO PUSH2 0x65D JUMPI PUSH2 0x65C PUSH2 0x444 JUMP JUMPDEST JUMPDEST PUSH1 0x0 PUSH2 0x66B DUP6 DUP3 DUP7 ADD PUSH2 0x460 JUMP JUMPDEST SWAP3 POP POP PUSH1 0x20 PUSH2 0x67C DUP6 DUP3 DUP7 ADD PUSH2 0x460 JUMP JUMPDEST SWAP2 POP POP SWAP3 POP SWAP3 SWAP1 POP JUMP JUMPDEST PUSH1 0x0 DUP2 SWAP1 POP SWAP2 SWAP1 POP JUMP JUMPDEST PUSH1 0x0 PUSH2 0x6AB PUSH2 0x6A6 PUSH2 0x6A1 DUP5 PUSH2 0x686 JUMP JUMPDEST PUSH2 0x3EE JUMP JUMPDEST PUSH2 0x3E4 JUMP JUMPDEST SWAP1 POP SWAP2 SWAP1 POP JUMP JUMPDEST PUSH2 0x6BB DUP2 PUSH2 0x690 JUMP JUMPDEST DUP3 MSTORE POP POP JUMP JUMPDEST PUSH32 0x76312073686F756C64206265206465657020636F706965640000000000000000 PUSH1 0x0 DUP3 ADD MSTORE POP JUMP JUMPDEST PUSH1 0x0 PUSH2 0x6F7 PUSH1 0x18 DUP4 PUSH2 0x4C0 JUMP JUMPDEST SWAP2 POP PUSH2 0x702 DUP3 PUSH2 0x6C1 JUMP JUMPDEST PUSH1 0x20 DUP3 ADD SWAP1 POP SWAP2 SWAP1 POP JUMP JUMPDEST PUSH1 0x0 PUSH1 0x60 DUP3 ADD SWAP1 POP PUSH2 0x722 PUSH1 0x0 DUP4 ADD DUP6 PUSH2 0x4A2 JUMP JUMPDEST PUSH2 0x72F PUSH1 0x20 DUP4 ADD DUP5 PUSH2 0x6B2 JUMP JUMPDEST DUP2 DUP2 SUB PUSH1 0x40 DUP4 ADD MSTORE PUSH2 0x740 DUP2 PUSH2 0x6EA JUMP JUMPDEST SWAP1 POP SWAP4 SWAP3 POP POP POP JUMP JUMPDEST PUSH1 0x0 DUP2 SWAP1 POP SWAP2 SWAP1 POP JUMP JUMPDEST PUSH1 0x0 PUSH2 0x76E PUSH2 0x769 PUSH2 0x764 DUP5 PUSH2 0x749 JUMP JUMPDEST PUSH2 0x3EE JUMP JUMPDEST PUSH2 0x3E4 JUMP JUMPDEST SWAP1 POP SWAP2 SWAP1 POP JUMP JUMPDEST PUSH2 0x77E DUP2 PUSH2 0x753 JUMP JUMPDEST DUP3 MSTORE POP POP JUMP JUMPDEST PUSH32 0x76322073686F756C64206265206465657020636F706965640000000000000000 PUSH1 0x0 DUP3 ADD MSTORE POP JUMP JUMPDEST PUSH1 0x0 PUSH2 0x7BA PUSH1 0x18 DUP4 PUSH2 0x4C0 JUMP JUMPDEST SWAP2 POP PUSH2 0x7C5 DUP3 PUSH2 0x784 JUMP JUMPDEST PUSH1 0x20 DUP3 ADD SWAP1 POP SWAP2 SWAP1 POP JUMP JUMPDEST PUSH1 0x0 PUSH1 0x60 DUP3 ADD SWAP1 POP PUSH2 0x7E5 PUSH1 0x0 DUP4 ADD DUP6 PUSH2 0x4A2 JUMP JUMPDEST PUSH2 0x7F2 PUSH1 0x20 DUP4 ADD DUP5 PUSH2 0x775 JUMP JUMPDEST DUP2 DUP2 SUB PUSH1 0x40 DUP4 ADD MSTORE PUSH2 0x803 DUP2 PUSH2 0x7AD JUMP JUMPDEST SWAP1 POP SWAP4 SWAP3 POP POP POP JUMP INVALID LOG2 PUSH5 0x6970667358 0x22 SLT KECCAK256 CALLCODE DUP14 NUMBER XOR 0xA9 0xDC SMOD SWAP4 0x2A 0x1F PC XOR STOP JUMPDEST PUSH4 0x488E238C PUSH26 0x6888CDB2A69758D13609325964736F6C63430008120033000000 "
		},
		"gasEstimates": {
			"creation": {
				"codeDepositCost": "422800",
				"executionCost": "461",
				"totalCost": "423261"
			},
			"external": {
				"testArray()": "infinite",
				"testShallowStruct()": "infinite",
				"testStorage()": "infinite"
			}
		},
		"methodIdentifiers": {
			"testArray()": "2283bffd",
			"testShallowStruct()": "6edbe921",
			"testStorage()": "a02649f1"
		}
	},
	"abi": [
		{
			"inputs": [],
			"name": "testArray",
			"outputs": [],
			"stateMutability": "nonpayable",
			"type": "function"
		},
		{
			"inputs": [],
			"name": "testShallowStruct",
			"outputs": [],
			"stateMutability": "nonpayable",
			"type": "function"
		},
		{
			"inputs": [],
			"name": "testStorage",
			"outputs": [],
			"stateMutability": "nonpayable",
			"type": "function"
		}
	]
}