{
	"contracts/storage.sol": {
		"Storage": {
			"abi": [
				{
					"inputs": [],
					"stateMutability": "nonpayable",
					"type": "constructor"
				},
				{
					"inputs": [],
					"name": "isShallow",
					"outputs": [
						{
							"internalType": "int256",
							"name": "",
							"type": "int256"
						}
					],
					"stateMutability": "pure",
					"type": "function"
				},
				{
					"inputs": [],
					"name": "useArray",
					"outputs": [
						{
							"internalType": "bool",
							"name": "",
							"type": "bool"
						},
						{
							"internalType": "bool",
							"name": "",
							"type": "bool"
						}
					],
					"stateMutability": "view",
					"type": "function"
				},
				{
					"inputs": [],
					"name": "usingStorage",
					"outputs": [
						{
							"internalType": "int256",
							"name": "",
							"type": "int256"
						},
						{
							"internalType": "int256",
							"name": "",
							"type": "int256"
						}
					],
					"stateMutability": "nonpayable",
					"type": "function"
				}
			],
			"devdoc": {
				"kind": "dev",
				"methods": {},
				"version": 1
			},
			"evm": {
				"assembly": "    /* \"contracts/storage.sol\":70:1430  contract Storage {... */\n  mstore(0x40, 0x80)\n    /* \"contracts/storage.sol\":190:213  constructor(){... */\n  callvalue\n  dup1\n  iszero\n  tag_1\n  jumpi\n  0x00\n  dup1\n  revert\ntag_1:\n  pop\n    /* \"contracts/storage.sol\":70:1430  contract Storage {... */\n  dataSize(sub_0)\n  dup1\n  dataOffset(sub_0)\n  0x00\n  codecopy\n  0x00\n  return\nstop\n\nsub_0: assembly {\n        /* \"contracts/storage.sol\":70:1430  contract Storage {... */\n      mstore(0x40, 0x80)\n      callvalue\n      dup1\n      iszero\n      tag_1\n      jumpi\n      0x00\n      dup1\n      revert\n    tag_1:\n      pop\n      jumpi(tag_2, lt(calldatasize, 0x04))\n      shr(0xe0, calldataload(0x00))\n      dup1\n      0x4ade209d\n      eq\n      tag_3\n      jumpi\n      dup1\n      0x5cac0e80\n      eq\n      tag_4\n      jumpi\n      dup1\n      0xd67e0818\n      eq\n      tag_5\n      jumpi\n    tag_2:\n      0x00\n      dup1\n      revert\n        /* \"contracts/storage.sol\":1208:1427  function usingStorage() public returns (int, int) {... */\n    tag_3:\n      tag_6\n      tag_7\n      jump\t// in\n    tag_6:\n      mload(0x40)\n      tag_8\n      swap3\n      swap2\n      swap1\n      tag_9\n      jump\t// in\n    tag_8:\n      mload(0x40)\n      dup1\n      swap2\n      sub\n      swap1\n      return\n        /* \"contracts/storage.sol\":221:545  function useArray() public view returns (bool, bool) {... */\n    tag_4:\n      tag_10\n      tag_11\n      jump\t// in\n    tag_10:\n      mload(0x40)\n      tag_12\n      swap3\n      swap2\n      swap1\n      tag_13\n      jump\t// in\n    tag_12:\n      mload(0x40)\n      dup1\n      swap2\n      sub\n      swap1\n      return\n        /* \"contracts/storage.sol\":553:722  function isShallow() public pure returns (int) {... */\n    tag_5:\n      tag_14\n      tag_15\n      jump\t// in\n    tag_14:\n      mload(0x40)\n      tag_16\n      swap2\n      swap1\n      tag_17\n      jump\t// in\n    tag_16:\n      mload(0x40)\n      dup1\n      swap2\n      sub\n      swap1\n      return\n        /* \"contracts/storage.sol\":1208:1427  function usingStorage() public returns (int, int) {... */\n    tag_7:\n        /* \"contracts/storage.sol\":1248:1251  int */\n      0x00\n        /* \"contracts/storage.sol\":1253:1256  int */\n      dup1\n        /* \"contracts/storage.sol\":1269:1271  s5 */\n      0x04\n        /* \"contracts/storage.sol\":1277:1279  s3 */\n      0x00\n        /* \"contracts/storage.sol\":1269:1280  s5.push(s3) */\n      swap1\n      dup1\n      0x01\n      dup2\n      sload\n      add\n      dup1\n      dup3\n      sstore\n      dup1\n      swap2\n      pop\n      pop\n      0x01\n      swap1\n      sub\n      swap1\n      0x00\n      mstore\n      keccak256(0x00, 0x20)\n      swap1\n      0x02\n      mul\n      add\n      0x00\n      swap1\n      swap2\n      swap1\n      swap2\n      swap1\n      swap2\n      pop\n      0x00\n      dup3\n      add\n      sload\n      dup2\n      0x00\n      add\n      sstore\n      0x01\n      dup3\n      add\n      0x00\n      swap1\n      sload\n      swap1\n      0x0100\n      exp\n      swap1\n      div\n      0xff\n      and\n      dup2\n      0x01\n      add\n      exp(0x0100, 0x00)\n      dup2\n      sload\n      dup2\n      0xff\n      mul\n      not\n      and\n      swap1\n      dup4\n      iszero\n      iszero\n      mul\n      or\n      swap1\n      sstore\n      pop\n      pop\n      pop\n        /* \"contracts/storage.sol\":1298:1299  1 */\n      0x01\n        /* \"contracts/storage.sol\":1291:1293  s3 */\n      0x00\n        /* \"contracts/storage.sol\":1291:1295  s3.a */\n      dup1\n      add\n        /* \"contracts/storage.sol\":1291:1299  s3.a = 1 */\n      dup2\n      swap1\n      sstore\n      pop\n        /* \"contracts/storage.sol\":1310:1321  S memory s0 */\n      tag_20\n      tag_21\n      jump\t// in\n    tag_20:\n        /* \"contracts/storage.sol\":1339:1340  2 */\n      0x02\n        /* \"contracts/storage.sol\":1332:1334  s0 */\n      dup2\n        /* \"contracts/storage.sol\":1332:1336  s0.a */\n      0x00\n      add\n        /* \"contracts/storage.sol\":1332:1340  s0.a = 2 */\n      dup2\n      dup2\n      mstore\n      pop\n      pop\n        /* \"contracts/storage.sol\":1351:1353  s5 */\n      0x04\n        /* \"contracts/storage.sol\":1359:1361  s0 */\n      dup2\n        /* \"contracts/storage.sol\":1351:1362  s5.push(s0) */\n      swap1\n      dup1\n      0x01\n      dup2\n      sload\n      add\n      dup1\n      dup3\n      sstore\n      dup1\n      swap2\n      pop\n      pop\n      0x01\n      swap1\n      sub\n      swap1\n      0x00\n      mstore\n      keccak256(0x00, 0x20)\n      swap1\n      0x02\n      mul\n      add\n      0x00\n      swap1\n      swap2\n      swap1\n      swap2\n      swap1\n      swap2\n      pop\n      0x00\n      dup3\n      add\n      mload\n      dup2\n      0x00\n      add\n      sstore\n      0x20\n      dup3\n      add\n      mload\n      dup2\n      0x01\n      add\n      exp(0x0100, 0x00)\n      dup2\n      sload\n      dup2\n      0xff\n      mul\n      not\n      and\n      swap1\n      dup4\n      iszero\n      iszero\n      mul\n      or\n      swap1\n      sstore\n      pop\n      pop\n      pop\n        /* \"contracts/storage.sol\":1380:1381  3 */\n      0x03\n        /* \"contracts/storage.sol\":1373:1375  s0 */\n      dup2\n        /* \"contracts/storage.sol\":1373:1377  s0.a */\n      0x00\n      add\n        /* \"contracts/storage.sol\":1373:1381  s0.a = 3 */\n      dup2\n      dup2\n      mstore\n      pop\n      pop\n        /* \"contracts/storage.sol\":1402:1404  s5 */\n      0x04\n        /* \"contracts/storage.sol\":1405:1406  0 */\n      0x00\n        /* \"contracts/storage.sol\":1402:1407  s5[0] */\n      dup2\n      sload\n      dup2\n      lt\n      tag_23\n      jumpi\n      tag_24\n      tag_25\n      jump\t// in\n    tag_24:\n    tag_23:\n      swap1\n      0x00\n      mstore\n      keccak256(0x00, 0x20)\n      swap1\n      0x02\n      mul\n      add\n        /* \"contracts/storage.sol\":1402:1409  s5[0].a */\n      0x00\n      add\n      sload\n        /* \"contracts/storage.sol\":1411:1413  s5 */\n      0x04\n        /* \"contracts/storage.sol\":1414:1415  1 */\n      0x01\n        /* \"contracts/storage.sol\":1411:1416  s5[1] */\n      dup2\n      sload\n      dup2\n      lt\n      tag_27\n      jumpi\n      tag_28\n      tag_25\n      jump\t// in\n    tag_28:\n    tag_27:\n      swap1\n      0x00\n      mstore\n      keccak256(0x00, 0x20)\n      swap1\n      0x02\n      mul\n      add\n        /* \"contracts/storage.sol\":1411:1418  s5[1].a */\n      0x00\n      add\n      sload\n        /* \"contracts/storage.sol\":1394:1419  return (s5[0].a, s5[1].a) */\n      swap3\n      pop\n      swap3\n      pop\n      pop\n        /* \"contracts/storage.sol\":1208:1427  function usingStorage() public returns (int, int) {... */\n      swap1\n      swap2\n      jump\t// out\n        /* \"contracts/storage.sol\":221:545  function useArray() public view returns (bool, bool) {... */\n    tag_11:\n        /* \"contracts/storage.sol\":262:266  bool */\n      0x00\n        /* \"contracts/storage.sol\":268:272  bool */\n      dup1\n        /* \"contracts/storage.sol\":285:299  S[] memory lst */\n      0x00\n        /* \"contracts/storage.sol\":310:312  10 */\n      0x0a\n        /* \"contracts/storage.sol\":302:313  new S[](10) */\n      0xffffffffffffffff\n      dup2\n      gt\n      iszero\n      tag_31\n      jumpi\n      tag_32\n      tag_33\n      jump\t// in\n    tag_32:\n    tag_31:\n      mload(0x40)\n      swap1\n      dup1\n      dup3\n      mstore\n      dup1\n      0x20\n      mul\n      0x20\n      add\n      dup3\n      add\n      0x40\n      mstore\n      dup1\n      iszero\n      tag_34\n      jumpi\n      dup2\n      0x20\n      add\n    tag_35:\n      tag_36\n      tag_21\n      jump\t// in\n    tag_36:\n      dup2\n      mstore\n      0x20\n      add\n      swap1\n      0x01\n      swap1\n      sub\n      swap1\n      dup2\n      tag_35\n      jumpi\n      swap1\n      pop\n    tag_34:\n      pop\n        /* \"contracts/storage.sol\":285:313  S[] memory lst = new S[](10) */\n      swap1\n      pop\n        /* \"contracts/storage.sol\":324:335  S memory s1 */\n      0x00\n        /* \"contracts/storage.sol\":338:341  lst */\n      dup2\n        /* \"contracts/storage.sol\":342:343  0 */\n      0x00\n        /* \"contracts/storage.sol\":338:344  lst[0] */\n      dup2\n      mload\n      dup2\n      lt\n      tag_37\n      jumpi\n      tag_38\n      tag_25\n      jump\t// in\n    tag_38:\n    tag_37:\n      0x20\n      mul\n      0x20\n      add\n      add\n      mload\n        /* \"contracts/storage.sol\":324:344  S memory s1 = lst[0] */\n      swap1\n      pop\n        /* \"contracts/storage.sol\":355:366  S memory s2 */\n      0x00\n        /* \"contracts/storage.sol\":369:372  lst */\n      dup3\n        /* \"contracts/storage.sol\":373:374  1 */\n      0x01\n        /* \"contracts/storage.sol\":369:375  lst[1] */\n      dup2\n      mload\n      dup2\n      lt\n      tag_39\n      jumpi\n      tag_40\n      tag_25\n      jump\t// in\n    tag_40:\n    tag_39:\n      0x20\n      mul\n      0x20\n      add\n      add\n      mload\n        /* \"contracts/storage.sol\":355:375  S memory s2 = lst[1] */\n      swap1\n      pop\n        /* \"contracts/storage.sol\":386:392  int a1 */\n      0x00\n        /* \"contracts/storage.sol\":395:397  s1 */\n      dup3\n        /* \"contracts/storage.sol\":395:399  s1.a */\n      0x00\n      add\n      mload\n        /* \"contracts/storage.sol\":386:399  int a1 = s1.a */\n      swap1\n      pop\n        /* \"contracts/storage.sol\":410:416  int a2 */\n      0x00\n        /* \"contracts/storage.sol\":419:421  s2 */\n      dup3\n        /* \"contracts/storage.sol\":419:423  s2.a */\n      0x00\n      add\n      mload\n        /* \"contracts/storage.sol\":410:423  int a2 = s2.a */\n      swap1\n      pop\n        /* \"contracts/storage.sol\":444:454  bool ba1a2 */\n      0x00\n        /* \"contracts/storage.sol\":463:465  a2 */\n      dup2\n        /* \"contracts/storage.sol\":457:459  a1 */\n      dup4\n        /* \"contracts/storage.sol\":457:465  a1 == a2 */\n      eq\n        /* \"contracts/storage.sol\":444:465  bool ba1a2 = a1 == a2 */\n      swap1\n      pop\n        /* \"contracts/storage.sol\":476:488  bool outside */\n      0x00\n        /* \"contracts/storage.sol\":499:501  s4 */\n      0x02\n        /* \"contracts/storage.sol\":499:503  s4.a */\n      0x00\n      add\n      sload\n        /* \"contracts/storage.sol\":491:493  s3 */\n      0x00\n        /* \"contracts/storage.sol\":491:495  s3.a */\n      dup1\n      add\n      sload\n        /* \"contracts/storage.sol\":491:503  s3.a == s4.a */\n      eq\n        /* \"contracts/storage.sol\":476:503  bool outside = s3.a == s4.a */\n      swap1\n      pop\n        /* \"contracts/storage.sol\":522:527  ba1a2 */\n      dup2\n        /* \"contracts/storage.sol\":529:536  outside */\n      dup2\n        /* \"contracts/storage.sol\":514:537  return (ba1a2, outside) */\n      swap9\n      pop\n      swap9\n      pop\n      pop\n      pop\n      pop\n      pop\n      pop\n      pop\n      pop\n        /* \"contracts/storage.sol\":221:545  function useArray() public view returns (bool, bool) {... */\n      swap1\n      swap2\n      jump\t// out\n        /* \"contracts/storage.sol\":553:722  function isShallow() public pure returns (int) {... */\n    tag_15:\n        /* \"contracts/storage.sol\":595:598  int */\n      0x00\n        /* \"contracts/storage.sol\":611:625  S[] memory lst */\n      dup1\n        /* \"contracts/storage.sol\":636:638  10 */\n      0x0a\n        /* \"contracts/storage.sol\":628:639  new S[](10) */\n      0xffffffffffffffff\n      dup2\n      gt\n      iszero\n      tag_42\n      jumpi\n      tag_43\n      tag_33\n      jump\t// in\n    tag_43:\n    tag_42:\n      mload(0x40)\n      swap1\n      dup1\n      dup3\n      mstore\n      dup1\n      0x20\n      mul\n      0x20\n      add\n      dup3\n      add\n      0x40\n      mstore\n      dup1\n      iszero\n      tag_44\n      jumpi\n      dup2\n      0x20\n      add\n    tag_45:\n      tag_46\n      tag_21\n      jump\t// in\n    tag_46:\n      dup2\n      mstore\n      0x20\n      add\n      swap1\n      0x01\n      swap1\n      sub\n      swap1\n      dup2\n      tag_45\n      jumpi\n      swap1\n      pop\n    tag_44:\n      pop\n        /* \"contracts/storage.sol\":611:639  S[] memory lst = new S[](10) */\n      swap1\n      pop\n        /* \"contracts/storage.sol\":659:662  lst */\n      dup1\n        /* \"contracts/storage.sol\":663:664  0 */\n      0x00\n        /* \"contracts/storage.sol\":659:665  lst[0] */\n      dup2\n      mload\n      dup2\n      lt\n      tag_47\n      jumpi\n      tag_48\n      tag_25\n      jump\t// in\n    tag_48:\n    tag_47:\n      0x20\n      mul\n      0x20\n      add\n      add\n      mload\n        /* \"contracts/storage.sol\":650:653  lst */\n      dup2\n        /* \"contracts/storage.sol\":654:655  1 */\n      0x01\n        /* \"contracts/storage.sol\":650:656  lst[1] */\n      dup2\n      mload\n      dup2\n      lt\n      tag_49\n      jumpi\n      tag_50\n      tag_25\n      jump\t// in\n    tag_50:\n    tag_49:\n      0x20\n      mul\n      0x20\n      add\n      add\n        /* \"contracts/storage.sol\":650:665  lst[1] = lst[0] */\n      dup2\n      swap1\n      mstore\n      pop\n        /* \"contracts/storage.sol\":687:688  1 */\n      0x01\n        /* \"contracts/storage.sol\":676:679  lst */\n      dup2\n        /* \"contracts/storage.sol\":680:681  0 */\n      0x00\n        /* \"contracts/storage.sol\":676:682  lst[0] */\n      dup2\n      mload\n      dup2\n      lt\n      tag_51\n      jumpi\n      tag_52\n      tag_25\n      jump\t// in\n    tag_52:\n    tag_51:\n      0x20\n      mul\n      0x20\n      add\n      add\n      mload\n        /* \"contracts/storage.sol\":676:684  lst[0].a */\n      0x00\n      add\n        /* \"contracts/storage.sol\":676:688  lst[0].a = 1 */\n      dup2\n      dup2\n      mstore\n      pop\n      pop\n        /* \"contracts/storage.sol\":706:709  lst */\n      dup1\n        /* \"contracts/storage.sol\":710:711  1 */\n      0x01\n        /* \"contracts/storage.sol\":706:712  lst[1] */\n      dup2\n      mload\n      dup2\n      lt\n      tag_53\n      jumpi\n      tag_54\n      tag_25\n      jump\t// in\n    tag_54:\n    tag_53:\n      0x20\n      mul\n      0x20\n      add\n      add\n      mload\n        /* \"contracts/storage.sol\":706:714  lst[1].a */\n      0x00\n      add\n      mload\n        /* \"contracts/storage.sol\":699:714  return lst[1].a */\n      swap2\n      pop\n      pop\n        /* \"contracts/storage.sol\":553:722  function isShallow() public pure returns (int) {... */\n      swap1\n      jump\t// out\n    tag_21:\n      mload(0x40)\n      dup1\n      0x40\n      add\n      0x40\n      mstore\n      dup1\n      0x00\n      dup2\n      mstore\n      0x20\n      add\n      iszero(iszero(0x00))\n      dup2\n      mstore\n      pop\n      swap1\n      jump\t// out\n        /* \"#utility.yul\":7:83   */\n    tag_55:\n        /* \"#utility.yul\":43:50   */\n      0x00\n        /* \"#utility.yul\":72:77   */\n      dup2\n        /* \"#utility.yul\":61:77   */\n      swap1\n      pop\n        /* \"#utility.yul\":7:83   */\n      swap2\n      swap1\n      pop\n      jump\t// out\n        /* \"#utility.yul\":89:204   */\n    tag_56:\n        /* \"#utility.yul\":174:197   */\n      tag_62\n        /* \"#utility.yul\":191:196   */\n      dup2\n        /* \"#utility.yul\":174:197   */\n      tag_55\n      jump\t// in\n    tag_62:\n        /* \"#utility.yul\":169:172   */\n      dup3\n        /* \"#utility.yul\":162:198   */\n      mstore\n        /* \"#utility.yul\":89:204   */\n      pop\n      pop\n      jump\t// out\n        /* \"#utility.yul\":210:534   */\n    tag_9:\n        /* \"#utility.yul\":327:331   */\n      0x00\n        /* \"#utility.yul\":365:367   */\n      0x40\n        /* \"#utility.yul\":354:363   */\n      dup3\n        /* \"#utility.yul\":350:368   */\n      add\n        /* \"#utility.yul\":342:368   */\n      swap1\n      pop\n        /* \"#utility.yul\":378:447   */\n      tag_64\n        /* \"#utility.yul\":444:445   */\n      0x00\n        /* \"#utility.yul\":433:442   */\n      dup4\n        /* \"#utility.yul\":429:446   */\n      add\n        /* \"#utility.yul\":420:426   */\n      dup6\n        /* \"#utility.yul\":378:447   */\n      tag_56\n      jump\t// in\n    tag_64:\n        /* \"#utility.yul\":457:527   */\n      tag_65\n        /* \"#utility.yul\":523:525   */\n      0x20\n        /* \"#utility.yul\":512:521   */\n      dup4\n        /* \"#utility.yul\":508:526   */\n      add\n        /* \"#utility.yul\":499:505   */\n      dup5\n        /* \"#utility.yul\":457:527   */\n      tag_56\n      jump\t// in\n    tag_65:\n        /* \"#utility.yul\":210:534   */\n      swap4\n      swap3\n      pop\n      pop\n      pop\n      jump\t// out\n        /* \"#utility.yul\":540:630   */\n    tag_57:\n        /* \"#utility.yul\":574:581   */\n      0x00\n        /* \"#utility.yul\":617:622   */\n      dup2\n        /* \"#utility.yul\":610:623   */\n      iszero\n        /* \"#utility.yul\":603:624   */\n      iszero\n        /* \"#utility.yul\":592:624   */\n      swap1\n      pop\n        /* \"#utility.yul\":540:630   */\n      swap2\n      swap1\n      pop\n      jump\t// out\n        /* \"#utility.yul\":636:745   */\n    tag_58:\n        /* \"#utility.yul\":717:738   */\n      tag_68\n        /* \"#utility.yul\":732:737   */\n      dup2\n        /* \"#utility.yul\":717:738   */\n      tag_57\n      jump\t// in\n    tag_68:\n        /* \"#utility.yul\":712:715   */\n      dup3\n        /* \"#utility.yul\":705:739   */\n      mstore\n        /* \"#utility.yul\":636:745   */\n      pop\n      pop\n      jump\t// out\n        /* \"#utility.yul\":751:1059   */\n    tag_13:\n        /* \"#utility.yul\":860:864   */\n      0x00\n        /* \"#utility.yul\":898:900   */\n      0x40\n        /* \"#utility.yul\":887:896   */\n      dup3\n        /* \"#utility.yul\":883:901   */\n      add\n        /* \"#utility.yul\":875:901   */\n      swap1\n      pop\n        /* \"#utility.yul\":911:976   */\n      tag_70\n        /* \"#utility.yul\":973:974   */\n      0x00\n        /* \"#utility.yul\":962:971   */\n      dup4\n        /* \"#utility.yul\":958:975   */\n      add\n        /* \"#utility.yul\":949:955   */\n      dup6\n        /* \"#utility.yul\":911:976   */\n      tag_58\n      jump\t// in\n    tag_70:\n        /* \"#utility.yul\":986:1052   */\n      tag_71\n        /* \"#utility.yul\":1048:1050   */\n      0x20\n        /* \"#utility.yul\":1037:1046   */\n      dup4\n        /* \"#utility.yul\":1033:1051   */\n      add\n        /* \"#utility.yul\":1024:1030   */\n      dup5\n        /* \"#utility.yul\":986:1052   */\n      tag_58\n      jump\t// in\n    tag_71:\n        /* \"#utility.yul\":751:1059   */\n      swap4\n      swap3\n      pop\n      pop\n      pop\n      jump\t// out\n        /* \"#utility.yul\":1065:1283   */\n    tag_17:\n        /* \"#utility.yul\":1156:1160   */\n      0x00\n        /* \"#utility.yul\":1194:1196   */\n      0x20\n        /* \"#utility.yul\":1183:1192   */\n      dup3\n        /* \"#utility.yul\":1179:1197   */\n      add\n        /* \"#utility.yul\":1171:1197   */\n      swap1\n      pop\n        /* \"#utility.yul\":1207:1276   */\n      tag_73\n        /* \"#utility.yul\":1273:1274   */\n      0x00\n        /* \"#utility.yul\":1262:1271   */\n      dup4\n        /* \"#utility.yul\":1258:1275   */\n      add\n        /* \"#utility.yul\":1249:1255   */\n      dup5\n        /* \"#utility.yul\":1207:1276   */\n      tag_56\n      jump\t// in\n    tag_73:\n        /* \"#utility.yul\":1065:1283   */\n      swap3\n      swap2\n      pop\n      pop\n      jump\t// out\n        /* \"#utility.yul\":1289:1469   */\n    tag_25:\n        /* \"#utility.yul\":1337:1414   */\n      0x4e487b7100000000000000000000000000000000000000000000000000000000\n        /* \"#utility.yul\":1334:1335   */\n      0x00\n        /* \"#utility.yul\":1327:1415   */\n      mstore\n        /* \"#utility.yul\":1434:1438   */\n      0x32\n        /* \"#utility.yul\":1431:1432   */\n      0x04\n        /* \"#utility.yul\":1424:1439   */\n      mstore\n        /* \"#utility.yul\":1458:1462   */\n      0x24\n        /* \"#utility.yul\":1455:1456   */\n      0x00\n        /* \"#utility.yul\":1448:1463   */\n      revert\n        /* \"#utility.yul\":1475:1655   */\n    tag_33:\n        /* \"#utility.yul\":1523:1600   */\n      0x4e487b7100000000000000000000000000000000000000000000000000000000\n        /* \"#utility.yul\":1520:1521   */\n      0x00\n        /* \"#utility.yul\":1513:1601   */\n      mstore\n        /* \"#utility.yul\":1620:1624   */\n      0x41\n        /* \"#utility.yul\":1617:1618   */\n      0x04\n        /* \"#utility.yul\":1610:1625   */\n      mstore\n        /* \"#utility.yul\":1644:1648   */\n      0x24\n        /* \"#utility.yul\":1641:1642   */\n      0x00\n        /* \"#utility.yul\":1634:1649   */\n      revert\n\n    auxdata: 0xa2646970667358221220df723686366aeeefca962389c0417a86acbabeea8ee721c926d22a4b09b67ead64736f6c63430008120033\n}\n",
				"bytecode": {
					"linkReferences": {},
					"object": "608060405234801561001057600080fd5b506104ea806100206000396000f3fe608060405234801561001057600080fd5b50600436106100415760003560e01c80634ade209d146100465780635cac0e8014610065578063d67e081814610084575b600080fd5b61004e6100a2565b60405161005c9291906103ce565b60405180910390f35b61006d6101e2565b60405161007b929190610412565b60405180910390f35b61008c6102b8565b604051610099919061043b565b60405180910390f35b600080600460009080600181540180825580915050600190039060005260206000209060020201600090919091909150600082015481600001556001820160009054906101000a900460ff168160010160006101000a81548160ff02191690831515021790555050506001600080018190555061011d610399565b600281600001818152505060048190806001815401808255809150506001900390600052602060002090600202016000909190919091506000820151816000015560208201518160010160006101000a81548160ff0219169083151502179055505050600381600001818152505060046000815481106101a05761019f610456565b5b90600052602060002090600202016000015460046001815481106101c7576101c6610456565b5b90600052602060002090600202016000015492509250509091565b6000806000600a67ffffffffffffffff81111561020257610201610485565b5b60405190808252806020026020018201604052801561023b57816020015b610228610399565b8152602001906001900390816102205790505b50905060008160008151811061025457610253610456565b5b6020026020010151905060008260018151811061027457610273610456565b5b602002602001015190506000826000015190506000826000015190506000818314905060006002600001546000800154149050818198509850505050505050509091565b600080600a67ffffffffffffffff8111156102d6576102d5610485565b5b60405190808252806020026020018201604052801561030f57816020015b6102fc610399565b8152602001906001900390816102f45790505b5090508060008151811061032657610325610456565b5b60200260200101518160018151811061034257610341610456565b5b602002602001018190525060018160008151811061036357610362610456565b5b602002602001015160000181815250508060018151811061038757610386610456565b5b60200260200101516000015191505090565b6040518060400160405280600081526020016000151581525090565b6000819050919050565b6103c8816103b5565b82525050565b60006040820190506103e360008301856103bf565b6103f060208301846103bf565b9392505050565b60008115159050919050565b61040c816103f7565b82525050565b60006040820190506104276000830185610403565b6104346020830184610403565b9392505050565b600060208201905061045060008301846103bf565b92915050565b7f4e487b7100000000000000000000000000000000000000000000000000000000600052603260045260246000fd5b7f4e487b7100000000000000000000000000000000000000000000000000000000600052604160045260246000fdfea2646970667358221220df723686366aeeefca962389c0417a86acbabeea8ee721c926d22a4b09b67ead64736f6c63430008120033",
					"opcodes": "PUSH1 0x80 PUSH1 0x40 MSTORE CALLVALUE DUP1 ISZERO PUSH2 0x10 JUMPI PUSH1 0x0 DUP1 REVERT JUMPDEST POP PUSH2 0x4EA DUP1 PUSH2 0x20 PUSH1 0x0 CODECOPY PUSH1 0x0 RETURN INVALID PUSH1 0x80 PUSH1 0x40 MSTORE CALLVALUE DUP1 ISZERO PUSH2 0x10 JUMPI PUSH1 0x0 DUP1 REVERT JUMPDEST POP PUSH1 0x4 CALLDATASIZE LT PUSH2 0x41 JUMPI PUSH1 0x0 CALLDATALOAD PUSH1 0xE0 SHR DUP1 PUSH4 0x4ADE209D EQ PUSH2 0x46 JUMPI DUP1 PUSH4 0x5CAC0E80 EQ PUSH2 0x65 JUMPI DUP1 PUSH4 0xD67E0818 EQ PUSH2 0x84 JUMPI JUMPDEST PUSH1 0x0 DUP1 REVERT JUMPDEST PUSH2 0x4E PUSH2 0xA2 JUMP JUMPDEST PUSH1 0x40 MLOAD PUSH2 0x5C SWAP3 SWAP2 SWAP1 PUSH2 0x3CE JUMP JUMPDEST PUSH1 0x40 MLOAD DUP1 SWAP2 SUB SWAP1 RETURN JUMPDEST PUSH2 0x6D PUSH2 0x1E2 JUMP JUMPDEST PUSH1 0x40 MLOAD PUSH2 0x7B SWAP3 SWAP2 SWAP1 PUSH2 0x412 JUMP JUMPDEST PUSH1 0x40 MLOAD DUP1 SWAP2 SUB SWAP1 RETURN JUMPDEST PUSH2 0x8C PUSH2 0x2B8 JUMP JUMPDEST PUSH1 0x40 MLOAD PUSH2 0x99 SWAP2 SWAP1 PUSH2 0x43B JUMP JUMPDEST PUSH1 0x40 MLOAD DUP1 SWAP2 SUB SWAP1 RETURN JUMPDEST PUSH1 0x0 DUP1 PUSH1 0x4 PUSH1 0x0 SWAP1 DUP1 PUSH1 0x1 DUP2 SLOAD ADD DUP1 DUP3 SSTORE DUP1 SWAP2 POP POP PUSH1 0x1 SWAP1 SUB SWAP1 PUSH1 0x0 MSTORE PUSH1 0x20 PUSH1 0x0 KECCAK256 SWAP1 PUSH1 0x2 MUL ADD PUSH1 0x0 SWAP1 SWAP2 SWAP1 SWAP2 SWAP1 SWAP2 POP PUSH1 0x0 DUP3 ADD SLOAD DUP2 PUSH1 0x0 ADD SSTORE PUSH1 0x1 DUP3 ADD PUSH1 0x0 SWAP1 SLOAD SWAP1 PUSH2 0x100 EXP SWAP1 DIV PUSH1 0xFF AND DUP2 PUSH1 0x1 ADD PUSH1 0x0 PUSH2 0x100 EXP DUP2 SLOAD DUP2 PUSH1 0xFF MUL NOT AND SWAP1 DUP4 ISZERO ISZERO MUL OR SWAP1 SSTORE POP POP POP PUSH1 0x1 PUSH1 0x0 DUP1 ADD DUP2 SWAP1 SSTORE POP PUSH2 0x11D PUSH2 0x399 JUMP JUMPDEST PUSH1 0x2 DUP2 PUSH1 0x0 ADD DUP2 DUP2 MSTORE POP POP PUSH1 0x4 DUP2 SWAP1 DUP1 PUSH1 0x1 DUP2 SLOAD ADD DUP1 DUP3 SSTORE DUP1 SWAP2 POP POP PUSH1 0x1 SWAP1 SUB SWAP1 PUSH1 0x0 MSTORE PUSH1 0x20 PUSH1 0x0 KECCAK256 SWAP1 PUSH1 0x2 MUL ADD PUSH1 0x0 SWAP1 SWAP2 SWAP1 SWAP2 SWAP1 SWAP2 POP PUSH1 0x0 DUP3 ADD MLOAD DUP2 PUSH1 0x0 ADD SSTORE PUSH1 0x20 DUP3 ADD MLOAD DUP2 PUSH1 0x1 ADD PUSH1 0x0 PUSH2 0x100 EXP DUP2 SLOAD DUP2 PUSH1 0xFF MUL NOT AND SWAP1 DUP4 ISZERO ISZERO MUL OR SWAP1 SSTORE POP POP POP PUSH1 0x3 DUP2 PUSH1 0x0 ADD DUP2 DUP2 MSTORE POP POP PUSH1 0x4 PUSH1 0x0 DUP2 SLOAD DUP2 LT PUSH2 0x1A0 JUMPI PUSH2 0x19F PUSH2 0x456 JUMP JUMPDEST JUMPDEST SWAP1 PUSH1 0x0 MSTORE PUSH1 0x20 PUSH1 0x0 KECCAK256 SWAP1 PUSH1 0x2 MUL ADD PUSH1 0x0 ADD SLOAD PUSH1 0x4 PUSH1 0x1 DUP2 SLOAD DUP2 LT PUSH2 0x1C7 JUMPI PUSH2 0x1C6 PUSH2 0x456 JUMP JUMPDEST JUMPDEST SWAP1 PUSH1 0x0 MSTORE PUSH1 0x20 PUSH1 0x0 KECCAK256 SWAP1 PUSH1 0x2 MUL ADD PUSH1 0x0 ADD SLOAD SWAP3 POP SWAP3 POP POP SWAP1 SWAP2 JUMP JUMPDEST PUSH1 0x0 DUP1 PUSH1 0x0 PUSH1 0xA PUSH8 0xFFFFFFFFFFFFFFFF DUP2 GT ISZERO PUSH2 0x202 JUMPI PUSH2 0x201 PUSH2 0x485 JUMP JUMPDEST JUMPDEST PUSH1 0x40 MLOAD SWAP1 DUP1 DUP3 MSTORE DUP1 PUSH1 0x20 MUL PUSH1 0x20 ADD DUP3 ADD PUSH1 0x40 MSTORE DUP1 ISZERO PUSH2 0x23B JUMPI DUP2 PUSH1 0x20 ADD JUMPDEST PUSH2 0x228 PUSH2 0x399 JUMP JUMPDEST DUP2 MSTORE PUSH1 0x20 ADD SWAP1 PUSH1 0x1 SWAP1 SUB SWAP1 DUP2 PUSH2 0x220 JUMPI SWAP1 POP JUMPDEST POP SWAP1 POP PUSH1 0x0 DUP2 PUSH1 0x0 DUP2 MLOAD DUP2 LT PUSH2 0x254 JUMPI PUSH2 0x253 PUSH2 0x456 JUMP JUMPDEST JUMPDEST PUSH1 0x20 MUL PUSH1 0x20 ADD ADD MLOAD SWAP1 POP PUSH1 0x0 DUP3 PUSH1 0x1 DUP2 MLOAD DUP2 LT PUSH2 0x274 JUMPI PUSH2 0x273 PUSH2 0x456 JUMP JUMPDEST JUMPDEST PUSH1 0x20 MUL PUSH1 0x20 ADD ADD MLOAD SWAP1 POP PUSH1 0x0 DUP3 PUSH1 0x0 ADD MLOAD SWAP1 POP PUSH1 0x0 DUP3 PUSH1 0x0 ADD MLOAD SWAP1 POP PUSH1 0x0 DUP2 DUP4 EQ SWAP1 POP PUSH1 0x0 PUSH1 0x2 PUSH1 0x0 ADD SLOAD PUSH1 0x0 DUP1 ADD SLOAD EQ SWAP1 POP DUP2 DUP2 SWAP9 POP SWAP9 POP POP POP POP POP POP POP POP SWAP1 SWAP2 JUMP JUMPDEST PUSH1 0x0 DUP1 PUSH1 0xA PUSH8 0xFFFFFFFFFFFFFFFF DUP2 GT ISZERO PUSH2 0x2D6 JUMPI PUSH2 0x2D5 PUSH2 0x485 JUMP JUMPDEST JUMPDEST PUSH1 0x40 MLOAD SWAP1 DUP1 DUP3 MSTORE DUP1 PUSH1 0x20 MUL PUSH1 0x20 ADD DUP3 ADD PUSH1 0x40 MSTORE DUP1 ISZERO PUSH2 0x30F JUMPI DUP2 PUSH1 0x20 ADD JUMPDEST PUSH2 0x2FC PUSH2 0x399 JUMP JUMPDEST DUP2 MSTORE PUSH1 0x20 ADD SWAP1 PUSH1 0x1 SWAP1 SUB SWAP1 DUP2 PUSH2 0x2F4 JUMPI SWAP1 POP JUMPDEST POP SWAP1 POP DUP1 PUSH1 0x0 DUP2 MLOAD DUP2 LT PUSH2 0x326 JUMPI PUSH2 0x325 PUSH2 0x456 JUMP JUMPDEST JUMPDEST PUSH1 0x20 MUL PUSH1 0x20 ADD ADD MLOAD DUP2 PUSH1 0x1 DUP2 MLOAD DUP2 LT PUSH2 0x342 JUMPI PUSH2 0x341 PUSH2 0x456 JUMP JUMPDEST JUMPDEST PUSH1 0x20 MUL PUSH1 0x20 ADD ADD DUP2 SWAP1 MSTORE POP PUSH1 0x1 DUP2 PUSH1 0x0 DUP2 MLOAD DUP2 LT PUSH2 0x363 JUMPI PUSH2 0x362 PUSH2 0x456 JUMP JUMPDEST JUMPDEST PUSH1 0x20 MUL PUSH1 0x20 ADD ADD MLOAD PUSH1 0x0 ADD DUP2 DUP2 MSTORE POP POP DUP1 PUSH1 0x1 DUP2 MLOAD DUP2 LT PUSH2 0x387 JUMPI PUSH2 0x386 PUSH2 0x456 JUMP JUMPDEST JUMPDEST PUSH1 0x20 MUL PUSH1 0x20 ADD ADD MLOAD PUSH1 0x0 ADD MLOAD SWAP2 POP POP SWAP1 JUMP JUMPDEST PUSH1 0x40 MLOAD DUP1 PUSH1 0x40 ADD PUSH1 0x40 MSTORE DUP1 PUSH1 0x0 DUP2 MSTORE PUSH1 0x20 ADD PUSH1 0x0 ISZERO ISZERO DUP2 MSTORE POP SWAP1 JUMP JUMPDEST PUSH1 0x0 DUP2 SWAP1 POP SWAP2 SWAP1 POP JUMP JUMPDEST PUSH2 0x3C8 DUP2 PUSH2 0x3B5 JUMP JUMPDEST DUP3 MSTORE POP POP JUMP JUMPDEST PUSH1 0x0 PUSH1 0x40 DUP3 ADD SWAP1 POP PUSH2 0x3E3 PUSH1 0x0 DUP4 ADD DUP6 PUSH2 0x3BF JUMP JUMPDEST PUSH2 0x3F0 PUSH1 0x20 DUP4 ADD DUP5 PUSH2 0x3BF JUMP JUMPDEST SWAP4 SWAP3 POP POP POP JUMP JUMPDEST PUSH1 0x0 DUP2 ISZERO ISZERO SWAP1 POP SWAP2 SWAP1 POP JUMP JUMPDEST PUSH2 0x40C DUP2 PUSH2 0x3F7 JUMP JUMPDEST DUP3 MSTORE POP POP JUMP JUMPDEST PUSH1 0x0 PUSH1 0x40 DUP3 ADD SWAP1 POP PUSH2 0x427 PUSH1 0x0 DUP4 ADD DUP6 PUSH2 0x403 JUMP JUMPDEST PUSH2 0x434 PUSH1 0x20 DUP4 ADD DUP5 PUSH2 0x403 JUMP JUMPDEST SWAP4 SWAP3 POP POP POP JUMP JUMPDEST PUSH1 0x0 PUSH1 0x20 DUP3 ADD SWAP1 POP PUSH2 0x450 PUSH1 0x0 DUP4 ADD DUP5 PUSH2 0x3BF JUMP JUMPDEST SWAP3 SWAP2 POP POP JUMP JUMPDEST PUSH32 0x4E487B7100000000000000000000000000000000000000000000000000000000 PUSH1 0x0 MSTORE PUSH1 0x32 PUSH1 0x4 MSTORE PUSH1 0x24 PUSH1 0x0 REVERT JUMPDEST PUSH32 0x4E487B7100000000000000000000000000000000000000000000000000000000 PUSH1 0x0 MSTORE PUSH1 0x41 PUSH1 0x4 MSTORE PUSH1 0x24 PUSH1 0x0 REVERT INVALID LOG2 PUSH5 0x6970667358 0x22 SLT KECCAK256 0xDF PUSH19 0x3686366AEEEFCA962389C0417A86ACBABEEA8E 0xE7 0x21 0xC9 0x26 0xD2 0x2A 0x4B MULMOD 0xB6 PUSH31 0xAD64736F6C6343000812003300000000000000000000000000000000000000 "
				},
				"gasEstimates": {
					"creation": {
						"codeDepositCost": "251600",
						"executionCost": "294",
						"totalCost": "251894"
					},
					"external": {
						"isShallow()": "infinite",
						"useArray()": "infinite",
						"usingStorage()": "infinite"
					}
				},
				"methodIdentifiers": {
					"isShallow()": "d67e0818",
					"useArray()": "5cac0e80",
					"usingStorage()": "4ade209d"
				}
			},
			"storageLayout": {
				"storage": [
					{
						"astId": 9,
						"contract": "contracts/storage.sol:Storage",
						"label": "s3",
						"offset": 0,
						"slot": "0",
						"type": "t_struct(S)6_storage"
					},
					{
						"astId": 12,
						"contract": "contracts/storage.sol:Storage",
						"label": "s4",
						"offset": 0,
						"slot": "2",
						"type": "t_struct(S)6_storage"
					},
					{
						"astId": 16,
						"contract": "contracts/storage.sol:Storage",
						"label": "s5",
						"offset": 0,
						"slot": "4",
						"type": "t_array(t_struct(S)6_storage)dyn_storage"
					}
				],
				"types": {
					"t_array(t_struct(S)6_storage)dyn_storage": {
						"base": "t_struct(S)6_storage",
						"encoding": "dynamic_array",
						"label": "struct Storage.S[]",
						"numberOfBytes": "32"
					},
					"t_bool": {
						"encoding": "inplace",
						"label": "bool",
						"numberOfBytes": "1"
					},
					"t_int256": {
						"encoding": "inplace",
						"label": "int256",
						"numberOfBytes": "32"
					},
					"t_struct(S)6_storage": {
						"encoding": "inplace",
						"label": "struct Storage.S",
						"members": [
							{
								"astId": 3,
								"contract": "contracts/storage.sol:Storage",
								"label": "a",
								"offset": 0,
								"slot": "0",
								"type": "t_int256"
							},
							{
								"astId": 5,
								"contract": "contracts/storage.sol:Storage",
								"label": "b",
								"offset": 0,
								"slot": "1",
								"type": "t_bool"
							}
						],
						"numberOfBytes": "64"
					}
				}
			},
			"userdoc": {
				"kind": "user",
				"methods": {},
				"version": 1
			}
		}
	}
}