{
	"contracts/storage.sol": {
		"Storage": {
			"abi": [
				{
					"inputs": [],
					"stateMutability": "nonpayable",
					"type": "constructor"
				},
				{
					"inputs": [
						{
							"internalType": "int256",
							"name": "v",
							"type": "int256"
						}
					],
					"name": "copyingStructLocally",
					"outputs": [
						{
							"internalType": "int256",
							"name": "",
							"type": "int256"
						}
					],
					"stateMutability": "pure",
					"type": "function"
				},
				{
					"inputs": [
						{
							"internalType": "int256",
							"name": "val",
							"type": "int256"
						}
					],
					"name": "isShallow",
					"outputs": [
						{
							"internalType": "int256",
							"name": "",
							"type": "int256"
						}
					],
					"stateMutability": "pure",
					"type": "function"
				},
				{
					"inputs": [],
					"name": "useArray",
					"outputs": [
						{
							"internalType": "bool",
							"name": "",
							"type": "bool"
						},
						{
							"internalType": "bool",
							"name": "",
							"type": "bool"
						}
					],
					"stateMutability": "view",
					"type": "function"
				},
				{
					"inputs": [],
					"name": "usingStorage",
					"outputs": [
						{
							"internalType": "int256",
							"name": "",
							"type": "int256"
						},
						{
							"internalType": "int256",
							"name": "",
							"type": "int256"
						}
					],
					"stateMutability": "nonpayable",
					"type": "function"
				}
			],
			"devdoc": {
				"kind": "dev",
				"methods": {},
				"version": 1
			},
			"evm": {
				"assembly": "    /* \"contracts/storage.sol\":70:1625  contract Storage {... */\n  mstore(0x40, 0x80)\n    /* \"contracts/storage.sol\":190:213  constructor(){... */\n  callvalue\n  dup1\n  iszero\n  tag_1\n  jumpi\n  0x00\n  dup1\n  revert\ntag_1:\n  pop\n    /* \"contracts/storage.sol\":70:1625  contract Storage {... */\n  dataSize(sub_0)\n  dup1\n  dataOffset(sub_0)\n  0x00\n  codecopy\n  0x00\n  return\nstop\n\nsub_0: assembly {\n        /* \"contracts/storage.sol\":70:1625  contract Storage {... */\n      mstore(0x40, 0x80)\n      callvalue\n      dup1\n      iszero\n      tag_1\n      jumpi\n      0x00\n      dup1\n      revert\n    tag_1:\n      pop\n      jumpi(tag_2, lt(calldatasize, 0x04))\n      shr(0xe0, calldataload(0x00))\n      dup1\n      0x29f5debf\n      eq\n      tag_3\n      jumpi\n      dup1\n      0x4ade209d\n      eq\n      tag_4\n      jumpi\n      dup1\n      0x5cac0e80\n      eq\n      tag_5\n      jumpi\n      dup1\n      0x6d9953d1\n      eq\n      tag_6\n      jumpi\n    tag_2:\n      0x00\n      dup1\n      revert\n        /* \"contracts/storage.sol\":553:731  function isShallow(int val) public pure returns (int) {... */\n    tag_3:\n      tag_7\n      0x04\n      dup1\n      calldatasize\n      sub\n      dup2\n      add\n      swap1\n      tag_8\n      swap2\n      swap1\n      tag_9\n      jump\t// in\n    tag_8:\n      tag_10\n      jump\t// in\n    tag_7:\n      mload(0x40)\n      tag_11\n      swap2\n      swap1\n      tag_12\n      jump\t// in\n    tag_11:\n      mload(0x40)\n      dup1\n      swap2\n      sub\n      swap1\n      return\n        /* \"contracts/storage.sol\":1217:1436  function usingStorage() public returns (int, int) {... */\n    tag_4:\n      tag_13\n      tag_14\n      jump\t// in\n    tag_13:\n      mload(0x40)\n      tag_15\n      swap3\n      swap2\n      swap1\n      tag_16\n      jump\t// in\n    tag_15:\n      mload(0x40)\n      dup1\n      swap2\n      sub\n      swap1\n      return\n        /* \"contracts/storage.sol\":221:545  function useArray() public view returns (bool, bool) {... */\n    tag_5:\n      tag_17\n      tag_18\n      jump\t// in\n    tag_17:\n      mload(0x40)\n      tag_19\n      swap3\n      swap2\n      swap1\n      tag_20\n      jump\t// in\n    tag_19:\n      mload(0x40)\n      dup1\n      swap2\n      sub\n      swap1\n      return\n        /* \"contracts/storage.sol\":1444:1622  function copyingStructLocally(int v) pure public returns (int) {... */\n    tag_6:\n      tag_21\n      0x04\n      dup1\n      calldatasize\n      sub\n      dup2\n      add\n      swap1\n      tag_22\n      swap2\n      swap1\n      tag_9\n      jump\t// in\n    tag_22:\n      tag_23\n      jump\t// in\n    tag_21:\n      mload(0x40)\n      tag_24\n      swap2\n      swap1\n      tag_12\n      jump\t// in\n    tag_24:\n      mload(0x40)\n      dup1\n      swap2\n      sub\n      swap1\n      return\n        /* \"contracts/storage.sol\":553:731  function isShallow(int val) public pure returns (int) {... */\n    tag_10:\n        /* \"contracts/storage.sol\":602:605  int */\n      0x00\n        /* \"contracts/storage.sol\":618:632  S[] memory lst */\n      dup1\n        /* \"contracts/storage.sol\":643:645  10 */\n      0x0a\n        /* \"contracts/storage.sol\":635:646  new S[](10) */\n      0xffffffffffffffff\n      dup2\n      gt\n      iszero\n      tag_26\n      jumpi\n      tag_27\n      tag_28\n      jump\t// in\n    tag_27:\n    tag_26:\n      mload(0x40)\n      swap1\n      dup1\n      dup3\n      mstore\n      dup1\n      0x20\n      mul\n      0x20\n      add\n      dup3\n      add\n      0x40\n      mstore\n      dup1\n      iszero\n      tag_29\n      jumpi\n      dup2\n      0x20\n      add\n    tag_30:\n      tag_31\n      tag_32\n      jump\t// in\n    tag_31:\n      dup2\n      mstore\n      0x20\n      add\n      swap1\n      0x01\n      swap1\n      sub\n      swap1\n      dup2\n      tag_30\n      jumpi\n      swap1\n      pop\n    tag_29:\n      pop\n        /* \"contracts/storage.sol\":618:646  S[] memory lst = new S[](10) */\n      swap1\n      pop\n        /* \"contracts/storage.sol\":666:669  lst */\n      dup1\n        /* \"contracts/storage.sol\":670:671  0 */\n      0x00\n        /* \"contracts/storage.sol\":666:672  lst[0] */\n      dup2\n      mload\n      dup2\n      lt\n      tag_33\n      jumpi\n      tag_34\n      tag_35\n      jump\t// in\n    tag_34:\n    tag_33:\n      0x20\n      mul\n      0x20\n      add\n      add\n      mload\n        /* \"contracts/storage.sol\":657:660  lst */\n      dup2\n        /* \"contracts/storage.sol\":661:662  1 */\n      0x01\n        /* \"contracts/storage.sol\":657:663  lst[1] */\n      dup2\n      mload\n      dup2\n      lt\n      tag_36\n      jumpi\n      tag_37\n      tag_35\n      jump\t// in\n    tag_37:\n    tag_36:\n      0x20\n      mul\n      0x20\n      add\n      add\n        /* \"contracts/storage.sol\":657:672  lst[1] = lst[0] */\n      dup2\n      swap1\n      mstore\n      pop\n        /* \"contracts/storage.sol\":694:697  val */\n      dup3\n        /* \"contracts/storage.sol\":683:686  lst */\n      dup2\n        /* \"contracts/storage.sol\":687:688  0 */\n      0x00\n        /* \"contracts/storage.sol\":683:689  lst[0] */\n      dup2\n      mload\n      dup2\n      lt\n      tag_38\n      jumpi\n      tag_39\n      tag_35\n      jump\t// in\n    tag_39:\n    tag_38:\n      0x20\n      mul\n      0x20\n      add\n      add\n      mload\n        /* \"contracts/storage.sol\":683:691  lst[0].a */\n      0x00\n      add\n        /* \"contracts/storage.sol\":683:697  lst[0].a = val */\n      dup2\n      dup2\n      mstore\n      pop\n      pop\n        /* \"contracts/storage.sol\":715:718  lst */\n      dup1\n        /* \"contracts/storage.sol\":719:720  1 */\n      0x01\n        /* \"contracts/storage.sol\":715:721  lst[1] */\n      dup2\n      mload\n      dup2\n      lt\n      tag_40\n      jumpi\n      tag_41\n      tag_35\n      jump\t// in\n    tag_41:\n    tag_40:\n      0x20\n      mul\n      0x20\n      add\n      add\n      mload\n        /* \"contracts/storage.sol\":715:723  lst[1].a */\n      0x00\n      add\n      mload\n        /* \"contracts/storage.sol\":708:723  return lst[1].a */\n      swap2\n      pop\n      pop\n        /* \"contracts/storage.sol\":553:731  function isShallow(int val) public pure returns (int) {... */\n      swap2\n      swap1\n      pop\n      jump\t// out\n        /* \"contracts/storage.sol\":1217:1436  function usingStorage() public returns (int, int) {... */\n    tag_14:\n        /* \"contracts/storage.sol\":1257:1260  int */\n      0x00\n        /* \"contracts/storage.sol\":1262:1265  int */\n      dup1\n        /* \"contracts/storage.sol\":1278:1280  s5 */\n      0x04\n        /* \"contracts/storage.sol\":1286:1288  s3 */\n      0x00\n        /* \"contracts/storage.sol\":1278:1289  s5.push(s3) */\n      swap1\n      dup1\n      0x01\n      dup2\n      sload\n      add\n      dup1\n      dup3\n      sstore\n      dup1\n      swap2\n      pop\n      pop\n      0x01\n      swap1\n      sub\n      swap1\n      0x00\n      mstore\n      keccak256(0x00, 0x20)\n      swap1\n      0x02\n      mul\n      add\n      0x00\n      swap1\n      swap2\n      swap1\n      swap2\n      swap1\n      swap2\n      pop\n      0x00\n      dup3\n      add\n      sload\n      dup2\n      0x00\n      add\n      sstore\n      0x01\n      dup3\n      add\n      0x00\n      swap1\n      sload\n      swap1\n      0x0100\n      exp\n      swap1\n      div\n      0xff\n      and\n      dup2\n      0x01\n      add\n      exp(0x0100, 0x00)\n      dup2\n      sload\n      dup2\n      0xff\n      mul\n      not\n      and\n      swap1\n      dup4\n      iszero\n      iszero\n      mul\n      or\n      swap1\n      sstore\n      pop\n      pop\n      pop\n        /* \"contracts/storage.sol\":1307:1308  1 */\n      0x01\n        /* \"contracts/storage.sol\":1300:1302  s3 */\n      0x00\n        /* \"contracts/storage.sol\":1300:1304  s3.a */\n      dup1\n      add\n        /* \"contracts/storage.sol\":1300:1308  s3.a = 1 */\n      dup2\n      swap1\n      sstore\n      pop\n        /* \"contracts/storage.sol\":1319:1330  S memory s0 */\n      tag_44\n      tag_32\n      jump\t// in\n    tag_44:\n        /* \"contracts/storage.sol\":1348:1349  2 */\n      0x02\n        /* \"contracts/storage.sol\":1341:1343  s0 */\n      dup2\n        /* \"contracts/storage.sol\":1341:1345  s0.a */\n      0x00\n      add\n        /* \"contracts/storage.sol\":1341:1349  s0.a = 2 */\n      dup2\n      dup2\n      mstore\n      pop\n      pop\n        /* \"contracts/storage.sol\":1360:1362  s5 */\n      0x04\n        /* \"contracts/storage.sol\":1368:1370  s0 */\n      dup2\n        /* \"contracts/storage.sol\":1360:1371  s5.push(s0) */\n      swap1\n      dup1\n      0x01\n      dup2\n      sload\n      add\n      dup1\n      dup3\n      sstore\n      dup1\n      swap2\n      pop\n      pop\n      0x01\n      swap1\n      sub\n      swap1\n      0x00\n      mstore\n      keccak256(0x00, 0x20)\n      swap1\n      0x02\n      mul\n      add\n      0x00\n      swap1\n      swap2\n      swap1\n      swap2\n      swap1\n      swap2\n      pop\n      0x00\n      dup3\n      add\n      mload\n      dup2\n      0x00\n      add\n      sstore\n      0x20\n      dup3\n      add\n      mload\n      dup2\n      0x01\n      add\n      exp(0x0100, 0x00)\n      dup2\n      sload\n      dup2\n      0xff\n      mul\n      not\n      and\n      swap1\n      dup4\n      iszero\n      iszero\n      mul\n      or\n      swap1\n      sstore\n      pop\n      pop\n      pop\n        /* \"contracts/storage.sol\":1389:1390  3 */\n      0x03\n        /* \"contracts/storage.sol\":1382:1384  s0 */\n      dup2\n        /* \"contracts/storage.sol\":1382:1386  s0.a */\n      0x00\n      add\n        /* \"contracts/storage.sol\":1382:1390  s0.a = 3 */\n      dup2\n      dup2\n      mstore\n      pop\n      pop\n        /* \"contracts/storage.sol\":1411:1413  s5 */\n      0x04\n        /* \"contracts/storage.sol\":1414:1415  0 */\n      0x00\n        /* \"contracts/storage.sol\":1411:1416  s5[0] */\n      dup2\n      sload\n      dup2\n      lt\n      tag_46\n      jumpi\n      tag_47\n      tag_35\n      jump\t// in\n    tag_47:\n    tag_46:\n      swap1\n      0x00\n      mstore\n      keccak256(0x00, 0x20)\n      swap1\n      0x02\n      mul\n      add\n        /* \"contracts/storage.sol\":1411:1418  s5[0].a */\n      0x00\n      add\n      sload\n        /* \"contracts/storage.sol\":1420:1422  s5 */\n      0x04\n        /* \"contracts/storage.sol\":1423:1424  1 */\n      0x01\n        /* \"contracts/storage.sol\":1420:1425  s5[1] */\n      dup2\n      sload\n      dup2\n      lt\n      tag_49\n      jumpi\n      tag_50\n      tag_35\n      jump\t// in\n    tag_50:\n    tag_49:\n      swap1\n      0x00\n      mstore\n      keccak256(0x00, 0x20)\n      swap1\n      0x02\n      mul\n      add\n        /* \"contracts/storage.sol\":1420:1427  s5[1].a */\n      0x00\n      add\n      sload\n        /* \"contracts/storage.sol\":1403:1428  return (s5[0].a, s5[1].a) */\n      swap3\n      pop\n      swap3\n      pop\n      pop\n        /* \"contracts/storage.sol\":1217:1436  function usingStorage() public returns (int, int) {... */\n      swap1\n      swap2\n      jump\t// out\n        /* \"contracts/storage.sol\":221:545  function useArray() public view returns (bool, bool) {... */\n    tag_18:\n        /* \"contracts/storage.sol\":262:266  bool */\n      0x00\n        /* \"contracts/storage.sol\":268:272  bool */\n      dup1\n        /* \"contracts/storage.sol\":285:299  S[] memory lst */\n      0x00\n        /* \"contracts/storage.sol\":310:312  10 */\n      0x0a\n        /* \"contracts/storage.sol\":302:313  new S[](10) */\n      0xffffffffffffffff\n      dup2\n      gt\n      iszero\n      tag_53\n      jumpi\n      tag_54\n      tag_28\n      jump\t// in\n    tag_54:\n    tag_53:\n      mload(0x40)\n      swap1\n      dup1\n      dup3\n      mstore\n      dup1\n      0x20\n      mul\n      0x20\n      add\n      dup3\n      add\n      0x40\n      mstore\n      dup1\n      iszero\n      tag_55\n      jumpi\n      dup2\n      0x20\n      add\n    tag_56:\n      tag_57\n      tag_32\n      jump\t// in\n    tag_57:\n      dup2\n      mstore\n      0x20\n      add\n      swap1\n      0x01\n      swap1\n      sub\n      swap1\n      dup2\n      tag_56\n      jumpi\n      swap1\n      pop\n    tag_55:\n      pop\n        /* \"contracts/storage.sol\":285:313  S[] memory lst = new S[](10) */\n      swap1\n      pop\n        /* \"contracts/storage.sol\":324:335  S memory s1 */\n      0x00\n        /* \"contracts/storage.sol\":338:341  lst */\n      dup2\n        /* \"contracts/storage.sol\":342:343  0 */\n      0x00\n        /* \"contracts/storage.sol\":338:344  lst[0] */\n      dup2\n      mload\n      dup2\n      lt\n      tag_58\n      jumpi\n      tag_59\n      tag_35\n      jump\t// in\n    tag_59:\n    tag_58:\n      0x20\n      mul\n      0x20\n      add\n      add\n      mload\n        /* \"contracts/storage.sol\":324:344  S memory s1 = lst[0] */\n      swap1\n      pop\n        /* \"contracts/storage.sol\":355:366  S memory s2 */\n      0x00\n        /* \"contracts/storage.sol\":369:372  lst */\n      dup3\n        /* \"contracts/storage.sol\":373:374  1 */\n      0x01\n        /* \"contracts/storage.sol\":369:375  lst[1] */\n      dup2\n      mload\n      dup2\n      lt\n      tag_60\n      jumpi\n      tag_61\n      tag_35\n      jump\t// in\n    tag_61:\n    tag_60:\n      0x20\n      mul\n      0x20\n      add\n      add\n      mload\n        /* \"contracts/storage.sol\":355:375  S memory s2 = lst[1] */\n      swap1\n      pop\n        /* \"contracts/storage.sol\":386:392  int a1 */\n      0x00\n        /* \"contracts/storage.sol\":395:397  s1 */\n      dup3\n        /* \"contracts/storage.sol\":395:399  s1.a */\n      0x00\n      add\n      mload\n        /* \"contracts/storage.sol\":386:399  int a1 = s1.a */\n      swap1\n      pop\n        /* \"contracts/storage.sol\":410:416  int a2 */\n      0x00\n        /* \"contracts/storage.sol\":419:421  s2 */\n      dup3\n        /* \"contracts/storage.sol\":419:423  s2.a */\n      0x00\n      add\n      mload\n        /* \"contracts/storage.sol\":410:423  int a2 = s2.a */\n      swap1\n      pop\n        /* \"contracts/storage.sol\":444:454  bool ba1a2 */\n      0x00\n        /* \"contracts/storage.sol\":463:465  a2 */\n      dup2\n        /* \"contracts/storage.sol\":457:459  a1 */\n      dup4\n        /* \"contracts/storage.sol\":457:465  a1 == a2 */\n      eq\n        /* \"contracts/storage.sol\":444:465  bool ba1a2 = a1 == a2 */\n      swap1\n      pop\n        /* \"contracts/storage.sol\":476:488  bool outside */\n      0x00\n        /* \"contracts/storage.sol\":499:501  s4 */\n      0x02\n        /* \"contracts/storage.sol\":499:503  s4.a */\n      0x00\n      add\n      sload\n        /* \"contracts/storage.sol\":491:493  s3 */\n      0x00\n        /* \"contracts/storage.sol\":491:495  s3.a */\n      dup1\n      add\n      sload\n        /* \"contracts/storage.sol\":491:503  s3.a == s4.a */\n      eq\n        /* \"contracts/storage.sol\":476:503  bool outside = s3.a == s4.a */\n      swap1\n      pop\n        /* \"contracts/storage.sol\":522:527  ba1a2 */\n      dup2\n        /* \"contracts/storage.sol\":529:536  outside */\n      dup2\n        /* \"contracts/storage.sol\":514:537  return (ba1a2, outside) */\n      swap9\n      pop\n      swap9\n      pop\n      pop\n      pop\n      pop\n      pop\n      pop\n      pop\n      pop\n        /* \"contracts/storage.sol\":221:545  function useArray() public view returns (bool, bool) {... */\n      swap1\n      swap2\n      jump\t// out\n        /* \"contracts/storage.sol\":1444:1622  function copyingStructLocally(int v) pure public returns (int) {... */\n    tag_23:\n        /* \"contracts/storage.sol\":1502:1505  int */\n      0x00\n        /* \"contracts/storage.sol\":1518:1529  S memory s0 */\n      tag_63\n      tag_32\n      jump\t// in\n    tag_63:\n        /* \"contracts/storage.sol\":1540:1551  S memory s1 */\n      tag_64\n      tag_32\n      jump\t// in\n    tag_64:\n        /* \"contracts/storage.sol\":1569:1571  s0 */\n      dup2\n        /* \"contracts/storage.sol\":1564:1571  s1 = s0 */\n      swap1\n      pop\n        /* \"contracts/storage.sol\":1589:1590  v */\n      dup4\n        /* \"contracts/storage.sol\":1582:1584  s0 */\n      dup3\n        /* \"contracts/storage.sol\":1582:1586  s0.a */\n      0x00\n      add\n        /* \"contracts/storage.sol\":1582:1590  s0.a = v */\n      dup2\n      dup2\n      mstore\n      pop\n      pop\n        /* \"contracts/storage.sol\":1610:1612  s1 */\n      dup1\n        /* \"contracts/storage.sol\":1610:1614  s1.a */\n      0x00\n      add\n      mload\n        /* \"contracts/storage.sol\":1603:1614  return s1.a */\n      swap3\n      pop\n      pop\n      pop\n        /* \"contracts/storage.sol\":1444:1622  function copyingStructLocally(int v) pure public returns (int) {... */\n      swap2\n      swap1\n      pop\n      jump\t// out\n    tag_32:\n      mload(0x40)\n      dup1\n      0x40\n      add\n      0x40\n      mstore\n      dup1\n      0x00\n      dup2\n      mstore\n      0x20\n      add\n      iszero(iszero(0x00))\n      dup2\n      mstore\n      pop\n      swap1\n      jump\t// out\n        /* \"#utility.yul\":88:205   */\n    tag_66:\n        /* \"#utility.yul\":197:198   */\n      0x00\n        /* \"#utility.yul\":194:195   */\n      dup1\n        /* \"#utility.yul\":187:199   */\n      revert\n        /* \"#utility.yul\":334:410   */\n    tag_68:\n        /* \"#utility.yul\":370:377   */\n      0x00\n        /* \"#utility.yul\":399:404   */\n      dup2\n        /* \"#utility.yul\":388:404   */\n      swap1\n      pop\n        /* \"#utility.yul\":334:410   */\n      swap2\n      swap1\n      pop\n      jump\t// out\n        /* \"#utility.yul\":416:536   */\n    tag_69:\n        /* \"#utility.yul\":488:511   */\n      tag_80\n        /* \"#utility.yul\":505:510   */\n      dup2\n        /* \"#utility.yul\":488:511   */\n      tag_68\n      jump\t// in\n    tag_80:\n        /* \"#utility.yul\":481:486   */\n      dup2\n        /* \"#utility.yul\":478:512   */\n      eq\n        /* \"#utility.yul\":468:530   */\n      tag_81\n      jumpi\n        /* \"#utility.yul\":526:527   */\n      0x00\n        /* \"#utility.yul\":523:524   */\n      dup1\n        /* \"#utility.yul\":516:528   */\n      revert\n        /* \"#utility.yul\":468:530   */\n    tag_81:\n        /* \"#utility.yul\":416:536   */\n      pop\n      jump\t// out\n        /* \"#utility.yul\":542:679   */\n    tag_70:\n        /* \"#utility.yul\":587:592   */\n      0x00\n        /* \"#utility.yul\":625:631   */\n      dup2\n        /* \"#utility.yul\":612:632   */\n      calldataload\n        /* \"#utility.yul\":603:632   */\n      swap1\n      pop\n        /* \"#utility.yul\":641:673   */\n      tag_83\n        /* \"#utility.yul\":667:672   */\n      dup2\n        /* \"#utility.yul\":641:673   */\n      tag_69\n      jump\t// in\n    tag_83:\n        /* \"#utility.yul\":542:679   */\n      swap3\n      swap2\n      pop\n      pop\n      jump\t// out\n        /* \"#utility.yul\":685:1012   */\n    tag_9:\n        /* \"#utility.yul\":743:749   */\n      0x00\n        /* \"#utility.yul\":792:794   */\n      0x20\n        /* \"#utility.yul\":780:789   */\n      dup3\n        /* \"#utility.yul\":771:778   */\n      dup5\n        /* \"#utility.yul\":767:790   */\n      sub\n        /* \"#utility.yul\":763:795   */\n      slt\n        /* \"#utility.yul\":760:879   */\n      iszero\n      tag_85\n      jumpi\n        /* \"#utility.yul\":798:877   */\n      tag_86\n      tag_66\n      jump\t// in\n    tag_86:\n        /* \"#utility.yul\":760:879   */\n    tag_85:\n        /* \"#utility.yul\":918:919   */\n      0x00\n        /* \"#utility.yul\":943:995   */\n      tag_87\n        /* \"#utility.yul\":987:994   */\n      dup5\n        /* \"#utility.yul\":978:984   */\n      dup3\n        /* \"#utility.yul\":967:976   */\n      dup6\n        /* \"#utility.yul\":963:985   */\n      add\n        /* \"#utility.yul\":943:995   */\n      tag_70\n      jump\t// in\n    tag_87:\n        /* \"#utility.yul\":933:995   */\n      swap2\n      pop\n        /* \"#utility.yul\":889:1005   */\n      pop\n        /* \"#utility.yul\":685:1012   */\n      swap3\n      swap2\n      pop\n      pop\n      jump\t// out\n        /* \"#utility.yul\":1018:1133   */\n    tag_71:\n        /* \"#utility.yul\":1103:1126   */\n      tag_89\n        /* \"#utility.yul\":1120:1125   */\n      dup2\n        /* \"#utility.yul\":1103:1126   */\n      tag_68\n      jump\t// in\n    tag_89:\n        /* \"#utility.yul\":1098:1101   */\n      dup3\n        /* \"#utility.yul\":1091:1127   */\n      mstore\n        /* \"#utility.yul\":1018:1133   */\n      pop\n      pop\n      jump\t// out\n        /* \"#utility.yul\":1139:1357   */\n    tag_12:\n        /* \"#utility.yul\":1230:1234   */\n      0x00\n        /* \"#utility.yul\":1268:1270   */\n      0x20\n        /* \"#utility.yul\":1257:1266   */\n      dup3\n        /* \"#utility.yul\":1253:1271   */\n      add\n        /* \"#utility.yul\":1245:1271   */\n      swap1\n      pop\n        /* \"#utility.yul\":1281:1350   */\n      tag_91\n        /* \"#utility.yul\":1347:1348   */\n      0x00\n        /* \"#utility.yul\":1336:1345   */\n      dup4\n        /* \"#utility.yul\":1332:1349   */\n      add\n        /* \"#utility.yul\":1323:1329   */\n      dup5\n        /* \"#utility.yul\":1281:1350   */\n      tag_71\n      jump\t// in\n    tag_91:\n        /* \"#utility.yul\":1139:1357   */\n      swap3\n      swap2\n      pop\n      pop\n      jump\t// out\n        /* \"#utility.yul\":1363:1687   */\n    tag_16:\n        /* \"#utility.yul\":1480:1484   */\n      0x00\n        /* \"#utility.yul\":1518:1520   */\n      0x40\n        /* \"#utility.yul\":1507:1516   */\n      dup3\n        /* \"#utility.yul\":1503:1521   */\n      add\n        /* \"#utility.yul\":1495:1521   */\n      swap1\n      pop\n        /* \"#utility.yul\":1531:1600   */\n      tag_93\n        /* \"#utility.yul\":1597:1598   */\n      0x00\n        /* \"#utility.yul\":1586:1595   */\n      dup4\n        /* \"#utility.yul\":1582:1599   */\n      add\n        /* \"#utility.yul\":1573:1579   */\n      dup6\n        /* \"#utility.yul\":1531:1600   */\n      tag_71\n      jump\t// in\n    tag_93:\n        /* \"#utility.yul\":1610:1680   */\n      tag_94\n        /* \"#utility.yul\":1676:1678   */\n      0x20\n        /* \"#utility.yul\":1665:1674   */\n      dup4\n        /* \"#utility.yul\":1661:1679   */\n      add\n        /* \"#utility.yul\":1652:1658   */\n      dup5\n        /* \"#utility.yul\":1610:1680   */\n      tag_71\n      jump\t// in\n    tag_94:\n        /* \"#utility.yul\":1363:1687   */\n      swap4\n      swap3\n      pop\n      pop\n      pop\n      jump\t// out\n        /* \"#utility.yul\":1693:1783   */\n    tag_72:\n        /* \"#utility.yul\":1727:1734   */\n      0x00\n        /* \"#utility.yul\":1770:1775   */\n      dup2\n        /* \"#utility.yul\":1763:1776   */\n      iszero\n        /* \"#utility.yul\":1756:1777   */\n      iszero\n        /* \"#utility.yul\":1745:1777   */\n      swap1\n      pop\n        /* \"#utility.yul\":1693:1783   */\n      swap2\n      swap1\n      pop\n      jump\t// out\n        /* \"#utility.yul\":1789:1898   */\n    tag_73:\n        /* \"#utility.yul\":1870:1891   */\n      tag_97\n        /* \"#utility.yul\":1885:1890   */\n      dup2\n        /* \"#utility.yul\":1870:1891   */\n      tag_72\n      jump\t// in\n    tag_97:\n        /* \"#utility.yul\":1865:1868   */\n      dup3\n        /* \"#utility.yul\":1858:1892   */\n      mstore\n        /* \"#utility.yul\":1789:1898   */\n      pop\n      pop\n      jump\t// out\n        /* \"#utility.yul\":1904:2212   */\n    tag_20:\n        /* \"#utility.yul\":2013:2017   */\n      0x00\n        /* \"#utility.yul\":2051:2053   */\n      0x40\n        /* \"#utility.yul\":2040:2049   */\n      dup3\n        /* \"#utility.yul\":2036:2054   */\n      add\n        /* \"#utility.yul\":2028:2054   */\n      swap1\n      pop\n        /* \"#utility.yul\":2064:2129   */\n      tag_99\n        /* \"#utility.yul\":2126:2127   */\n      0x00\n        /* \"#utility.yul\":2115:2124   */\n      dup4\n        /* \"#utility.yul\":2111:2128   */\n      add\n        /* \"#utility.yul\":2102:2108   */\n      dup6\n        /* \"#utility.yul\":2064:2129   */\n      tag_73\n      jump\t// in\n    tag_99:\n        /* \"#utility.yul\":2139:2205   */\n      tag_100\n        /* \"#utility.yul\":2201:2203   */\n      0x20\n        /* \"#utility.yul\":2190:2199   */\n      dup4\n        /* \"#utility.yul\":2186:2204   */\n      add\n        /* \"#utility.yul\":2177:2183   */\n      dup5\n        /* \"#utility.yul\":2139:2205   */\n      tag_73\n      jump\t// in\n    tag_100:\n        /* \"#utility.yul\":1904:2212   */\n      swap4\n      swap3\n      pop\n      pop\n      pop\n      jump\t// out\n        /* \"#utility.yul\":2218:2398   */\n    tag_28:\n        /* \"#utility.yul\":2266:2343   */\n      0x4e487b7100000000000000000000000000000000000000000000000000000000\n        /* \"#utility.yul\":2263:2264   */\n      0x00\n        /* \"#utility.yul\":2256:2344   */\n      mstore\n        /* \"#utility.yul\":2363:2367   */\n      0x41\n        /* \"#utility.yul\":2360:2361   */\n      0x04\n        /* \"#utility.yul\":2353:2368   */\n      mstore\n        /* \"#utility.yul\":2387:2391   */\n      0x24\n        /* \"#utility.yul\":2384:2385   */\n      0x00\n        /* \"#utility.yul\":2377:2392   */\n      revert\n        /* \"#utility.yul\":2404:2584   */\n    tag_35:\n        /* \"#utility.yul\":2452:2529   */\n      0x4e487b7100000000000000000000000000000000000000000000000000000000\n        /* \"#utility.yul\":2449:2450   */\n      0x00\n        /* \"#utility.yul\":2442:2530   */\n      mstore\n        /* \"#utility.yul\":2549:2553   */\n      0x32\n        /* \"#utility.yul\":2546:2547   */\n      0x04\n        /* \"#utility.yul\":2539:2554   */\n      mstore\n        /* \"#utility.yul\":2573:2577   */\n      0x24\n        /* \"#utility.yul\":2570:2571   */\n      0x00\n        /* \"#utility.yul\":2563:2578   */\n      revert\n\n    auxdata: 0xa26469706673582212202415618100f33c04b81989a822c1dfb1d5caae8a55d986636ae0ec7585d225ea64736f6c63430008120033\n}\n",
				"bytecode": {
					"linkReferences": {},
					"object": "608060405234801561001057600080fd5b506105c3806100206000396000f3fe608060405234801561001057600080fd5b506004361061004c5760003560e01c806329f5debf146100515780634ade209d146100815780635cac0e80146100a05780636d9953d1146100bf575b600080fd5b61006b6004803603810190610066919061046b565b6100ef565b60405161007891906104a7565b60405180910390f35b6100896101d1565b6040516100979291906104c2565b60405180910390f35b6100a8610311565b6040516100b6929190610506565b60405180910390f35b6100d960048036038101906100d4919061046b565b6103e7565b6040516100e691906104a7565b60405180910390f35b600080600a67ffffffffffffffff81111561010d5761010c61052f565b5b60405190808252806020026020018201604052801561014657816020015b610133610414565b81526020019060019003908161012b5790505b5090508060008151811061015d5761015c61055e565b5b6020026020010151816001815181106101795761017861055e565b5b602002602001018190525082816000815181106101995761019861055e565b5b60200260200101516000018181525050806001815181106101bd576101bc61055e565b5b602002602001015160000151915050919050565b600080600460009080600181540180825580915050600190039060005260206000209060020201600090919091909150600082015481600001556001820160009054906101000a900460ff168160010160006101000a81548160ff02191690831515021790555050506001600080018190555061024c610414565b600281600001818152505060048190806001815401808255809150506001900390600052602060002090600202016000909190919091506000820151816000015560208201518160010160006101000a81548160ff0219169083151502179055505050600381600001818152505060046000815481106102cf576102ce61055e565b5b90600052602060002090600202016000015460046001815481106102f6576102f561055e565b5b90600052602060002090600202016000015492509250509091565b6000806000600a67ffffffffffffffff8111156103315761033061052f565b5b60405190808252806020026020018201604052801561036a57816020015b610357610414565b81526020019060019003908161034f5790505b5090506000816000815181106103835761038261055e565b5b602002602001015190506000826001815181106103a3576103a261055e565b5b602002602001015190506000826000015190506000826000015190506000818314905060006002600001546000800154149050818198509850505050505050509091565b60006103f1610414565b6103f9610414565b81905083826000018181525050806000015192505050919050565b6040518060400160405280600081526020016000151581525090565b600080fd5b6000819050919050565b61044881610435565b811461045357600080fd5b50565b6000813590506104658161043f565b92915050565b60006020828403121561048157610480610430565b5b600061048f84828501610456565b91505092915050565b6104a181610435565b82525050565b60006020820190506104bc6000830184610498565b92915050565b60006040820190506104d76000830185610498565b6104e46020830184610498565b9392505050565b60008115159050919050565b610500816104eb565b82525050565b600060408201905061051b60008301856104f7565b61052860208301846104f7565b9392505050565b7f4e487b7100000000000000000000000000000000000000000000000000000000600052604160045260246000fd5b7f4e487b7100000000000000000000000000000000000000000000000000000000600052603260045260246000fdfea26469706673582212202415618100f33c04b81989a822c1dfb1d5caae8a55d986636ae0ec7585d225ea64736f6c63430008120033",
					"opcodes": "PUSH1 0x80 PUSH1 0x40 MSTORE CALLVALUE DUP1 ISZERO PUSH2 0x10 JUMPI PUSH1 0x0 DUP1 REVERT JUMPDEST POP PUSH2 0x5C3 DUP1 PUSH2 0x20 PUSH1 0x0 CODECOPY PUSH1 0x0 RETURN INVALID PUSH1 0x80 PUSH1 0x40 MSTORE CALLVALUE DUP1 ISZERO PUSH2 0x10 JUMPI PUSH1 0x0 DUP1 REVERT JUMPDEST POP PUSH1 0x4 CALLDATASIZE LT PUSH2 0x4C JUMPI PUSH1 0x0 CALLDATALOAD PUSH1 0xE0 SHR DUP1 PUSH4 0x29F5DEBF EQ PUSH2 0x51 JUMPI DUP1 PUSH4 0x4ADE209D EQ PUSH2 0x81 JUMPI DUP1 PUSH4 0x5CAC0E80 EQ PUSH2 0xA0 JUMPI DUP1 PUSH4 0x6D9953D1 EQ PUSH2 0xBF JUMPI JUMPDEST PUSH1 0x0 DUP1 REVERT JUMPDEST PUSH2 0x6B PUSH1 0x4 DUP1 CALLDATASIZE SUB DUP2 ADD SWAP1 PUSH2 0x66 SWAP2 SWAP1 PUSH2 0x46B JUMP JUMPDEST PUSH2 0xEF JUMP JUMPDEST PUSH1 0x40 MLOAD PUSH2 0x78 SWAP2 SWAP1 PUSH2 0x4A7 JUMP JUMPDEST PUSH1 0x40 MLOAD DUP1 SWAP2 SUB SWAP1 RETURN JUMPDEST PUSH2 0x89 PUSH2 0x1D1 JUMP JUMPDEST PUSH1 0x40 MLOAD PUSH2 0x97 SWAP3 SWAP2 SWAP1 PUSH2 0x4C2 JUMP JUMPDEST PUSH1 0x40 MLOAD DUP1 SWAP2 SUB SWAP1 RETURN JUMPDEST PUSH2 0xA8 PUSH2 0x311 JUMP JUMPDEST PUSH1 0x40 MLOAD PUSH2 0xB6 SWAP3 SWAP2 SWAP1 PUSH2 0x506 JUMP JUMPDEST PUSH1 0x40 MLOAD DUP1 SWAP2 SUB SWAP1 RETURN JUMPDEST PUSH2 0xD9 PUSH1 0x4 DUP1 CALLDATASIZE SUB DUP2 ADD SWAP1 PUSH2 0xD4 SWAP2 SWAP1 PUSH2 0x46B JUMP JUMPDEST PUSH2 0x3E7 JUMP JUMPDEST PUSH1 0x40 MLOAD PUSH2 0xE6 SWAP2 SWAP1 PUSH2 0x4A7 JUMP JUMPDEST PUSH1 0x40 MLOAD DUP1 SWAP2 SUB SWAP1 RETURN JUMPDEST PUSH1 0x0 DUP1 PUSH1 0xA PUSH8 0xFFFFFFFFFFFFFFFF DUP2 GT ISZERO PUSH2 0x10D JUMPI PUSH2 0x10C PUSH2 0x52F JUMP JUMPDEST JUMPDEST PUSH1 0x40 MLOAD SWAP1 DUP1 DUP3 MSTORE DUP1 PUSH1 0x20 MUL PUSH1 0x20 ADD DUP3 ADD PUSH1 0x40 MSTORE DUP1 ISZERO PUSH2 0x146 JUMPI DUP2 PUSH1 0x20 ADD JUMPDEST PUSH2 0x133 PUSH2 0x414 JUMP JUMPDEST DUP2 MSTORE PUSH1 0x20 ADD SWAP1 PUSH1 0x1 SWAP1 SUB SWAP1 DUP2 PUSH2 0x12B JUMPI SWAP1 POP JUMPDEST POP SWAP1 POP DUP1 PUSH1 0x0 DUP2 MLOAD DUP2 LT PUSH2 0x15D JUMPI PUSH2 0x15C PUSH2 0x55E JUMP JUMPDEST JUMPDEST PUSH1 0x20 MUL PUSH1 0x20 ADD ADD MLOAD DUP2 PUSH1 0x1 DUP2 MLOAD DUP2 LT PUSH2 0x179 JUMPI PUSH2 0x178 PUSH2 0x55E JUMP JUMPDEST JUMPDEST PUSH1 0x20 MUL PUSH1 0x20 ADD ADD DUP2 SWAP1 MSTORE POP DUP3 DUP2 PUSH1 0x0 DUP2 MLOAD DUP2 LT PUSH2 0x199 JUMPI PUSH2 0x198 PUSH2 0x55E JUMP JUMPDEST JUMPDEST PUSH1 0x20 MUL PUSH1 0x20 ADD ADD MLOAD PUSH1 0x0 ADD DUP2 DUP2 MSTORE POP POP DUP1 PUSH1 0x1 DUP2 MLOAD DUP2 LT PUSH2 0x1BD JUMPI PUSH2 0x1BC PUSH2 0x55E JUMP JUMPDEST JUMPDEST PUSH1 0x20 MUL PUSH1 0x20 ADD ADD MLOAD PUSH1 0x0 ADD MLOAD SWAP2 POP POP SWAP2 SWAP1 POP JUMP JUMPDEST PUSH1 0x0 DUP1 PUSH1 0x4 PUSH1 0x0 SWAP1 DUP1 PUSH1 0x1 DUP2 SLOAD ADD DUP1 DUP3 SSTORE DUP1 SWAP2 POP POP PUSH1 0x1 SWAP1 SUB SWAP1 PUSH1 0x0 MSTORE PUSH1 0x20 PUSH1 0x0 KECCAK256 SWAP1 PUSH1 0x2 MUL ADD PUSH1 0x0 SWAP1 SWAP2 SWAP1 SWAP2 SWAP1 SWAP2 POP PUSH1 0x0 DUP3 ADD SLOAD DUP2 PUSH1 0x0 ADD SSTORE PUSH1 0x1 DUP3 ADD PUSH1 0x0 SWAP1 SLOAD SWAP1 PUSH2 0x100 EXP SWAP1 DIV PUSH1 0xFF AND DUP2 PUSH1 0x1 ADD PUSH1 0x0 PUSH2 0x100 EXP DUP2 SLOAD DUP2 PUSH1 0xFF MUL NOT AND SWAP1 DUP4 ISZERO ISZERO MUL OR SWAP1 SSTORE POP POP POP PUSH1 0x1 PUSH1 0x0 DUP1 ADD DUP2 SWAP1 SSTORE POP PUSH2 0x24C PUSH2 0x414 JUMP JUMPDEST PUSH1 0x2 DUP2 PUSH1 0x0 ADD DUP2 DUP2 MSTORE POP POP PUSH1 0x4 DUP2 SWAP1 DUP1 PUSH1 0x1 DUP2 SLOAD ADD DUP1 DUP3 SSTORE DUP1 SWAP2 POP POP PUSH1 0x1 SWAP1 SUB SWAP1 PUSH1 0x0 MSTORE PUSH1 0x20 PUSH1 0x0 KECCAK256 SWAP1 PUSH1 0x2 MUL ADD PUSH1 0x0 SWAP1 SWAP2 SWAP1 SWAP2 SWAP1 SWAP2 POP PUSH1 0x0 DUP3 ADD MLOAD DUP2 PUSH1 0x0 ADD SSTORE PUSH1 0x20 DUP3 ADD MLOAD DUP2 PUSH1 0x1 ADD PUSH1 0x0 PUSH2 0x100 EXP DUP2 SLOAD DUP2 PUSH1 0xFF MUL NOT AND SWAP1 DUP4 ISZERO ISZERO MUL OR SWAP1 SSTORE POP POP POP PUSH1 0x3 DUP2 PUSH1 0x0 ADD DUP2 DUP2 MSTORE POP POP PUSH1 0x4 PUSH1 0x0 DUP2 SLOAD DUP2 LT PUSH2 0x2CF JUMPI PUSH2 0x2CE PUSH2 0x55E JUMP JUMPDEST JUMPDEST SWAP1 PUSH1 0x0 MSTORE PUSH1 0x20 PUSH1 0x0 KECCAK256 SWAP1 PUSH1 0x2 MUL ADD PUSH1 0x0 ADD SLOAD PUSH1 0x4 PUSH1 0x1 DUP2 SLOAD DUP2 LT PUSH2 0x2F6 JUMPI PUSH2 0x2F5 PUSH2 0x55E JUMP JUMPDEST JUMPDEST SWAP1 PUSH1 0x0 MSTORE PUSH1 0x20 PUSH1 0x0 KECCAK256 SWAP1 PUSH1 0x2 MUL ADD PUSH1 0x0 ADD SLOAD SWAP3 POP SWAP3 POP POP SWAP1 SWAP2 JUMP JUMPDEST PUSH1 0x0 DUP1 PUSH1 0x0 PUSH1 0xA PUSH8 0xFFFFFFFFFFFFFFFF DUP2 GT ISZERO PUSH2 0x331 JUMPI PUSH2 0x330 PUSH2 0x52F JUMP JUMPDEST JUMPDEST PUSH1 0x40 MLOAD SWAP1 DUP1 DUP3 MSTORE DUP1 PUSH1 0x20 MUL PUSH1 0x20 ADD DUP3 ADD PUSH1 0x40 MSTORE DUP1 ISZERO PUSH2 0x36A JUMPI DUP2 PUSH1 0x20 ADD JUMPDEST PUSH2 0x357 PUSH2 0x414 JUMP JUMPDEST DUP2 MSTORE PUSH1 0x20 ADD SWAP1 PUSH1 0x1 SWAP1 SUB SWAP1 DUP2 PUSH2 0x34F JUMPI SWAP1 POP JUMPDEST POP SWAP1 POP PUSH1 0x0 DUP2 PUSH1 0x0 DUP2 MLOAD DUP2 LT PUSH2 0x383 JUMPI PUSH2 0x382 PUSH2 0x55E JUMP JUMPDEST JUMPDEST PUSH1 0x20 MUL PUSH1 0x20 ADD ADD MLOAD SWAP1 POP PUSH1 0x0 DUP3 PUSH1 0x1 DUP2 MLOAD DUP2 LT PUSH2 0x3A3 JUMPI PUSH2 0x3A2 PUSH2 0x55E JUMP JUMPDEST JUMPDEST PUSH1 0x20 MUL PUSH1 0x20 ADD ADD MLOAD SWAP1 POP PUSH1 0x0 DUP3 PUSH1 0x0 ADD MLOAD SWAP1 POP PUSH1 0x0 DUP3 PUSH1 0x0 ADD MLOAD SWAP1 POP PUSH1 0x0 DUP2 DUP4 EQ SWAP1 POP PUSH1 0x0 PUSH1 0x2 PUSH1 0x0 ADD SLOAD PUSH1 0x0 DUP1 ADD SLOAD EQ SWAP1 POP DUP2 DUP2 SWAP9 POP SWAP9 POP POP POP POP POP POP POP POP SWAP1 SWAP2 JUMP JUMPDEST PUSH1 0x0 PUSH2 0x3F1 PUSH2 0x414 JUMP JUMPDEST PUSH2 0x3F9 PUSH2 0x414 JUMP JUMPDEST DUP2 SWAP1 POP DUP4 DUP3 PUSH1 0x0 ADD DUP2 DUP2 MSTORE POP POP DUP1 PUSH1 0x0 ADD MLOAD SWAP3 POP POP POP SWAP2 SWAP1 POP JUMP JUMPDEST PUSH1 0x40 MLOAD DUP1 PUSH1 0x40 ADD PUSH1 0x40 MSTORE DUP1 PUSH1 0x0 DUP2 MSTORE PUSH1 0x20 ADD PUSH1 0x0 ISZERO ISZERO DUP2 MSTORE POP SWAP1 JUMP JUMPDEST PUSH1 0x0 DUP1 REVERT JUMPDEST PUSH1 0x0 DUP2 SWAP1 POP SWAP2 SWAP1 POP JUMP JUMPDEST PUSH2 0x448 DUP2 PUSH2 0x435 JUMP JUMPDEST DUP2 EQ PUSH2 0x453 JUMPI PUSH1 0x0 DUP1 REVERT JUMPDEST POP JUMP JUMPDEST PUSH1 0x0 DUP2 CALLDATALOAD SWAP1 POP PUSH2 0x465 DUP2 PUSH2 0x43F JUMP JUMPDEST SWAP3 SWAP2 POP POP JUMP JUMPDEST PUSH1 0x0 PUSH1 0x20 DUP3 DUP5 SUB SLT ISZERO PUSH2 0x481 JUMPI PUSH2 0x480 PUSH2 0x430 JUMP JUMPDEST JUMPDEST PUSH1 0x0 PUSH2 0x48F DUP5 DUP3 DUP6 ADD PUSH2 0x456 JUMP JUMPDEST SWAP2 POP POP SWAP3 SWAP2 POP POP JUMP JUMPDEST PUSH2 0x4A1 DUP2 PUSH2 0x435 JUMP JUMPDEST DUP3 MSTORE POP POP JUMP JUMPDEST PUSH1 0x0 PUSH1 0x20 DUP3 ADD SWAP1 POP PUSH2 0x4BC PUSH1 0x0 DUP4 ADD DUP5 PUSH2 0x498 JUMP JUMPDEST SWAP3 SWAP2 POP POP JUMP JUMPDEST PUSH1 0x0 PUSH1 0x40 DUP3 ADD SWAP1 POP PUSH2 0x4D7 PUSH1 0x0 DUP4 ADD DUP6 PUSH2 0x498 JUMP JUMPDEST PUSH2 0x4E4 PUSH1 0x20 DUP4 ADD DUP5 PUSH2 0x498 JUMP JUMPDEST SWAP4 SWAP3 POP POP POP JUMP JUMPDEST PUSH1 0x0 DUP2 ISZERO ISZERO SWAP1 POP SWAP2 SWAP1 POP JUMP JUMPDEST PUSH2 0x500 DUP2 PUSH2 0x4EB JUMP JUMPDEST DUP3 MSTORE POP POP JUMP JUMPDEST PUSH1 0x0 PUSH1 0x40 DUP3 ADD SWAP1 POP PUSH2 0x51B PUSH1 0x0 DUP4 ADD DUP6 PUSH2 0x4F7 JUMP JUMPDEST PUSH2 0x528 PUSH1 0x20 DUP4 ADD DUP5 PUSH2 0x4F7 JUMP JUMPDEST SWAP4 SWAP3 POP POP POP JUMP JUMPDEST PUSH32 0x4E487B7100000000000000000000000000000000000000000000000000000000 PUSH1 0x0 MSTORE PUSH1 0x41 PUSH1 0x4 MSTORE PUSH1 0x24 PUSH1 0x0 REVERT JUMPDEST PUSH32 0x4E487B7100000000000000000000000000000000000000000000000000000000 PUSH1 0x0 MSTORE PUSH1 0x32 PUSH1 0x4 MSTORE PUSH1 0x24 PUSH1 0x0 REVERT INVALID LOG2 PUSH5 0x6970667358 0x22 SLT KECCAK256 0x24 ISZERO PUSH2 0x8100 RETURN EXTCODECOPY DIV 0xB8 NOT DUP10 0xA8 0x22 0xC1 0xDF 0xB1 0xD5 0xCA 0xAE DUP11 SSTORE 0xD9 DUP7 PUSH4 0x6AE0EC75 DUP6 0xD2 0x25 0xEA PUSH5 0x736F6C6343 STOP ADDMOD SLT STOP CALLER "
				},
				"gasEstimates": {
					"creation": {
						"codeDepositCost": "295000",
						"executionCost": "337",
						"totalCost": "295337"
					},
					"external": {
						"copyingStructLocally(int256)": "infinite",
						"isShallow(int256)": "infinite",
						"useArray()": "infinite",
						"usingStorage()": "infinite"
					}
				},
				"methodIdentifiers": {
					"copyingStructLocally(int256)": "6d9953d1",
					"isShallow(int256)": "29f5debf",
					"useArray()": "5cac0e80",
					"usingStorage()": "4ade209d"
				}
			},
			"storageLayout": {
				"storage": [
					{
						"astId": 9,
						"contract": "contracts/storage.sol:Storage",
						"label": "s3",
						"offset": 0,
						"slot": "0",
						"type": "t_struct(S)6_storage"
					},
					{
						"astId": 12,
						"contract": "contracts/storage.sol:Storage",
						"label": "s4",
						"offset": 0,
						"slot": "2",
						"type": "t_struct(S)6_storage"
					},
					{
						"astId": 16,
						"contract": "contracts/storage.sol:Storage",
						"label": "s5",
						"offset": 0,
						"slot": "4",
						"type": "t_array(t_struct(S)6_storage)dyn_storage"
					}
				],
				"types": {
					"t_array(t_struct(S)6_storage)dyn_storage": {
						"base": "t_struct(S)6_storage",
						"encoding": "dynamic_array",
						"label": "struct Storage.S[]",
						"numberOfBytes": "32"
					},
					"t_bool": {
						"encoding": "inplace",
						"label": "bool",
						"numberOfBytes": "1"
					},
					"t_int256": {
						"encoding": "inplace",
						"label": "int256",
						"numberOfBytes": "32"
					},
					"t_struct(S)6_storage": {
						"encoding": "inplace",
						"label": "struct Storage.S",
						"members": [
							{
								"astId": 3,
								"contract": "contracts/storage.sol:Storage",
								"label": "a",
								"offset": 0,
								"slot": "0",
								"type": "t_int256"
							},
							{
								"astId": 5,
								"contract": "contracts/storage.sol:Storage",
								"label": "b",
								"offset": 0,
								"slot": "1",
								"type": "t_bool"
							}
						],
						"numberOfBytes": "64"
					}
				}
			},
			"userdoc": {
				"kind": "user",
				"methods": {},
				"version": 1
			}
		}
	}
}