{
	"data": {
		"bytecode": {
			"linkReferences": {},
			"object": "608060405234801561001057600080fd5b506105c3806100206000396000f3fe608060405234801561001057600080fd5b506004361061004c5760003560e01c806329f5debf146100515780634ade209d146100815780635cac0e80146100a05780636d9953d1146100bf575b600080fd5b61006b6004803603810190610066919061046b565b6100ef565b60405161007891906104a7565b60405180910390f35b6100896101d1565b6040516100979291906104c2565b60405180910390f35b6100a8610311565b6040516100b6929190610506565b60405180910390f35b6100d960048036038101906100d4919061046b565b6103e7565b6040516100e691906104a7565b60405180910390f35b600080600a67ffffffffffffffff81111561010d5761010c61052f565b5b60405190808252806020026020018201604052801561014657816020015b610133610414565b81526020019060019003908161012b5790505b5090508060008151811061015d5761015c61055e565b5b6020026020010151816001815181106101795761017861055e565b5b602002602001018190525082816000815181106101995761019861055e565b5b60200260200101516000018181525050806001815181106101bd576101bc61055e565b5b602002602001015160000151915050919050565b600080600460009080600181540180825580915050600190039060005260206000209060020201600090919091909150600082015481600001556001820160009054906101000a900460ff168160010160006101000a81548160ff02191690831515021790555050506001600080018190555061024c610414565b600281600001818152505060048190806001815401808255809150506001900390600052602060002090600202016000909190919091506000820151816000015560208201518160010160006101000a81548160ff0219169083151502179055505050600381600001818152505060046000815481106102cf576102ce61055e565b5b90600052602060002090600202016000015460046001815481106102f6576102f561055e565b5b90600052602060002090600202016000015492509250509091565b6000806000600a67ffffffffffffffff8111156103315761033061052f565b5b60405190808252806020026020018201604052801561036a57816020015b610357610414565b81526020019060019003908161034f5790505b5090506000816000815181106103835761038261055e565b5b602002602001015190506000826001815181106103a3576103a261055e565b5b602002602001015190506000826000015190506000826000015190506000818314905060006002600001546000800154149050818198509850505050505050509091565b60006103f1610414565b6103f9610414565b81905083826000018181525050806000015192505050919050565b6040518060400160405280600081526020016000151581525090565b600080fd5b6000819050919050565b61044881610435565b811461045357600080fd5b50565b6000813590506104658161043f565b92915050565b60006020828403121561048157610480610430565b5b600061048f84828501610456565b91505092915050565b6104a181610435565b82525050565b60006020820190506104bc6000830184610498565b92915050565b60006040820190506104d76000830185610498565b6104e46020830184610498565b9392505050565b60008115159050919050565b610500816104eb565b82525050565b600060408201905061051b60008301856104f7565b61052860208301846104f7565b9392505050565b7f4e487b7100000000000000000000000000000000000000000000000000000000600052604160045260246000fd5b7f4e487b7100000000000000000000000000000000000000000000000000000000600052603260045260246000fdfea26469706673582212202415618100f33c04b81989a822c1dfb1d5caae8a55d986636ae0ec7585d225ea64736f6c63430008120033",
			"opcodes": "PUSH1 0x80 PUSH1 0x40 MSTORE CALLVALUE DUP1 ISZERO PUSH2 0x10 JUMPI PUSH1 0x0 DUP1 REVERT JUMPDEST POP PUSH2 0x5C3 DUP1 PUSH2 0x20 PUSH1 0x0 CODECOPY PUSH1 0x0 RETURN INVALID PUSH1 0x80 PUSH1 0x40 MSTORE CALLVALUE DUP1 ISZERO PUSH2 0x10 JUMPI PUSH1 0x0 DUP1 REVERT JUMPDEST POP PUSH1 0x4 CALLDATASIZE LT PUSH2 0x4C JUMPI PUSH1 0x0 CALLDATALOAD PUSH1 0xE0 SHR DUP1 PUSH4 0x29F5DEBF EQ PUSH2 0x51 JUMPI DUP1 PUSH4 0x4ADE209D EQ PUSH2 0x81 JUMPI DUP1 PUSH4 0x5CAC0E80 EQ PUSH2 0xA0 JUMPI DUP1 PUSH4 0x6D9953D1 EQ PUSH2 0xBF JUMPI JUMPDEST PUSH1 0x0 DUP1 REVERT JUMPDEST PUSH2 0x6B PUSH1 0x4 DUP1 CALLDATASIZE SUB DUP2 ADD SWAP1 PUSH2 0x66 SWAP2 SWAP1 PUSH2 0x46B JUMP JUMPDEST PUSH2 0xEF JUMP JUMPDEST PUSH1 0x40 MLOAD PUSH2 0x78 SWAP2 SWAP1 PUSH2 0x4A7 JUMP JUMPDEST PUSH1 0x40 MLOAD DUP1 SWAP2 SUB SWAP1 RETURN JUMPDEST PUSH2 0x89 PUSH2 0x1D1 JUMP JUMPDEST PUSH1 0x40 MLOAD PUSH2 0x97 SWAP3 SWAP2 SWAP1 PUSH2 0x4C2 JUMP JUMPDEST PUSH1 0x40 MLOAD DUP1 SWAP2 SUB SWAP1 RETURN JUMPDEST PUSH2 0xA8 PUSH2 0x311 JUMP JUMPDEST PUSH1 0x40 MLOAD PUSH2 0xB6 SWAP3 SWAP2 SWAP1 PUSH2 0x506 JUMP JUMPDEST PUSH1 0x40 MLOAD DUP1 SWAP2 SUB SWAP1 RETURN JUMPDEST PUSH2 0xD9 PUSH1 0x4 DUP1 CALLDATASIZE SUB DUP2 ADD SWAP1 PUSH2 0xD4 SWAP2 SWAP1 PUSH2 0x46B JUMP JUMPDEST PUSH2 0x3E7 JUMP JUMPDEST PUSH1 0x40 MLOAD PUSH2 0xE6 SWAP2 SWAP1 PUSH2 0x4A7 JUMP JUMPDEST PUSH1 0x40 MLOAD DUP1 SWAP2 SUB SWAP1 RETURN JUMPDEST PUSH1 0x0 DUP1 PUSH1 0xA PUSH8 0xFFFFFFFFFFFFFFFF DUP2 GT ISZERO PUSH2 0x10D JUMPI PUSH2 0x10C PUSH2 0x52F JUMP JUMPDEST JUMPDEST PUSH1 0x40 MLOAD SWAP1 DUP1 DUP3 MSTORE DUP1 PUSH1 0x20 MUL PUSH1 0x20 ADD DUP3 ADD PUSH1 0x40 MSTORE DUP1 ISZERO PUSH2 0x146 JUMPI DUP2 PUSH1 0x20 ADD JUMPDEST PUSH2 0x133 PUSH2 0x414 JUMP JUMPDEST DUP2 MSTORE PUSH1 0x20 ADD SWAP1 PUSH1 0x1 SWAP1 SUB SWAP1 DUP2 PUSH2 0x12B JUMPI SWAP1 POP JUMPDEST POP SWAP1 POP DUP1 PUSH1 0x0 DUP2 MLOAD DUP2 LT PUSH2 0x15D JUMPI PUSH2 0x15C PUSH2 0x55E JUMP JUMPDEST JUMPDEST PUSH1 0x20 MUL PUSH1 0x20 ADD ADD MLOAD DUP2 PUSH1 0x1 DUP2 MLOAD DUP2 LT PUSH2 0x179 JUMPI PUSH2 0x178 PUSH2 0x55E JUMP JUMPDEST JUMPDEST PUSH1 0x20 MUL PUSH1 0x20 ADD ADD DUP2 SWAP1 MSTORE POP DUP3 DUP2 PUSH1 0x0 DUP2 MLOAD DUP2 LT PUSH2 0x199 JUMPI PUSH2 0x198 PUSH2 0x55E JUMP JUMPDEST JUMPDEST PUSH1 0x20 MUL PUSH1 0x20 ADD ADD MLOAD PUSH1 0x0 ADD DUP2 DUP2 MSTORE POP POP DUP1 PUSH1 0x1 DUP2 MLOAD DUP2 LT PUSH2 0x1BD JUMPI PUSH2 0x1BC PUSH2 0x55E JUMP JUMPDEST JUMPDEST PUSH1 0x20 MUL PUSH1 0x20 ADD ADD MLOAD PUSH1 0x0 ADD MLOAD SWAP2 POP POP SWAP2 SWAP1 POP JUMP JUMPDEST PUSH1 0x0 DUP1 PUSH1 0x4 PUSH1 0x0 SWAP1 DUP1 PUSH1 0x1 DUP2 SLOAD ADD DUP1 DUP3 SSTORE DUP1 SWAP2 POP POP PUSH1 0x1 SWAP1 SUB SWAP1 PUSH1 0x0 MSTORE PUSH1 0x20 PUSH1 0x0 KECCAK256 SWAP1 PUSH1 0x2 MUL ADD PUSH1 0x0 SWAP1 SWAP2 SWAP1 SWAP2 SWAP1 SWAP2 POP PUSH1 0x0 DUP3 ADD SLOAD DUP2 PUSH1 0x0 ADD SSTORE PUSH1 0x1 DUP3 ADD PUSH1 0x0 SWAP1 SLOAD SWAP1 PUSH2 0x100 EXP SWAP1 DIV PUSH1 0xFF AND DUP2 PUSH1 0x1 ADD PUSH1 0x0 PUSH2 0x100 EXP DUP2 SLOAD DUP2 PUSH1 0xFF MUL NOT AND SWAP1 DUP4 ISZERO ISZERO MUL OR SWAP1 SSTORE POP POP POP PUSH1 0x1 PUSH1 0x0 DUP1 ADD DUP2 SWAP1 SSTORE POP PUSH2 0x24C PUSH2 0x414 JUMP JUMPDEST PUSH1 0x2 DUP2 PUSH1 0x0 ADD DUP2 DUP2 MSTORE POP POP PUSH1 0x4 DUP2 SWAP1 DUP1 PUSH1 0x1 DUP2 SLOAD ADD DUP1 DUP3 SSTORE DUP1 SWAP2 POP POP PUSH1 0x1 SWAP1 SUB SWAP1 PUSH1 0x0 MSTORE PUSH1 0x20 PUSH1 0x0 KECCAK256 SWAP1 PUSH1 0x2 MUL ADD PUSH1 0x0 SWAP1 SWAP2 SWAP1 SWAP2 SWAP1 SWAP2 POP PUSH1 0x0 DUP3 ADD MLOAD DUP2 PUSH1 0x0 ADD SSTORE PUSH1 0x20 DUP3 ADD MLOAD DUP2 PUSH1 0x1 ADD PUSH1 0x0 PUSH2 0x100 EXP DUP2 SLOAD DUP2 PUSH1 0xFF MUL NOT AND SWAP1 DUP4 ISZERO ISZERO MUL OR SWAP1 SSTORE POP POP POP PUSH1 0x3 DUP2 PUSH1 0x0 ADD DUP2 DUP2 MSTORE POP POP PUSH1 0x4 PUSH1 0x0 DUP2 SLOAD DUP2 LT PUSH2 0x2CF JUMPI PUSH2 0x2CE PUSH2 0x55E JUMP JUMPDEST JUMPDEST SWAP1 PUSH1 0x0 MSTORE PUSH1 0x20 PUSH1 0x0 KECCAK256 SWAP1 PUSH1 0x2 MUL ADD PUSH1 0x0 ADD SLOAD PUSH1 0x4 PUSH1 0x1 DUP2 SLOAD DUP2 LT PUSH2 0x2F6 JUMPI PUSH2 0x2F5 PUSH2 0x55E JUMP JUMPDEST JUMPDEST SWAP1 PUSH1 0x0 MSTORE PUSH1 0x20 PUSH1 0x0 KECCAK256 SWAP1 PUSH1 0x2 MUL ADD PUSH1 0x0 ADD SLOAD SWAP3 POP SWAP3 POP POP SWAP1 SWAP2 JUMP JUMPDEST PUSH1 0x0 DUP1 PUSH1 0x0 PUSH1 0xA PUSH8 0xFFFFFFFFFFFFFFFF DUP2 GT ISZERO PUSH2 0x331 JUMPI PUSH2 0x330 PUSH2 0x52F JUMP JUMPDEST JUMPDEST PUSH1 0x40 MLOAD SWAP1 DUP1 DUP3 MSTORE DUP1 PUSH1 0x20 MUL PUSH1 0x20 ADD DUP3 ADD PUSH1 0x40 MSTORE DUP1 ISZERO PUSH2 0x36A JUMPI DUP2 PUSH1 0x20 ADD JUMPDEST PUSH2 0x357 PUSH2 0x414 JUMP JUMPDEST DUP2 MSTORE PUSH1 0x20 ADD SWAP1 PUSH1 0x1 SWAP1 SUB SWAP1 DUP2 PUSH2 0x34F JUMPI SWAP1 POP JUMPDEST POP SWAP1 POP PUSH1 0x0 DUP2 PUSH1 0x0 DUP2 MLOAD DUP2 LT PUSH2 0x383 JUMPI PUSH2 0x382 PUSH2 0x55E JUMP JUMPDEST JUMPDEST PUSH1 0x20 MUL PUSH1 0x20 ADD ADD MLOAD SWAP1 POP PUSH1 0x0 DUP3 PUSH1 0x1 DUP2 MLOAD DUP2 LT PUSH2 0x3A3 JUMPI PUSH2 0x3A2 PUSH2 0x55E JUMP JUMPDEST JUMPDEST PUSH1 0x20 MUL PUSH1 0x20 ADD ADD MLOAD SWAP1 POP PUSH1 0x0 DUP3 PUSH1 0x0 ADD MLOAD SWAP1 POP PUSH1 0x0 DUP3 PUSH1 0x0 ADD MLOAD SWAP1 POP PUSH1 0x0 DUP2 DUP4 EQ SWAP1 POP PUSH1 0x0 PUSH1 0x2 PUSH1 0x0 ADD SLOAD PUSH1 0x0 DUP1 ADD SLOAD EQ SWAP1 POP DUP2 DUP2 SWAP9 POP SWAP9 POP POP POP POP POP POP POP POP SWAP1 SWAP2 JUMP JUMPDEST PUSH1 0x0 PUSH2 0x3F1 PUSH2 0x414 JUMP JUMPDEST PUSH2 0x3F9 PUSH2 0x414 JUMP JUMPDEST DUP2 SWAP1 POP DUP4 DUP3 PUSH1 0x0 ADD DUP2 DUP2 MSTORE POP POP DUP1 PUSH1 0x0 ADD MLOAD SWAP3 POP POP POP SWAP2 SWAP1 POP JUMP JUMPDEST PUSH1 0x40 MLOAD DUP1 PUSH1 0x40 ADD PUSH1 0x40 MSTORE DUP1 PUSH1 0x0 DUP2 MSTORE PUSH1 0x20 ADD PUSH1 0x0 ISZERO ISZERO DUP2 MSTORE POP SWAP1 JUMP JUMPDEST PUSH1 0x0 DUP1 REVERT JUMPDEST PUSH1 0x0 DUP2 SWAP1 POP SWAP2 SWAP1 POP JUMP JUMPDEST PUSH2 0x448 DUP2 PUSH2 0x435 JUMP JUMPDEST DUP2 EQ PUSH2 0x453 JUMPI PUSH1 0x0 DUP1 REVERT JUMPDEST POP JUMP JUMPDEST PUSH1 0x0 DUP2 CALLDATALOAD SWAP1 POP PUSH2 0x465 DUP2 PUSH2 0x43F JUMP JUMPDEST SWAP3 SWAP2 POP POP JUMP JUMPDEST PUSH1 0x0 PUSH1 0x20 DUP3 DUP5 SUB SLT ISZERO PUSH2 0x481 JUMPI PUSH2 0x480 PUSH2 0x430 JUMP JUMPDEST JUMPDEST PUSH1 0x0 PUSH2 0x48F DUP5 DUP3 DUP6 ADD PUSH2 0x456 JUMP JUMPDEST SWAP2 POP POP SWAP3 SWAP2 POP POP JUMP JUMPDEST PUSH2 0x4A1 DUP2 PUSH2 0x435 JUMP JUMPDEST DUP3 MSTORE POP POP JUMP JUMPDEST PUSH1 0x0 PUSH1 0x20 DUP3 ADD SWAP1 POP PUSH2 0x4BC PUSH1 0x0 DUP4 ADD DUP5 PUSH2 0x498 JUMP JUMPDEST SWAP3 SWAP2 POP POP JUMP JUMPDEST PUSH1 0x0 PUSH1 0x40 DUP3 ADD SWAP1 POP PUSH2 0x4D7 PUSH1 0x0 DUP4 ADD DUP6 PUSH2 0x498 JUMP JUMPDEST PUSH2 0x4E4 PUSH1 0x20 DUP4 ADD DUP5 PUSH2 0x498 JUMP JUMPDEST SWAP4 SWAP3 POP POP POP JUMP JUMPDEST PUSH1 0x0 DUP2 ISZERO ISZERO SWAP1 POP SWAP2 SWAP1 POP JUMP JUMPDEST PUSH2 0x500 DUP2 PUSH2 0x4EB JUMP JUMPDEST DUP3 MSTORE POP POP JUMP JUMPDEST PUSH1 0x0 PUSH1 0x40 DUP3 ADD SWAP1 POP PUSH2 0x51B PUSH1 0x0 DUP4 ADD DUP6 PUSH2 0x4F7 JUMP JUMPDEST PUSH2 0x528 PUSH1 0x20 DUP4 ADD DUP5 PUSH2 0x4F7 JUMP JUMPDEST SWAP4 SWAP3 POP POP POP JUMP JUMPDEST PUSH32 0x4E487B7100000000000000000000000000000000000000000000000000000000 PUSH1 0x0 MSTORE PUSH1 0x41 PUSH1 0x4 MSTORE PUSH1 0x24 PUSH1 0x0 REVERT JUMPDEST PUSH32 0x4E487B7100000000000000000000000000000000000000000000000000000000 PUSH1 0x0 MSTORE PUSH1 0x32 PUSH1 0x4 MSTORE PUSH1 0x24 PUSH1 0x0 REVERT INVALID LOG2 PUSH5 0x6970667358 0x22 SLT KECCAK256 0x24 ISZERO PUSH2 0x8100 RETURN EXTCODECOPY DIV 0xB8 NOT DUP10 0xA8 0x22 0xC1 0xDF 0xB1 0xD5 0xCA 0xAE DUP11 SSTORE 0xD9 DUP7 PUSH4 0x6AE0EC75 DUP6 0xD2 0x25 0xEA PUSH5 0x736F6C6343 STOP ADDMOD SLT STOP CALLER "
		},
		"gasEstimates": {
			"creation": {
				"codeDepositCost": "295000",
				"executionCost": "337",
				"totalCost": "295337"
			},
			"external": {
				"copyingStructLocally(int256)": "infinite",
				"isShallow(int256)": "infinite",
				"useArray()": "infinite",
				"usingStorage()": "infinite"
			}
		},
		"methodIdentifiers": {
			"copyingStructLocally(int256)": "6d9953d1",
			"isShallow(int256)": "29f5debf",
			"useArray()": "5cac0e80",
			"usingStorage()": "4ade209d"
		}
	},
	"abi": [
		{
			"inputs": [],
			"stateMutability": "nonpayable",
			"type": "constructor"
		},
		{
			"inputs": [
				{
					"internalType": "int256",
					"name": "v",
					"type": "int256"
				}
			],
			"name": "copyingStructLocally",
			"outputs": [
				{
					"internalType": "int256",
					"name": "",
					"type": "int256"
				}
			],
			"stateMutability": "pure",
			"type": "function"
		},
		{
			"inputs": [
				{
					"internalType": "int256",
					"name": "val",
					"type": "int256"
				}
			],
			"name": "isShallow",
			"outputs": [
				{
					"internalType": "int256",
					"name": "",
					"type": "int256"
				}
			],
			"stateMutability": "pure",
			"type": "function"
		},
		{
			"inputs": [],
			"name": "useArray",
			"outputs": [
				{
					"internalType": "bool",
					"name": "",
					"type": "bool"
				},
				{
					"internalType": "bool",
					"name": "",
					"type": "bool"
				}
			],
			"stateMutability": "view",
			"type": "function"
		},
		{
			"inputs": [],
			"name": "usingStorage",
			"outputs": [
				{
					"internalType": "int256",
					"name": "",
					"type": "int256"
				},
				{
					"internalType": "int256",
					"name": "",
					"type": "int256"
				}
			],
			"stateMutability": "nonpayable",
			"type": "function"
		}
	]
}